{
  "_format": "hh-sol-artifact-1",
  "contractName": "CrosschainCoinRouter",
  "sourceName": "contracts/CrosschainCoinRouter.sol",
  "abi": [
    {
      "inputs": [
        {
          "internalType": "contract CrosschainERC20",
          "name": "_cerc20",
          "type": "address"
        }
      ],
      "stateMutability": "nonpayable",
      "type": "constructor"
    },
    {
      "inputs": [],
      "name": "cerc20",
      "outputs": [
        {
          "internalType": "contract CrosschainERC20",
          "name": "",
          "type": "address"
        }
      ],
      "stateMutability": "view",
      "type": "function"
    },
    {
      "inputs": [],
      "name": "resetAllowance",
      "outputs": [],
      "stateMutability": "nonpayable",
      "type": "function"
    },
    {
      "inputs": [
        {
          "internalType": "uint256",
          "name": "_amount",
          "type": "uint256"
        }
      ],
      "name": "swapCoinForCrosschainCoin",
      "outputs": [],
      "stateMutability": "payable",
      "type": "function"
    },
    {
      "inputs": [
        {
          "internalType": "uint256",
          "name": "_amount",
          "type": "uint256"
        }
      ],
      "name": "swapCoinForWrappedCoin",
      "outputs": [],
      "stateMutability": "payable",
      "type": "function"
    },
    {
      "inputs": [
        {
          "internalType": "uint256",
          "name": "_amount",
          "type": "uint256"
        }
      ],
      "name": "swapCrosschainCoinForCoin",
      "outputs": [],
      "stateMutability": "nonpayable",
      "type": "function"
    },
    {
      "inputs": [
        {
          "internalType": "uint256",
          "name": "_amount",
          "type": "uint256"
        }
      ],
      "name": "swapCrosschainCoinForWrappedCoin",
      "outputs": [],
      "stateMutability": "nonpayable",
      "type": "function"
    },
    {
      "inputs": [
        {
          "internalType": "uint256",
          "name": "_amount",
          "type": "uint256"
        }
      ],
      "name": "swapWrappedCoinForCoin",
      "outputs": [],
      "stateMutability": "nonpayable",
      "type": "function"
    },
    {
      "inputs": [
        {
          "internalType": "uint256",
          "name": "_amount",
          "type": "uint256"
        }
      ],
      "name": "swapWrappedCoinForCrosschainCoin",
      "outputs": [],
      "stateMutability": "nonpayable",
      "type": "function"
    },
    {
      "inputs": [],
      "name": "wrappedCoin",
      "outputs": [
        {
          "internalType": "contract WrappedCoin",
          "name": "",
          "type": "address"
        }
      ],
      "stateMutability": "view",
      "type": "function"
    },
    {
      "stateMutability": "payable",
      "type": "receive"
    }
  ],
  "bytecode": "0x60806040523480156200001157600080fd5b506040516200124b3803806200124b83398101604081905262000034916200050c565b6000816001600160a01b0316637f9864f76040518163ffffffff1660e01b815260040160206040518083038186803b1580156200007057600080fd5b505afa15801562000085573d6000803e3d6000fd5b505050506040513d601f19601f82011682018060405250810190620000ab91906200050c565b600180546001600160a01b0319166001600160a01b03858116918217909255919250620000eb919083169060001962000112602090811b620005f217901c565b600080546001600160a01b0319166001600160a01b039290921691909117905550620005e5565b801580620001a05750604051636eb1769f60e11b81523060048201526001600160a01b03838116602483015284169063dd62ed3e9060440160206040518083038186803b1580156200016357600080fd5b505afa15801562000178573d6000803e3d6000fd5b505050506040513d601f19601f820116820180604052508101906200019e91906200052c565b155b620002185760405162461bcd60e51b815260206004820152603660248201527f5361666545524332303a20617070726f76652066726f6d206e6f6e2d7a65726f60448201527f20746f206e6f6e2d7a65726f20616c6c6f77616e63650000000000000000000060648201526084015b60405180910390fd5b604080516001600160a01b038416602482015260448082018490528251808303909101815260649091019091526020810180516001600160e01b0390811663095ea7b360e01b17909152620002709185916200027516565b505050565b6000620002d1826040518060400160405280602081526020017f5361666545524332303a206c6f772d6c6576656c2063616c6c206661696c6564815250856001600160a01b03166200035360201b62000787179092919060201c565b805190915015620002705780806020019051810190620002f29190620004e8565b620002705760405162461bcd60e51b815260206004820152602a60248201527f5361666545524332303a204552433230206f7065726174696f6e20646964206e6044820152691bdd081cdd58d8d9595960b21b60648201526084016200020f565b60606200036484846000856200036e565b90505b9392505050565b606082471015620003d15760405162461bcd60e51b815260206004820152602660248201527f416464726573733a20696e73756666696369656e742062616c616e636520666f6044820152651c8818d85b1b60d21b60648201526084016200020f565b6001600160a01b0385163b6200042a5760405162461bcd60e51b815260206004820152601d60248201527f416464726573733a2063616c6c20746f206e6f6e2d636f6e747261637400000060448201526064016200020f565b600080866001600160a01b0316858760405162000448919062000546565b60006040518083038185875af1925050503d806000811462000487576040519150601f19603f3d011682016040523d82523d6000602084013e6200048c565b606091505b5090925090506200049f828286620004aa565b979650505050505050565b60608315620004bb57508162000367565b825115620004cc5782518084602001fd5b8160405162461bcd60e51b81526004016200020f919062000564565b600060208284031215620004fb57600080fd5b815180151581146200036757600080fd5b6000602082840312156200051f57600080fd5b81516200036781620005cc565b6000602082840312156200053f57600080fd5b5051919050565b600082516200055a81846020870162000599565b9190910192915050565b60208152600082518060208401526200058581604085016020870162000599565b601f01601f19169190910160400192915050565b60005b83811015620005b65781810151838201526020016200059c565b83811115620005c6576000848401525b50505050565b6001600160a01b0381168114620005e257600080fd5b50565b610c5680620005f56000396000f3fe60806040526004361061009a5760003560e01c8063527ba9af116100695780637514ca901161004e5780637514ca90146101795780638cb8d6fd1461018c578063bd3fa2521461019f57600080fd5b8063527ba9af1461014457806366eeef521461016457600080fd5b806304eb911f146100a65780630db94bd1146100c857806329c6bb37146100e857806341e91d901461010857600080fd5b366100a157005b600080fd5b3480156100b257600080fd5b506100c66100c1366004610b57565b6101bf565b005b3480156100d457600080fd5b506100c66100e3366004610b57565b610258565b3480156100f457600080fd5b506100c6610103366004610b57565b610300565b34801561011457600080fd5b50600154610128906001600160a01b031681565b6040516001600160a01b03909116815260200160405180910390f35b34801561015057600080fd5b50600054610128906001600160a01b031681565b34801561017057600080fd5b506100c661034f565b6100c6610187366004610b57565b610410565b6100c661019a366004610b57565b6104c8565b3480156101ab57600080fd5b506100c66101ba366004610b57565b61054b565b6000546101d7906001600160a01b03163330846107a0565b6001546040517fffaad6a5000000000000000000000000000000000000000000000000000000008152336004820152602481018390526001600160a01b039091169063ffaad6a5906044015b600060405180830381600087803b15801561023d57600080fd5b505af1158015610251573d6000803e3d6000fd5b5050505050565b600054610270906001600160a01b03163330846107a0565b600054604051632e1a7d4d60e01b8152600481018390526001600160a01b0390911690632e1a7d4d906024015b600060405180830381600087803b1580156102b757600080fd5b505af11580156102cb573d6000803e3d6000fd5b505060405133925083156108fc02915083906000818181858888f193505050501580156102fc573d6000803e3d6000fd5b5050565b600154610318906001600160a01b03163330846107a0565b60015460405163040b850f60e31b8152336004820152602481018390526001600160a01b039091169063205c287890604401610223565b60008054600154604051636eb1769f60e11b81523060048201526001600160a01b03918216602482015291169190829063dd62ed3e9060440160206040518083038186803b1580156103a057600080fd5b505afa1580156103b4573d6000803e3d6000fd5b505050506040513d601f19601f820116820180604052508101906103d89190610b70565b905060001981146102fc576001546102fc906001600160a01b03166103ff83600019610bf0565b6001600160a01b03851691906107de565b60008054906101000a90046001600160a01b03166001600160a01b031663d0e30db0826040518263ffffffff1660e01b81526004016000604051808303818588803b15801561045e57600080fd5b505af1158015610472573d6000803e3d6000fd5b50506001546040517fffaad6a5000000000000000000000000000000000000000000000000000000008152336004820152602481018690526001600160a01b03909116935063ffaad6a592506044019050610223565b60008054906101000a90046001600160a01b03166001600160a01b031663d0e30db0826040518263ffffffff1660e01b81526004016000604051808303818588803b15801561051657600080fd5b505af115801561052a573d6000803e3d6000fd5b505060005461054893506001600160a01b031691503390508361089f565b50565b600154610563906001600160a01b03163330846107a0565b600154604051632e1a7d4d60e01b8152600481018390526001600160a01b0390911690632e1a7d4d90602401600060405180830381600087803b1580156105a957600080fd5b505af11580156105bd573d6000803e3d6000fd5b5050600054604051632e1a7d4d60e01b8152600481018590526001600160a01b039091169250632e1a7d4d915060240161029d565b80158061067b5750604051636eb1769f60e11b81523060048201526001600160a01b03838116602483015284169063dd62ed3e9060440160206040518083038186803b15801561064157600080fd5b505afa158015610655573d6000803e3d6000fd5b505050506040513d601f19601f820116820180604052508101906106799190610b70565b155b6106f25760405162461bcd60e51b815260206004820152603660248201527f5361666545524332303a20617070726f76652066726f6d206e6f6e2d7a65726f60448201527f20746f206e6f6e2d7a65726f20616c6c6f77616e63650000000000000000000060648201526084015b60405180910390fd5b6040516001600160a01b03831660248201526044810182905261078290849063095ea7b360e01b906064015b60408051601f198184030181529190526020810180517bffffffffffffffffffffffffffffffffffffffffffffffffffffffff167fffffffff00000000000000000000000000000000000000000000000000000000909316929092179091526108cf565b505050565b606061079684846000856109b4565b90505b9392505050565b6040516001600160a01b03808516602483015283166044820152606481018290526107d89085906323b872dd60e01b9060840161071e565b50505050565b604051636eb1769f60e11b81523060048201526001600160a01b038381166024830152600091839186169063dd62ed3e9060440160206040518083038186803b15801561082a57600080fd5b505afa15801561083e573d6000803e3d6000fd5b505050506040513d601f19601f820116820180604052508101906108629190610b70565b61086c9190610bd8565b6040516001600160a01b0385166024820152604481018290529091506107d890859063095ea7b360e01b9060640161071e565b6040516001600160a01b03831660248201526044810182905261078290849063a9059cbb60e01b9060640161071e565b6000610924826040518060400160405280602081526020017f5361666545524332303a206c6f772d6c6576656c2063616c6c206661696c6564815250856001600160a01b03166107879092919063ffffffff16565b80519091501561078257808060200190518101906109429190610b35565b6107825760405162461bcd60e51b815260206004820152602a60248201527f5361666545524332303a204552433230206f7065726174696f6e20646964206e60448201527f6f7420737563636565640000000000000000000000000000000000000000000060648201526084016106e9565b606082471015610a2c5760405162461bcd60e51b815260206004820152602660248201527f416464726573733a20696e73756666696369656e742062616c616e636520666f60448201527f722063616c6c000000000000000000000000000000000000000000000000000060648201526084016106e9565b6001600160a01b0385163b610a835760405162461bcd60e51b815260206004820152601d60248201527f416464726573733a2063616c6c20746f206e6f6e2d636f6e747261637400000060448201526064016106e9565b600080866001600160a01b03168587604051610a9f9190610b89565b60006040518083038185875af1925050503d8060008114610adc576040519150601f19603f3d011682016040523d82523d6000602084013e610ae1565b606091505b5091509150610af1828286610afc565b979650505050505050565b60608315610b0b575081610799565b825115610b1b5782518084602001fd5b8160405162461bcd60e51b81526004016106e99190610ba5565b600060208284031215610b4757600080fd5b8151801515811461079957600080fd5b600060208284031215610b6957600080fd5b5035919050565b600060208284031215610b8257600080fd5b5051919050565b60008251610b9b818460208701610c07565b9190910192915050565b6020815260008251806020840152610bc4816040850160208701610c07565b601f01601f19169190910160400192915050565b60008219821115610beb57610beb610c33565b500190565b600082821015610c0257610c02610c33565b500390565b60005b83811015610c22578181015183820152602001610c0a565b838111156107d85750506000910152565b634e487b7160e01b600052601160045260246000fdfea164736f6c6343000807000a",
  "linkReferences": {},
  "deployedLinkReferences": {}
}