{
  "_format": "hh-sol-artifact-1",
  "contractName": "LordV2",
  "sourceName": "contracts/v0.2/LordV2.sol",
  "abi": [
    {
      "inputs": [
        {
          "internalType": "contract IAllowlist",
          "name": "_proxyTokenList",
          "type": "address"
        },
        {
          "internalType": "contract IMinter",
          "name": "_minterPool",
          "type": "address"
        }
      ],
      "stateMutability": "nonpayable",
      "type": "constructor"
    },
    {
      "anonymous": false,
      "inputs": [
        {
          "indexed": false,
          "internalType": "address",
          "name": "candidate",
          "type": "address"
        }
      ],
      "name": "CandidateOwnerNominated",
      "type": "event"
    },
    {
      "anonymous": false,
      "inputs": [
        {
          "indexed": false,
          "internalType": "address",
          "name": "owner",
          "type": "address"
        }
      ],
      "name": "OwnershipTransferred",
      "type": "event"
    },
    {
      "inputs": [],
      "name": "acceptOwnership",
      "outputs": [],
      "stateMutability": "nonpayable",
      "type": "function"
    },
    {
      "inputs": [
        {
          "internalType": "address",
          "name": "_token",
          "type": "address"
        },
        {
          "internalType": "address",
          "name": "_sender",
          "type": "address"
        },
        {
          "internalType": "uint256",
          "name": "_amount",
          "type": "uint256"
        }
      ],
      "name": "burn",
      "outputs": [],
      "stateMutability": "nonpayable",
      "type": "function"
    },
    {
      "inputs": [],
      "name": "candidateOwner",
      "outputs": [
        {
          "internalType": "address",
          "name": "",
          "type": "address"
        }
      ],
      "stateMutability": "view",
      "type": "function"
    },
    {
      "inputs": [
        {
          "internalType": "address",
          "name": "_token",
          "type": "address"
        },
        {
          "internalType": "address",
          "name": "_recipient",
          "type": "address"
        },
        {
          "internalType": "uint256",
          "name": "_amount",
          "type": "uint256"
        }
      ],
      "name": "mint",
      "outputs": [],
      "stateMutability": "nonpayable",
      "type": "function"
    },
    {
      "inputs": [],
      "name": "minterPool",
      "outputs": [
        {
          "internalType": "contract IMinter",
          "name": "",
          "type": "address"
        }
      ],
      "stateMutability": "view",
      "type": "function"
    },
    {
      "inputs": [],
      "name": "owner",
      "outputs": [
        {
          "internalType": "address",
          "name": "",
          "type": "address"
        }
      ],
      "stateMutability": "view",
      "type": "function"
    },
    {
      "inputs": [],
      "name": "proxyTokenList",
      "outputs": [
        {
          "internalType": "contract IAllowlist",
          "name": "",
          "type": "address"
        }
      ],
      "stateMutability": "view",
      "type": "function"
    },
    {
      "inputs": [
        {
          "internalType": "address",
          "name": "_newOwner",
          "type": "address"
        }
      ],
      "name": "transferOwnership",
      "outputs": [],
      "stateMutability": "nonpayable",
      "type": "function"
    },
    {
      "inputs": [
        {
          "internalType": "address",
          "name": "_newLord",
          "type": "address"
        }
      ],
      "name": "upgrade",
      "outputs": [],
      "stateMutability": "nonpayable",
      "type": "function"
    }
  ],
  "bytecode": "0x608060405234801561001057600080fd5b50604051610b60380380610b6083398101604081905261002f916100a8565b600080546001600160a01b031916339081179091556040519081527f04dba622d284ed0014ee4b9a6a68386be1a4c08a4913ae272de89199cc6861639060200160405180910390a1600280546001600160a01b039384166001600160a01b031991821617909155600380549290931691161790556100fa565b600080604083850312156100bb57600080fd5b82516100c6816100e2565b60208401519092506100d7816100e2565b809150509250929050565b6001600160a01b03811681146100f757600080fd5b50565b610a57806101096000396000f3fe608060405234801561001057600080fd5b50600436106100a35760003560e01c8063aaf6891711610076578063c6c3bbe61161005b578063c6c3bbe61461012d578063f2fde38b14610140578063f6b911bc1461015357600080fd5b8063aaf6891714610107578063c105ea2b1461011a57600080fd5b80630900f010146100a857806379ba5097146100bd5780637b3102f0146100c55780638da5cb5b146100f4575b600080fd5b6100bb6100b6366004610919565b610166565b005b6100bb610298565b6002546100d8906001600160a01b031681565b6040516001600160a01b03909116815260200160405180910390f35b6000546100d8906001600160a01b031681565b6003546100d8906001600160a01b031681565b6001546100d8906001600160a01b031681565b6100bb61013b366004610953565b610358565b6100bb61014e366004610919565b610515565b6100bb610161366004610953565b61058d565b6000546001600160a01b0316331461017d57600080fd5b60035460408051638da5cb5b60e01b8152905130926001600160a01b031691638da5cb5b916004808301926020929190829003018186803b1580156101c157600080fd5b505afa1580156101d5573d6000803e3d6000fd5b505050506040513d601f19601f820116820180604052508101906101f99190610936565b6001600160a01b03161415610295576003546040516001600160a01b03838116602483015261029592169063f2fde38b60e01b906044015b60408051601f198184030181529190526020810180517bffffffffffffffffffffffffffffffffffffffffffffffffffffffff167fffffffff00000000000000000000000000000000000000000000000000000000909316929092179091526106c0565b50565b6001546001600160a01b031633146102f75760405162461bcd60e51b815260206004820152601360248201527f6e6f742063616e646964617465206f776e65720000000000000000000000000060448201526064015b60405180910390fd5b600080543373ffffffffffffffffffffffffffffffffffffffff1991821681179092556001805490911690556040519081527f04dba622d284ed0014ee4b9a6a68386be1a4c08a4913ae272de89199cc6861639060200160405180910390a1565b6000546001600160a01b0316331461036f57600080fd5b6002546001600160a01b031615801590610401575060025460405163babcc53960e01b81526001600160a01b0385811660048301529091169063babcc5399060240160206040518083038186803b1580156103c957600080fd5b505afa1580156103dd573d6000803e3d6000fd5b505050506040513d601f19601f820116820180604052508101906104019190610994565b156104e057600354604051636361ddf360e11b81526001600160a01b0385811660048301528481166024830152604482018490529091169063c6c3bbe690606401602060405180830381600087803b15801561045c57600080fd5b505af1158015610470573d6000803e3d6000fd5b505050506040513d601f19601f820116820180604052508101906104949190610994565b6104e05760405162461bcd60e51b815260206004820152601760248201527f70726f787920746f6b656e206d696e74206661696c656400000000000000000060448201526064016102ee565b6040516001600160a01b0383166024820152604481018290526105109084906340c10f1960e01b90606401610231565b505050565b6000546001600160a01b0316331461052c57600080fd5b6001805473ffffffffffffffffffffffffffffffffffffffff19166001600160a01b0383169081179091556040519081527fab11dce89b1a257bd34e6e64673d157494c9bcf04f4e63b990bc87a2cf21fc309060200160405180910390a150565b6000546001600160a01b031633146105a457600080fd5b6002546001600160a01b031615801590610636575060025460405163babcc53960e01b81526001600160a01b0385811660048301529091169063babcc5399060240160206040518083038186803b1580156105fe57600080fd5b505afa158015610612573d6000803e3d6000fd5b505050506040513d601f19601f820116820180604052508101906106369190610994565b15610690576040516001600160a01b0383166024820152306044820152606481018290526106719084906323b872dd60e01b90608401610231565b610510836342966c6860e01b8360405160240161023191815260200190565b6040516001600160a01b03831660248201526044810182905261051090849063079cc67960e41b90606401610231565b6000610715826040518060400160405280601581526020017f6c6f772d6c6576656c2063616c6c206661696c65640000000000000000000000815250856001600160a01b031661077f9092919063ffffffff16565b80519091501561051057808060200190518101906107339190610994565b6105105760405162461bcd60e51b815260206004820152601960248201527f6f7065726174696f6e20646964206e6f7420737563636565640000000000000060448201526064016102ee565b606061078e8484600085610798565b90505b9392505050565b6060824710156108105760405162461bcd60e51b815260206004820152602660248201527f416464726573733a20696e73756666696369656e742062616c616e636520666f60448201527f722063616c6c000000000000000000000000000000000000000000000000000060648201526084016102ee565b6001600160a01b0385163b6108675760405162461bcd60e51b815260206004820152601d60248201527f416464726573733a2063616c6c20746f206e6f6e2d636f6e747261637400000060448201526064016102ee565b600080866001600160a01b0316858760405161088391906109b6565b60006040518083038185875af1925050503d80600081146108c0576040519150601f19603f3d011682016040523d82523d6000602084013e6108c5565b606091505b50915091506108d58282866108e0565b979650505050505050565b606083156108ef575081610791565b8251156108ff5782518084602001fd5b8160405162461bcd60e51b81526004016102ee91906109d2565b60006020828403121561092b57600080fd5b813561079181610a35565b60006020828403121561094857600080fd5b815161079181610a35565b60008060006060848603121561096857600080fd5b833561097381610a35565b9250602084013561098381610a35565b929592945050506040919091013590565b6000602082840312156109a657600080fd5b8151801515811461079157600080fd5b600082516109c8818460208701610a05565b9190910192915050565b60208152600082518060208401526109f1816040850160208701610a05565b601f01601f19169190910160400192915050565b60005b83811015610a20578181015183820152602001610a08565b83811115610a2f576000848401525b50505050565b6001600160a01b038116811461029557600080fdfea164736f6c6343000807000a",
  "linkReferences": {},
  "deployedLinkReferences": {}
}