{
  "_format": "hh-sol-artifact-1",
  "contractName": "Tube",
  "sourceName": "contracts/Tube.sol",
  "abi": [
    {
      "inputs": [
        {
          "internalType": "uint256",
          "name": "_tubeID",
          "type": "uint256"
        },
        {
          "internalType": "contract ILedger",
          "name": "_ledger",
          "type": "address"
        },
        {
          "internalType": "contract ILord",
          "name": "_lord",
          "type": "address"
        },
        {
          "internalType": "contract IVerifier",
          "name": "_verifier",
          "type": "address"
        },
        {
          "internalType": "contract IERC20",
          "name": "_tubeToken",
          "type": "address"
        },
        {
          "internalType": "address",
          "name": "_safe",
          "type": "address"
        }
      ],
      "stateMutability": "nonpayable",
      "type": "constructor"
    },
    {
      "anonymous": false,
      "inputs": [
        {
          "indexed": true,
          "internalType": "uint256",
          "name": "tubeID",
          "type": "uint256"
        },
        {
          "indexed": true,
          "internalType": "address",
          "name": "token",
          "type": "address"
        },
        {
          "indexed": true,
          "internalType": "uint256",
          "name": "tokenID",
          "type": "uint256"
        },
        {
          "indexed": false,
          "internalType": "uint256",
          "name": "txIdx",
          "type": "uint256"
        },
        {
          "indexed": false,
          "internalType": "address",
          "name": "sender",
          "type": "address"
        },
        {
          "indexed": false,
          "internalType": "address",
          "name": "recipient",
          "type": "address"
        },
        {
          "indexed": false,
          "internalType": "bytes",
          "name": "data",
          "type": "bytes"
        },
        {
          "indexed": false,
          "internalType": "uint256",
          "name": "fee",
          "type": "uint256"
        }
      ],
      "name": "NFTReceipt",
      "type": "event"
    },
    {
      "anonymous": false,
      "inputs": [
        {
          "indexed": true,
          "internalType": "address",
          "name": "previousOwner",
          "type": "address"
        },
        {
          "indexed": true,
          "internalType": "address",
          "name": "newOwner",
          "type": "address"
        }
      ],
      "name": "OwnershipTransferred",
      "type": "event"
    },
    {
      "anonymous": false,
      "inputs": [
        {
          "indexed": false,
          "internalType": "address",
          "name": "account",
          "type": "address"
        }
      ],
      "name": "Paused",
      "type": "event"
    },
    {
      "anonymous": false,
      "inputs": [
        {
          "indexed": true,
          "internalType": "uint256",
          "name": "tubeID",
          "type": "uint256"
        },
        {
          "indexed": true,
          "internalType": "address",
          "name": "token",
          "type": "address"
        },
        {
          "indexed": true,
          "internalType": "uint256",
          "name": "txIdx",
          "type": "uint256"
        },
        {
          "indexed": false,
          "internalType": "address",
          "name": "sender",
          "type": "address"
        },
        {
          "indexed": false,
          "internalType": "address",
          "name": "recipient",
          "type": "address"
        },
        {
          "indexed": false,
          "internalType": "uint256",
          "name": "amount",
          "type": "uint256"
        },
        {
          "indexed": false,
          "internalType": "bytes",
          "name": "data",
          "type": "bytes"
        },
        {
          "indexed": false,
          "internalType": "uint256",
          "name": "fee",
          "type": "uint256"
        }
      ],
      "name": "Receipt",
      "type": "event"
    },
    {
      "anonymous": false,
      "inputs": [
        {
          "indexed": true,
          "internalType": "bytes32",
          "name": "key",
          "type": "bytes32"
        },
        {
          "indexed": false,
          "internalType": "address[]",
          "name": "validators",
          "type": "address[]"
        },
        {
          "indexed": false,
          "internalType": "bool",
          "name": "success",
          "type": "bool"
        }
      ],
      "name": "Settled",
      "type": "event"
    },
    {
      "anonymous": false,
      "inputs": [
        {
          "indexed": false,
          "internalType": "address",
          "name": "account",
          "type": "address"
        }
      ],
      "name": "Unpaused",
      "type": "event"
    },
    {
      "inputs": [],
      "name": "acceptOwnerships",
      "outputs": [],
      "stateMutability": "nonpayable",
      "type": "function"
    },
    {
      "inputs": [
        {
          "internalType": "bytes32[]",
          "name": "keys",
          "type": "bytes32[]"
        }
      ],
      "name": "concatKeys",
      "outputs": [
        {
          "internalType": "bytes32",
          "name": "",
          "type": "bytes32"
        }
      ],
      "stateMutability": "pure",
      "type": "function"
    },
    {
      "inputs": [
        {
          "internalType": "uint256",
          "name": "_tubeID",
          "type": "uint256"
        },
        {
          "internalType": "address",
          "name": "_token",
          "type": "address"
        }
      ],
      "name": "count",
      "outputs": [
        {
          "internalType": "uint256",
          "name": "",
          "type": "uint256"
        }
      ],
      "stateMutability": "view",
      "type": "function"
    },
    {
      "inputs": [
        {
          "internalType": "uint256",
          "name": "",
          "type": "uint256"
        },
        {
          "internalType": "address",
          "name": "",
          "type": "address"
        }
      ],
      "name": "counts",
      "outputs": [
        {
          "internalType": "uint256",
          "name": "",
          "type": "uint256"
        }
      ],
      "stateMutability": "view",
      "type": "function"
    },
    {
      "inputs": [
        {
          "internalType": "uint256",
          "name": "_tubeID",
          "type": "uint256"
        },
        {
          "internalType": "address",
          "name": "_token",
          "type": "address"
        },
        {
          "internalType": "uint256",
          "name": "_amount",
          "type": "uint256"
        },
        {
          "internalType": "bytes",
          "name": "_data",
          "type": "bytes"
        }
      ],
      "name": "deposit",
      "outputs": [],
      "stateMutability": "nonpayable",
      "type": "function"
    },
    {
      "inputs": [
        {
          "internalType": "uint256",
          "name": "_tubeID",
          "type": "uint256"
        },
        {
          "internalType": "address",
          "name": "_token",
          "type": "address"
        },
        {
          "internalType": "uint256",
          "name": "_tokenID",
          "type": "uint256"
        },
        {
          "internalType": "bytes",
          "name": "_data",
          "type": "bytes"
        }
      ],
      "name": "depositNFT",
      "outputs": [],
      "stateMutability": "nonpayable",
      "type": "function"
    },
    {
      "inputs": [
        {
          "internalType": "uint256",
          "name": "_tubeID",
          "type": "uint256"
        },
        {
          "internalType": "address",
          "name": "_token",
          "type": "address"
        },
        {
          "internalType": "uint256",
          "name": "_tokenID",
          "type": "uint256"
        },
        {
          "internalType": "address",
          "name": "_to",
          "type": "address"
        },
        {
          "internalType": "bytes",
          "name": "_data",
          "type": "bytes"
        }
      ],
      "name": "depositNFTTo",
      "outputs": [],
      "stateMutability": "nonpayable",
      "type": "function"
    },
    {
      "inputs": [
        {
          "internalType": "uint256",
          "name": "_tubeID",
          "type": "uint256"
        },
        {
          "internalType": "address",
          "name": "_token",
          "type": "address"
        },
        {
          "internalType": "address",
          "name": "_to",
          "type": "address"
        },
        {
          "internalType": "uint256",
          "name": "_amount",
          "type": "uint256"
        },
        {
          "internalType": "bytes",
          "name": "_data",
          "type": "bytes"
        }
      ],
      "name": "depositTo",
      "outputs": [],
      "stateMutability": "nonpayable",
      "type": "function"
    },
    {
      "inputs": [
        {
          "internalType": "uint256",
          "name": "",
          "type": "uint256"
        }
      ],
      "name": "fees",
      "outputs": [
        {
          "internalType": "uint256",
          "name": "",
          "type": "uint256"
        }
      ],
      "stateMutability": "view",
      "type": "function"
    },
    {
      "inputs": [
        {
          "internalType": "uint256",
          "name": "_srcTubeID",
          "type": "uint256"
        },
        {
          "internalType": "uint256",
          "name": "_txIdx",
          "type": "uint256"
        },
        {
          "internalType": "address",
          "name": "_token",
          "type": "address"
        },
        {
          "internalType": "address",
          "name": "_recipient",
          "type": "address"
        },
        {
          "internalType": "uint256",
          "name": "_amount",
          "type": "uint256"
        },
        {
          "internalType": "bytes",
          "name": "_data",
          "type": "bytes"
        }
      ],
      "name": "genKey",
      "outputs": [
        {
          "internalType": "bytes32",
          "name": "",
          "type": "bytes32"
        }
      ],
      "stateMutability": "view",
      "type": "function"
    },
    {
      "inputs": [
        {
          "internalType": "uint256",
          "name": "_srcTubeID",
          "type": "uint256"
        },
        {
          "internalType": "uint256",
          "name": "_txIdx",
          "type": "uint256"
        },
        {
          "internalType": "address",
          "name": "_token",
          "type": "address"
        },
        {
          "internalType": "uint256",
          "name": "_tokenID",
          "type": "uint256"
        },
        {
          "internalType": "address",
          "name": "_recipient",
          "type": "address"
        },
        {
          "internalType": "bytes",
          "name": "_data",
          "type": "bytes"
        }
      ],
      "name": "genKeyForNFT",
      "outputs": [
        {
          "internalType": "bytes32",
          "name": "",
          "type": "bytes32"
        }
      ],
      "stateMutability": "view",
      "type": "function"
    },
    {
      "inputs": [
        {
          "internalType": "bytes32",
          "name": "key",
          "type": "bytes32"
        }
      ],
      "name": "isSettled",
      "outputs": [
        {
          "internalType": "bool",
          "name": "",
          "type": "bool"
        }
      ],
      "stateMutability": "view",
      "type": "function"
    },
    {
      "inputs": [],
      "name": "ledger",
      "outputs": [
        {
          "internalType": "contract ILedger",
          "name": "",
          "type": "address"
        }
      ],
      "stateMutability": "view",
      "type": "function"
    },
    {
      "inputs": [],
      "name": "lord",
      "outputs": [
        {
          "internalType": "contract ILord",
          "name": "",
          "type": "address"
        }
      ],
      "stateMutability": "view",
      "type": "function"
    },
    {
      "inputs": [],
      "name": "owner",
      "outputs": [
        {
          "internalType": "address",
          "name": "",
          "type": "address"
        }
      ],
      "stateMutability": "view",
      "type": "function"
    },
    {
      "inputs": [],
      "name": "pause",
      "outputs": [],
      "stateMutability": "nonpayable",
      "type": "function"
    },
    {
      "inputs": [],
      "name": "paused",
      "outputs": [
        {
          "internalType": "bool",
          "name": "",
          "type": "bool"
        }
      ],
      "stateMutability": "view",
      "type": "function"
    },
    {
      "inputs": [],
      "name": "renounceOwnership",
      "outputs": [],
      "stateMutability": "nonpayable",
      "type": "function"
    },
    {
      "inputs": [],
      "name": "safe",
      "outputs": [
        {
          "internalType": "address",
          "name": "",
          "type": "address"
        }
      ],
      "stateMutability": "view",
      "type": "function"
    },
    {
      "inputs": [
        {
          "internalType": "uint256",
          "name": "_tubeID",
          "type": "uint256"
        },
        {
          "internalType": "uint256",
          "name": "_fee",
          "type": "uint256"
        }
      ],
      "name": "setFee",
      "outputs": [],
      "stateMutability": "nonpayable",
      "type": "function"
    },
    {
      "inputs": [
        {
          "internalType": "address",
          "name": "newOwner",
          "type": "address"
        }
      ],
      "name": "transferOwnership",
      "outputs": [],
      "stateMutability": "nonpayable",
      "type": "function"
    },
    {
      "inputs": [],
      "name": "tubeID",
      "outputs": [
        {
          "internalType": "uint256",
          "name": "",
          "type": "uint256"
        }
      ],
      "stateMutability": "view",
      "type": "function"
    },
    {
      "inputs": [],
      "name": "tubeToken",
      "outputs": [
        {
          "internalType": "contract IERC20",
          "name": "",
          "type": "address"
        }
      ],
      "stateMutability": "view",
      "type": "function"
    },
    {
      "inputs": [],
      "name": "unpause",
      "outputs": [],
      "stateMutability": "nonpayable",
      "type": "function"
    },
    {
      "inputs": [
        {
          "internalType": "address",
          "name": "_newTube",
          "type": "address"
        }
      ],
      "name": "upgrade",
      "outputs": [],
      "stateMutability": "nonpayable",
      "type": "function"
    },
    {
      "inputs": [],
      "name": "verifier",
      "outputs": [
        {
          "internalType": "contract IVerifier",
          "name": "",
          "type": "address"
        }
      ],
      "stateMutability": "view",
      "type": "function"
    },
    {
      "inputs": [
        {
          "internalType": "uint256",
          "name": "_srcTubeID",
          "type": "uint256"
        },
        {
          "internalType": "uint256",
          "name": "_txIdx",
          "type": "uint256"
        },
        {
          "internalType": "address",
          "name": "_token",
          "type": "address"
        },
        {
          "internalType": "address",
          "name": "_recipient",
          "type": "address"
        },
        {
          "internalType": "uint256",
          "name": "_amount",
          "type": "uint256"
        },
        {
          "internalType": "bytes",
          "name": "_data",
          "type": "bytes"
        },
        {
          "internalType": "bytes",
          "name": "_signatures",
          "type": "bytes"
        }
      ],
      "name": "withdraw",
      "outputs": [],
      "stateMutability": "nonpayable",
      "type": "function"
    },
    {
      "inputs": [
        {
          "internalType": "address payable",
          "name": "_to",
          "type": "address"
        }
      ],
      "name": "withdrawCoin",
      "outputs": [],
      "stateMutability": "nonpayable",
      "type": "function"
    },
    {
      "inputs": [
        {
          "internalType": "uint256",
          "name": "_srcTubeID",
          "type": "uint256"
        },
        {
          "internalType": "uint256",
          "name": "_txIdx",
          "type": "uint256"
        },
        {
          "internalType": "address",
          "name": "_token",
          "type": "address"
        },
        {
          "internalType": "uint256",
          "name": "_tokenID",
          "type": "uint256"
        },
        {
          "internalType": "address",
          "name": "_recipient",
          "type": "address"
        },
        {
          "internalType": "bytes",
          "name": "_data",
          "type": "bytes"
        },
        {
          "internalType": "bytes",
          "name": "_signatures",
          "type": "bytes"
        }
      ],
      "name": "withdrawNFT",
      "outputs": [],
      "stateMutability": "nonpayable",
      "type": "function"
    },
    {
      "inputs": [
        {
          "internalType": "address",
          "name": "_to",
          "type": "address"
        },
        {
          "internalType": "contract IERC20",
          "name": "_token",
          "type": "address"
        }
      ],
      "name": "withdrawToken",
      "outputs": [],
      "stateMutability": "nonpayable",
      "type": "function"
    }
  ],
  "bytecode": "0x60806040523480156200001157600080fd5b5060405162002a7e38038062002a7e833981016040819052620000349162000108565b6200003f33620000b8565b6000805460ff60a01b1916905560018055600295909555600380546001600160a01b03199081166001600160a01b039687161790915560048054821694861694909417909355600580548416928516929092179091556006805483169184169190911790556007805490911691909216179055620001a9565b600080546001600160a01b038381166001600160a01b0319831681178455604051919092169283917f8be0079c531659141344cd1fd0a4f28419497f9722a3daafe3b4186f6b6457e09190a35050565b60008060008060008060c087890312156200012257600080fd5b865195506020870151620001368162000190565b6040880151909550620001498162000190565b60608801519094506200015c8162000190565b60808801519093506200016f8162000190565b60a0880151909250620001828162000190565b809150509295509295509295565b6001600160a01b0381168114620001a657600080fd5b50565b6128c580620001b96000396000f3fe608060405234801561001057600080fd5b50600436106101da5760003560e01c8063715018a611610104578063a7515652116100a2578063bd07f3c911610071578063bd07f3c914610415578063c836fef014610428578063ec7b63f01461043b578063f2fde38b1461044e57600080fd5b8063a7515652146103a6578063ac39cc03146103b9578063b83adc8b146103cc578063b999a4381461040257600080fd5b806387622b93116100de57806387622b931461034e5780638da5cb5b1461035757806390a5d4cc14610368578063a2139f6b1461037b57600080fd5b8063715018a61461032b57806378353d9a146103335780638456cb591461034657600080fd5b806343dc42481161017c57806356397c351161014b57806356397c35146102d457806358f98b4f146102e75780635a73928f146102fa5780635c975abb1461030d57600080fd5b806343dc4248146102785780634acc79ed1461028057806352f7c988146102ae578063532670b0146102c157600080fd5b80632b7ac3f3116101b85780632b7ac3f31461023757806337a7b6e31461024a5780633aeac4e11461025d5780633f4ba83a1461027057600080fd5b80630900f010146101df5780631423feba146101f4578063186f035414610207575b600080fd5b6101f26101ed366004611fc1565b610461565b005b6101f26102023660046122ca565b6106da565b60075461021a906001600160a01b031681565b6040516001600160a01b0390911681526020015b60405180910390f35b60055461021a906001600160a01b031681565b6101f261025836600461226d565b6106ed565b6101f261026b366004611ffb565b61090a565b6101f26109ed565b6101f2610a3f565b6102a061028e3660046121a0565b60096020526000908152604090205481565b60405190815260200161022e565b6101f26102bc36600461232d565b610cac565b6101f26102cf3660046124d8565b610d56565b60035461021a906001600160a01b031681565b6101f26102f53660046122ca565b61109d565b6101f2610308366004611fc1565b6110aa565b600054600160a01b900460ff165b604051901515815260200161022e565b6101f261112b565b60045461021a906001600160a01b031681565b6101f261117d565b6102a060025481565b6000546001600160a01b031661021a565b6101f26103763660046123cd565b6111cd565b6102a06103893660046121d2565b600860209081526000928352604080842090915290825290205481565b60065461021a906001600160a01b031681565b6101f26103c73660046121f7565b611624565b6102a06103da3660046121d2565b60009182526008602090815260408084206001600160a01b0393909316845291905290205490565b6102a0610410366004612473565b611882565b61031b6104233660046121a0565b6118c5565b6102a0610436366004612034565b61194a565b6102a061044936600461234f565b61197a565b6101f261045c366004611fc1565b61199b565b600054600160a01b900460ff166104b65760405162461bcd60e51b815260206004820152601460248201527314185d5cd8589b194e881b9bdd081c185d5cd95960621b60448201526064015b60405180910390fd5b6000546001600160a01b031633146104fe5760405162461bcd60e51b8152602060048201819052602482015260008051602061289983398151915260448201526064016104ad565b60035460408051638da5cb5b60e01b8152905130926001600160a01b031691638da5cb5b916004808301926020929190829003018186803b15801561054257600080fd5b505afa158015610556573d6000803e3d6000fd5b505050506040513d601f19601f8201168201806040525081019061057a9190611fde565b6001600160a01b031614156105e95760035460405163f2fde38b60e01b81526001600160a01b0383811660048301529091169063f2fde38b90602401600060405180830381600087803b1580156105d057600080fd5b505af11580156105e4573d6000803e3d6000fd5b505050505b6004805460408051638da5cb5b60e01b8152905130936001600160a01b0390931692638da5cb5b92808201926020929091829003018186803b15801561062e57600080fd5b505afa158015610642573d6000803e3d6000fd5b505050506040513d601f19601f820116820180604052508101906106669190611fde565b6001600160a01b031614156106d7576004805460405163f2fde38b60e01b81526001600160a01b038481169382019390935291169063f2fde38b90602401600060405180830381600087803b1580156106be57600080fd5b505af11580156106d2573d6000803e3d6000fd5b505050505b50565b6106e78484338585611624565b50505050565b600260015414156107405760405162461bcd60e51b815260206004820152601f60248201527f5265656e7472616e637947756172643a207265656e7472616e742063616c6c0060448201526064016104ad565b6002600155600054600160a01b900460ff16156107925760405162461bcd60e51b815260206004820152601060248201526f14185d5cd8589b194e881c185d5cd95960821b60448201526064016104ad565b6001600160a01b0382166107dc5760405162461bcd60e51b81526020600482015260116024820152701a5b9d985b1a59081c9958da5c1a595b9d607a1b60448201526064016104ad565b600085815260096020526040902054801561081057600754600654610810916001600160a01b039182169133911684611a68565b600480546040516308ff9e0360e31b81526001600160a01b0388811693820193909352602481018790529116906347fcf01890604401600060405180830381600087803b15801561086057600080fd5b505af1158015610874573d6000803e3d6000fd5b50505060008781526008602090815260408083206001600160a01b038a168452909152812080549192509082906108aa90612822565b919050819055905084866001600160a01b0316887f413fc03d305d8cf6eebc070b9c302edd9c76914a8b734120af98efaed5e4f71e84338989896040516108f595949392919061276f565b60405180910390a45050600180555050505050565b6000546001600160a01b031633146109525760405162461bcd60e51b8152602060048201819052602482015260008051602061289983398151915260448201526064016104ad565b6040516370a0823160e01b81523060048201526000906001600160a01b038316906370a082319060240160206040518083038186803b15801561099457600080fd5b505afa1580156109a8573d6000803e3d6000fd5b505050506040513d601f19601f820116820180604052508101906109cc91906121b9565b905080156109e8576109e86001600160a01b0383168483611b00565b505050565b6000546001600160a01b03163314610a355760405162461bcd60e51b8152602060048201819052602482015260008051602061289983398151915260448201526064016104ad565b610a3d611b30565b565b600054600160a01b900460ff16610a8f5760405162461bcd60e51b815260206004820152601460248201527314185d5cd8589b194e881b9bdd081c185d5cd95960621b60448201526064016104ad565b6000546001600160a01b03163314610ad75760405162461bcd60e51b8152602060048201819052602482015260008051602061289983398151915260448201526064016104ad565b60035460408051638da5cb5b60e01b8152905130926001600160a01b031691638da5cb5b916004808301926020929190829003018186803b158015610b1b57600080fd5b505afa158015610b2f573d6000803e3d6000fd5b505050506040513d601f19601f82011682018060405250810190610b539190611fde565b6001600160a01b031614610bca57600360009054906101000a90046001600160a01b03166001600160a01b03166379ba50976040518163ffffffff1660e01b8152600401600060405180830381600087803b158015610bb157600080fd5b505af1158015610bc5573d6000803e3d6000fd5b505050505b6004805460408051638da5cb5b60e01b8152905130936001600160a01b0390931692638da5cb5b92808201926020929091829003018186803b158015610c0f57600080fd5b505afa158015610c23573d6000803e3d6000fd5b505050506040513d601f19601f82011682018060405250810190610c479190611fde565b6001600160a01b031614610a3d5760048054604080516379ba509760e01b815290516001600160a01b03909216926379ba509792828201926000929082900301818387803b158015610c9857600080fd5b505af11580156106e7573d6000803e3d6000fd5b600054600160a01b900460ff16610cfc5760405162461bcd60e51b815260206004820152601460248201527314185d5cd8589b194e881b9bdd081c185d5cd95960621b60448201526064016104ad565b6000546001600160a01b03163314610d445760405162461bcd60e51b8152602060048201819052602482015260008051602061289983398151915260448201526064016104ad565b60009182526009602052604090912055565b60026001541415610da95760405162461bcd60e51b815260206004820152601f60248201527f5265656e7472616e637947756172643a207265656e7472616e742063616c6c0060448201526064016104ad565b6002600155600054600160a01b900460ff1615610dfb5760405162461bcd60e51b815260206004820152601060248201526f14185d5cd8589b194e881c185d5cd95960821b60448201526064016104ad565b6001600160a01b038316610e455760405162461bcd60e51b81526020600482015260116024820152701a5b9d985b1a59081c9958da5c1a595b9d607a1b60448201526064016104ad565b60418151610e53919061284b565b15610ea05760405162461bcd60e51b815260206004820152601860248201527f696e76616c6964207369676e6174757265206c656e677468000000000000000060448201526064016104ad565b6000610eb0888888888888611882565b60035460405163b5c645bd60e01b8152600481018390529192506001600160a01b03169063b5c645bd90602401600060405180830381600087803b158015610ef757600080fd5b505af1158015610f0b573d6000803e3d6000fd5b50506005546040516312c572c160e11b8152600093508392506001600160a01b039091169063258ae58290610f469086908890600401612743565b60006040518083038186803b158015610f5e57600080fd5b505afa158015610f72573d6000803e3d6000fd5b505050506040513d6000823e601f3d908101601f19168201604052610f9a91908101906120ec565b9150915081610feb5760405162461bcd60e51b815260206004820152601760248201527f696e73756666696369656e742076616c696461746f727300000000000000000060448201526064016104ad565b60048054604051634092de4560e01b81526001600160a01b0390911691634092de4591611020918c918c918c918c91016126b3565b600060405180830381600087803b15801561103a57600080fd5b505af115801561104e573d6000803e3d6000fd5b50505050827f40a6fec4f472262753395cf1971ac3e934695cc49c60cc1a595190d08077b48a8260016040516110859291906126ef565b60405180910390a25050600180555050505050505050565b6106e784848433856106ed565b6000546001600160a01b031633146110f25760405162461bcd60e51b8152602060048201819052602482015260008051602061289983398151915260448201526064016104ad565b6040516001600160a01b038216904780156108fc02916000818181858888f19350505050158015611127573d6000803e3d6000fd5b5050565b6000546001600160a01b031633146111735760405162461bcd60e51b8152602060048201819052602482015260008051602061289983398151915260448201526064016104ad565b610a3d6000611bcd565b6000546001600160a01b031633146111c55760405162461bcd60e51b8152602060048201819052602482015260008051602061289983398151915260448201526064016104ad565b610a3d611c35565b600260015414156112205760405162461bcd60e51b815260206004820152601f60248201527f5265656e7472616e637947756172643a207265656e7472616e742063616c6c0060448201526064016104ad565b6002600155600054600160a01b900460ff16156112725760405162461bcd60e51b815260206004820152601060248201526f14185d5cd8589b194e881c185d5cd95960821b60448201526064016104ad565b826112bf5760405162461bcd60e51b815260206004820152600b60248201527f616d6f756e74206973203000000000000000000000000000000000000000000060448201526064016104ad565b6001600160a01b0384166113095760405162461bcd60e51b81526020600482015260116024820152701a5b9d985b1a59081c9958da5c1a595b9d607a1b60448201526064016104ad565b60418151611317919061284b565b156113645760405162461bcd60e51b815260206004820152601860248201527f696e76616c6964207369676e6174757265206c656e677468000000000000000060448201526064016104ad565b600061137488888888888861197a565b60035460405163b5c645bd60e01b8152600481018390529192506001600160a01b03169063b5c645bd90602401600060405180830381600087803b1580156113bb57600080fd5b505af11580156113cf573d6000803e3d6000fd5b50506005546040516312c572c160e11b8152600093508392506001600160a01b039091169063258ae5829061140a9086908890600401612743565b60006040518083038186803b15801561142257600080fd5b505afa158015611436573d6000803e3d6000fd5b505050506040513d6000823e601f3d908101601f1916820160405261145e91908101906120ec565b91509150816114af5760405162461bcd60e51b815260206004820152601760248201527f696e73756666696369656e742076616c696461746f727300000000000000000060448201526064016104ad565b60048054604051636361ddf360e11b81526001600160a01b038b81169382019390935289831660248201526044810189905291169063c6c3bbe690606401600060405180830381600087803b15801561150757600080fd5b505af115801561151b573d6000803e3d6000fd5b5050865160019250158015915061154057506004546001600160a01b03898116911614155b801561155a57506003546001600160a01b03898116911614155b801561157457506006546001600160a01b03898116911614155b156115d957876001600160a01b03168660405161159191906125a2565b6000604051808303816000865af19150503d80600081146115ce576040519150601f19603f3d011682016040523d82523d6000602084013e6115d3565b606091505b50909150505b837f40a6fec4f472262753395cf1971ac3e934695cc49c60cc1a595190d08077b48a838360405161160b9291906126ef565b60405180910390a2505060018055505050505050505050565b600260015414156116775760405162461bcd60e51b815260206004820152601f60248201527f5265656e7472616e637947756172643a207265656e7472616e742063616c6c0060448201526064016104ad565b6002600155600054600160a01b900460ff16156116c95760405162461bcd60e51b815260206004820152601060248201526f14185d5cd8589b194e881c185d5cd95960821b60448201526064016104ad565b6001600160a01b0383166117135760405162461bcd60e51b81526020600482015260116024820152701a5b9d985b1a59081c9958da5c1a595b9d607a1b60448201526064016104ad565b600082116117635760405162461bcd60e51b815260206004820152600e60248201527f696e76616c696420616d6f756e7400000000000000000000000000000000000060448201526064016104ad565b600085815260096020526040902054801561179757600754600654611797916001600160a01b039182169133911684611a68565b60048054604051633dae446f60e21b81526001600160a01b03888116938201939093523360248201526044810186905291169063f6b911bc90606401600060405180830381600087803b1580156117ed57600080fd5b505af1158015611801573d6000803e3d6000fd5b50505060008781526008602090815260408083206001600160a01b038a1684529091528120805491925090829061183790612822565b919050819055905080866001600160a01b0316887f572582f2ead7415738f694419e3827ab127988fa3c4cdb2034c2d98af7c4b01f33898989896040516108f595949392919061266f565b60008686600254878787876040516020016118a39796959493929190612620565b6040516020818303038152906040528051906020012090509695505050505050565b60035460405163023aa9ab60e61b8152600481018390526000916001600160a01b031690638eaa6ac09060240160206040518083038186803b15801561190a57600080fd5b505afa15801561191e573d6000803e3d6000fd5b505050506040513d601f19601f8201168201806040525081019061194291906121b9565b151592915050565b60008160405160200161195d919061256c565b604051602081830303815290604052805190602001209050919050565b60008686600254878787876040516020016118a397969594939291906125be565b6000546001600160a01b031633146119e35760405162461bcd60e51b8152602060048201819052602482015260008051602061289983398151915260448201526064016104ad565b6001600160a01b038116611a5f5760405162461bcd60e51b815260206004820152602660248201527f4f776e61626c653a206e6577206f776e657220697320746865207a65726f206160448201527f646472657373000000000000000000000000000000000000000000000000000060648201526084016104ad565b6106d781611bcd565b6040516001600160a01b03808516602483015283166044820152606481018290526106e79085906323b872dd60e01b906084015b60408051601f198184030181529190526020810180517bffffffffffffffffffffffffffffffffffffffffffffffffffffffff167fffffffff0000000000000000000000000000000000000000000000000000000090931692909217909152611cbd565b6040516001600160a01b0383166024820152604481018290526109e890849063a9059cbb60e01b90606401611a9c565b600054600160a01b900460ff16611b805760405162461bcd60e51b815260206004820152601460248201527314185d5cd8589b194e881b9bdd081c185d5cd95960621b60448201526064016104ad565b6000805460ff60a01b191690557f5db9ee0a495bf2e6ff9c91a7834c1ba4fdd244a5e8aa4e537bd38aeae4b073aa335b6040516001600160a01b03909116815260200160405180910390a1565b600080546001600160a01b038381167fffffffffffffffffffffffff0000000000000000000000000000000000000000831681178455604051919092169283917f8be0079c531659141344cd1fd0a4f28419497f9722a3daafe3b4186f6b6457e09190a35050565b600054600160a01b900460ff1615611c825760405162461bcd60e51b815260206004820152601060248201526f14185d5cd8589b194e881c185d5cd95960821b60448201526064016104ad565b6000805460ff60a01b1916600160a01b1790557f62e78cea01bee320cd4e420270b5ea74000d11b0c9f74754ebdbfc544b05a258611bb03390565b6000611d12826040518060400160405280602081526020017f5361666545524332303a206c6f772d6c6576656c2063616c6c206661696c6564815250856001600160a01b0316611da29092919063ffffffff16565b8051909150156109e85780806020019051810190611d3091906120d1565b6109e85760405162461bcd60e51b815260206004820152602a60248201527f5361666545524332303a204552433230206f7065726174696f6e20646964206e60448201527f6f7420737563636565640000000000000000000000000000000000000000000060648201526084016104ad565b6060611db18484600085611dbb565b90505b9392505050565b606082471015611e335760405162461bcd60e51b815260206004820152602660248201527f416464726573733a20696e73756666696369656e742062616c616e636520666f60448201527f722063616c6c000000000000000000000000000000000000000000000000000060648201526084016104ad565b6001600160a01b0385163b611e8a5760405162461bcd60e51b815260206004820152601d60248201527f416464726573733a2063616c6c20746f206e6f6e2d636f6e747261637400000060448201526064016104ad565b600080866001600160a01b03168587604051611ea691906125a2565b60006040518083038185875af1925050503d8060008114611ee3576040519150601f19603f3d011682016040523d82523d6000602084013e611ee8565b606091505b5091509150611ef8828286611f03565b979650505050505050565b60608315611f12575081611db4565b825115611f225782518084602001fd5b8160405162461bcd60e51b81526004016104ad919061275c565b80518015158114611f4c57600080fd5b919050565b600082601f830112611f6257600080fd5b813567ffffffffffffffff811115611f7c57611f7c61286d565b611f8f601f8201601f19166020016127a1565b818152846020838601011115611fa457600080fd5b816020850160208301376000918101602001919091529392505050565b600060208284031215611fd357600080fd5b8135611db481612883565b600060208284031215611ff057600080fd5b8151611db481612883565b6000806040838503121561200e57600080fd5b823561201981612883565b9150602083013561202981612883565b809150509250929050565b6000602080838503121561204757600080fd5b823567ffffffffffffffff81111561205e57600080fd5b8301601f8101851361206f57600080fd5b803561208261207d826127d2565b6127a1565b80828252848201915084840188868560051b87010111156120a257600080fd5b600094505b838510156120c55780358352600194909401939185019185016120a7565b50979650505050505050565b6000602082840312156120e357600080fd5b611db482611f3c565b600080604083850312156120ff57600080fd5b61210883611f3c565b915060208084015167ffffffffffffffff81111561212557600080fd5b8401601f8101861361213657600080fd5b805161214461207d826127d2565b80828252848201915084840189868560051b870101111561216457600080fd5b600094505b8385101561219057805161217c81612883565b835260019490940193918501918501612169565b5080955050505050509250929050565b6000602082840312156121b257600080fd5b5035919050565b6000602082840312156121cb57600080fd5b5051919050565b600080604083850312156121e557600080fd5b82359150602083013561202981612883565b600080600080600060a0868803121561220f57600080fd5b85359450602086013561222181612883565b9350604086013561223181612883565b925060608601359150608086013567ffffffffffffffff81111561225457600080fd5b61226088828901611f51565b9150509295509295909350565b600080600080600060a0868803121561228557600080fd5b85359450602086013561229781612883565b93506040860135925060608601356122ae81612883565b9150608086013567ffffffffffffffff81111561225457600080fd5b600080600080608085870312156122e057600080fd5b8435935060208501356122f281612883565b925060408501359150606085013567ffffffffffffffff81111561231557600080fd5b61232187828801611f51565b91505092959194509250565b6000806040838503121561234057600080fd5b50508035926020909101359150565b60008060008060008060c0878903121561236857600080fd5b8635955060208701359450604087013561238181612883565b9350606087013561239181612883565b92506080870135915060a087013567ffffffffffffffff8111156123b457600080fd5b6123c089828a01611f51565b9150509295509295509295565b600080600080600080600060e0888a0312156123e857600080fd5b8735965060208801359550604088013561240181612883565b9450606088013561241181612883565b93506080880135925060a088013567ffffffffffffffff8082111561243557600080fd5b6124418b838c01611f51565b935060c08a013591508082111561245757600080fd5b506124648a828b01611f51565b91505092959891949750929550565b60008060008060008060c0878903121561248c57600080fd5b863595506020870135945060408701356124a581612883565b93506060870135925060808701356124bc81612883565b915060a087013567ffffffffffffffff8111156123b457600080fd5b600080600080600080600060e0888a0312156124f357600080fd5b8735965060208801359550604088013561250c81612883565b945060608801359350608088013561252381612883565b925060a088013567ffffffffffffffff8082111561243557600080fd5b600081518084526125588160208601602086016127f6565b601f01601f19169290920160200192915050565b815160009082906020808601845b838110156125965781518552938201939082019060010161257a565b50929695505050505050565b600082516125b48184602087016127f6565b9190910192915050565b87815286602082015285604082015260006bffffffffffffffffffffffff19808760601b166060840152808660601b16607484015250836088830152825161260d8160a88501602087016127f6565b9190910160a80198975050505050505050565b87815286602082015285604082015260006bffffffffffffffffffffffff19808760601b166060840152856074840152808560601b16609484015250825161260d8160a88501602087016127f6565b60006001600160a01b03808816835280871660208401525084604083015260a060608301526126a160a0830185612540565b90508260808301529695505050505050565b60006001600160a01b038087168352856020840152808516604084015250608060608301526126e56080830184612540565b9695505050505050565b604080825283519082018190526000906020906060840190828701845b828110156127315781516001600160a01b03168452928401929084019060010161270c565b50505093151592019190915250919050565b828152604060208201526000611db16040830184612540565b602081526000611db46020830184612540565b85815260006001600160a01b03808716602084015280861660408401525060a060608301526126a160a0830185612540565b604051601f8201601f1916810167ffffffffffffffff811182821017156127ca576127ca61286d565b604052919050565b600067ffffffffffffffff8211156127ec576127ec61286d565b5060051b60200190565b60005b838110156128115781810151838201526020016127f9565b838111156106e75750506000910152565b600060001982141561284457634e487b7160e01b600052601160045260246000fd5b5060010190565b60008261286857634e487b7160e01b600052601260045260246000fd5b500690565b634e487b7160e01b600052604160045260246000fd5b6001600160a01b03811681146106d757600080fdfe4f776e61626c653a2063616c6c6572206973206e6f7420746865206f776e6572a164736f6c6343000807000a",
  "linkReferences": {},
  "deployedLinkReferences": {}
}