{
  "_format": "hh-sol-artifact-1",
  "contractName": "SwapUtils",
  "sourceName": "contracts/SwapUtils.sol",
  "abi": [
    {
      "anonymous": false,
      "inputs": [
        {
          "indexed": true,
          "internalType": "address",
          "name": "provider",
          "type": "address"
        },
        {
          "indexed": false,
          "internalType": "uint256[]",
          "name": "tokenAmounts",
          "type": "uint256[]"
        },
        {
          "indexed": false,
          "internalType": "uint256[]",
          "name": "fees",
          "type": "uint256[]"
        },
        {
          "indexed": false,
          "internalType": "uint256",
          "name": "invariant",
          "type": "uint256"
        },
        {
          "indexed": false,
          "internalType": "uint256",
          "name": "lpTokenSupply",
          "type": "uint256"
        }
      ],
      "name": "AddLiquidity",
      "type": "event"
    },
    {
      "anonymous": false,
      "inputs": [
        {
          "indexed": false,
          "internalType": "uint256",
          "name": "newAdminFee",
          "type": "uint256"
        }
      ],
      "name": "NewAdminFee",
      "type": "event"
    },
    {
      "anonymous": false,
      "inputs": [
        {
          "indexed": false,
          "internalType": "uint256",
          "name": "newDepositFee",
          "type": "uint256"
        }
      ],
      "name": "NewDepositFee",
      "type": "event"
    },
    {
      "anonymous": false,
      "inputs": [
        {
          "indexed": false,
          "internalType": "uint256",
          "name": "newSwapFee",
          "type": "uint256"
        }
      ],
      "name": "NewSwapFee",
      "type": "event"
    },
    {
      "anonymous": false,
      "inputs": [
        {
          "indexed": false,
          "internalType": "uint256",
          "name": "newWithdrawFee",
          "type": "uint256"
        }
      ],
      "name": "NewWithdrawFee",
      "type": "event"
    },
    {
      "anonymous": false,
      "inputs": [
        {
          "indexed": false,
          "internalType": "uint256",
          "name": "oldA",
          "type": "uint256"
        },
        {
          "indexed": false,
          "internalType": "uint256",
          "name": "newA",
          "type": "uint256"
        },
        {
          "indexed": false,
          "internalType": "uint256",
          "name": "initialTime",
          "type": "uint256"
        },
        {
          "indexed": false,
          "internalType": "uint256",
          "name": "futureTime",
          "type": "uint256"
        }
      ],
      "name": "RampA",
      "type": "event"
    },
    {
      "anonymous": false,
      "inputs": [
        {
          "indexed": true,
          "internalType": "address",
          "name": "provider",
          "type": "address"
        },
        {
          "indexed": false,
          "internalType": "uint256[]",
          "name": "tokenAmounts",
          "type": "uint256[]"
        },
        {
          "indexed": false,
          "internalType": "uint256",
          "name": "lpTokenSupply",
          "type": "uint256"
        }
      ],
      "name": "RemoveLiquidity",
      "type": "event"
    },
    {
      "anonymous": false,
      "inputs": [
        {
          "indexed": true,
          "internalType": "address",
          "name": "provider",
          "type": "address"
        },
        {
          "indexed": false,
          "internalType": "uint256[]",
          "name": "tokenAmounts",
          "type": "uint256[]"
        },
        {
          "indexed": false,
          "internalType": "uint256[]",
          "name": "fees",
          "type": "uint256[]"
        },
        {
          "indexed": false,
          "internalType": "uint256",
          "name": "invariant",
          "type": "uint256"
        },
        {
          "indexed": false,
          "internalType": "uint256",
          "name": "lpTokenSupply",
          "type": "uint256"
        }
      ],
      "name": "RemoveLiquidityImbalance",
      "type": "event"
    },
    {
      "anonymous": false,
      "inputs": [
        {
          "indexed": true,
          "internalType": "address",
          "name": "provider",
          "type": "address"
        },
        {
          "indexed": false,
          "internalType": "uint256",
          "name": "lpTokenAmount",
          "type": "uint256"
        },
        {
          "indexed": false,
          "internalType": "uint256",
          "name": "lpTokenSupply",
          "type": "uint256"
        },
        {
          "indexed": false,
          "internalType": "uint256",
          "name": "boughtId",
          "type": "uint256"
        },
        {
          "indexed": false,
          "internalType": "uint256",
          "name": "tokensBought",
          "type": "uint256"
        }
      ],
      "name": "RemoveLiquidityOne",
      "type": "event"
    },
    {
      "anonymous": false,
      "inputs": [
        {
          "indexed": false,
          "internalType": "uint256",
          "name": "currentA",
          "type": "uint256"
        },
        {
          "indexed": false,
          "internalType": "uint256",
          "name": "time",
          "type": "uint256"
        }
      ],
      "name": "StopRampA",
      "type": "event"
    },
    {
      "anonymous": false,
      "inputs": [
        {
          "indexed": true,
          "internalType": "address",
          "name": "buyer",
          "type": "address"
        },
        {
          "indexed": false,
          "internalType": "uint256",
          "name": "tokensSold",
          "type": "uint256"
        },
        {
          "indexed": false,
          "internalType": "uint256",
          "name": "tokensBought",
          "type": "uint256"
        },
        {
          "indexed": false,
          "internalType": "uint128",
          "name": "soldId",
          "type": "uint128"
        },
        {
          "indexed": false,
          "internalType": "uint128",
          "name": "boughtId",
          "type": "uint128"
        }
      ],
      "name": "TokenSwap",
      "type": "event"
    },
    {
      "inputs": [],
      "name": "A_PRECISION",
      "outputs": [
        {
          "internalType": "uint256",
          "name": "",
          "type": "uint256"
        }
      ],
      "stateMutability": "view",
      "type": "function"
    },
    {
      "inputs": [],
      "name": "MAX_A",
      "outputs": [
        {
          "internalType": "uint256",
          "name": "",
          "type": "uint256"
        }
      ],
      "stateMutability": "view",
      "type": "function"
    },
    {
      "inputs": [],
      "name": "MAX_ADMIN_FEE",
      "outputs": [
        {
          "internalType": "uint256",
          "name": "",
          "type": "uint256"
        }
      ],
      "stateMutability": "view",
      "type": "function"
    },
    {
      "inputs": [],
      "name": "MAX_DEPOSIT_FEE",
      "outputs": [
        {
          "internalType": "uint256",
          "name": "",
          "type": "uint256"
        }
      ],
      "stateMutability": "view",
      "type": "function"
    },
    {
      "inputs": [],
      "name": "MAX_SWAP_FEE",
      "outputs": [
        {
          "internalType": "uint256",
          "name": "",
          "type": "uint256"
        }
      ],
      "stateMutability": "view",
      "type": "function"
    },
    {
      "inputs": [],
      "name": "MAX_WITHDRAW_FEE",
      "outputs": [
        {
          "internalType": "uint256",
          "name": "",
          "type": "uint256"
        }
      ],
      "stateMutability": "view",
      "type": "function"
    },
    {
      "inputs": [],
      "name": "POOL_PRECISION_DECIMALS",
      "outputs": [
        {
          "internalType": "uint8",
          "name": "",
          "type": "uint8"
        }
      ],
      "stateMutability": "view",
      "type": "function"
    }
  ],
  "bytecode": "0x614aa861003a600b82828239805160001a60731461002d57634e487b7160e01b600052600060045260246000fd5b30600052607381538281f3fe73000000000000000000000000000000000000000030146080604052600436106101ef5760003560e01c8063968e559411610119578063d4b0de2f116100ac578063e9252d461161007b578063e9252d46146104a7578063f14e211e146104c7578063f3de0362146104e7578063f967a81f146104f357600080fd5b8063d4b0de2f146103d9578063e4a9a0da14610432578063e7a4db811461045a578063e8c47a541461047a57600080fd5b8063c6d87dd5116100e8578063c6d87dd5146103d9578063c9b64dcb146103f7578063d011f9181461040a578063d2a394871461041257600080fd5b8063968e5594146103a6578063a5397b22146103b9578063ab3d8544146103d9578063b0a14cfc146103e457600080fd5b80634b23603c1161019157806371906c2c1161016057806371906c2c1461033357806373fd6b3e146103465780637d048160146103735780638ab7697e1461038657600080fd5b80634b23603c146102cd57806358fdd79b146102e05780635e58579c14610300578063704672761461031357600080fd5b806340370edf116101cd57806340370edf1461024d57806341b91c261461026d5780634386c7ce1461028d578063467e186c146102ad57600080fd5b80630296ab50146101f457806324c5c751146102135780633969841514610235575b600080fd5b6101fc601281565b60405160ff90911681526020015b60405180910390f35b81801561021f57600080fd5b5061023361022e3660046143b7565b610506565b005b61023f620f424081565b60405190815260200161020a565b81801561025957600080fd5b5061023f6102683660046144d2565b61061e565b81801561027957600080fd5b5061023f6102883660046144d2565b610fb7565b81801561029957600080fd5b506102336102a83660046143b7565b61173e565b8180156102b957600080fd5b506102336102c83660046145ab565b611824565b61023f6102db36600461468b565b6118a9565b8180156102ec57600080fd5b506102336102fb366004614620565b6118c1565b61023f61030e3660046143e3565b611b20565b81801561031f57600080fd5b5061023361032e3660046145ab565b611ddd565b61023f61034136600461439e565b611e5b565b81801561035257600080fd5b506103666103613660046145cd565b611fc2565b60405161020a91906147a2565b61023f6103813660046145ab565b61235b565b81801561039257600080fd5b506102336103a13660046145ab565b6123f2565b61023f6103b43660046143b7565b61246f565b8180156103c557600080fd5b5061023f6103d43660046146c3565b61250c565b61023f6305f5e10081565b61023f6103f236600461439e565b612885565b61023f61040536600461439e565b612890565b61023f606481565b81801561041e57600080fd5b5061023361042d3660046145ab565b61289b565b61044561044036600461448a565b612918565b6040805192835260208301919091520161020a565b81801561046657600080fd5b5061023f61047536600461464c565b6129a7565b61023f6104883660046143b7565b6001600160a01b03166000908152600d91909101602052604090205490565b8180156104b357600080fd5b506102336104c2366004614455565b612ce3565b8180156104d357600080fd5b506102336104e236600461439e565b612cee565b61023f6402540be40081565b610366610501366004614455565b612d9f565b60005b600a83015481101561061957600083600a01828154811061052c5761052c614a2c565b6000918252602082200154600c860180546001600160a01b0390921693506105e8918590811061055e5761055e614a2c565b6000918252602090912001546040516370a0823160e01b81523060048201526001600160a01b038516906370a08231906024015b60206040518083038186803b1580156105aa57600080fd5b505afa1580156105be573d6000803e3d6000fd5b505050506040513d601f19601f820116820180604052508101906105e29190614715565b90612dac565b90508015610604576106046001600160a01b0383168583612db8565b50508080610611906149fb565b915050610509565b505050565b600a83015482516000911461067a5760405162461bcd60e51b815260206004820181905260248201527f416d6f756e7473206d757374206d6174636820706f6f6c656420746f6b656e7360448201526064015b60405180910390fd5b600a84015460009067ffffffffffffffff81111561069a5761069a614a42565b6040519080825280602002602001820160405280156106c3578160200160208202803683370190505b50905060008560090160009054906101000a90046001600160a01b03166001600160a01b03166318160ddd6040518163ffffffff1660e01b815260040160206040518083038186803b15801561071857600080fd5b505afa15801561072c573d6000803e3d6000fd5b505050506040513d601f19601f820116820180604052508101906107509190614715565b905060006040518060800160405280600081526020016000815260200160008152602001600081525090508160001461078f5761078c87612e48565b81525b600087600c018054806020026020016040519081016040528092919081815260200182805480156107df57602002820191906000526020600020905b8154815260200190600101908083116107cb575b5050505050905060005b600a890154811015610a63578315158061081c5750600088828151811061081257610812614a2c565b6020026020010151115b6108685760405162461bcd60e51b815260206004820152601e60248201527f4d75737420737570706c7920616c6c20746f6b656e7320696e20706f6f6c00006044820152606401610671565b87818151811061087a5761087a614a2c565b60200260200101516000146109e957600089600a0182815481106108a0576108a0614a2c565b6000918252602090912001546040516370a0823160e01b81523060048201526001600160a01b03909116906370a082319060240160206040518083038186803b1580156108ec57600080fd5b505afa158015610900573d6000803e3d6000fd5b505050506040513d601f19601f820116820180604052508101906109249190614715565b905061097733308b858151811061093d5761093d614a2c565b60200260200101518d600a01868154811061095a5761095a614a2c565b6000918252602090912001546001600160a01b0316929190612e5f565b6109c9818b600a01848154811061099057610990614a2c565b6000918252602090912001546040516370a0823160e01b81523060048201526001600160a01b03909116906370a0823190602401610592565b8983815181106109db576109db614a2c565b602002602001018181525050505b610a348882815181106109fe576109fe614a2c565b60200260200101518a600c018381548110610a1b57610a1b614a2c565b9060005260206000200154612e9d90919063ffffffff16565b828281518110610a4657610a46614a2c565b602090810291909101015280610a5b816149fb565b9150506107e9565b50610a6d88612ea9565b6060830152610a89610a7f8983612f34565b8360600151612f92565b60208301819052825110610adf5760405162461bcd60e51b815260206004820152601160248201527f442073686f756c6420696e6372656173650000000000000000000000000000006044820152606401610671565b602082015160408301528215610d3a576000610afa896131a4565b905060005b600a8a0154811015610d17576000610b518560000151610b4b8d600c018581548110610b2d57610b2d614a2c565b906000526020600020015488602001516131d190919063ffffffff16565b906131dd565b9050610c136402540be400610b4b8373__$5dc460cc747dc4210092f6da12cdb25a64$__63a95cb7f79091898881518110610b8e57610b8e614a2c565b60200260200101516040518363ffffffff1660e01b8152600401610bbc929190918252602082015260400190565b60206040518083038186803b158015610bd457600080fd5b505af4158015610be8573d6000803e3d6000fd5b505050506040513d601f19601f82011682018060405250810190610c0c9190614715565b86906131d1565b878381518110610c2557610c25614a2c565b602002602001018181525050610c95610c6d6402540be400610b4b8e600501548b8781518110610c5757610c57614a2c565b60200260200101516131d190919063ffffffff16565b858481518110610c7f57610c7f614a2c565b6020026020010151612dac90919063ffffffff16565b8b600c018381548110610caa57610caa614a2c565b9060005260206000200181905550610ce7878381518110610ccd57610ccd614a2c565b6020026020010151858481518110610c7f57610c7f614a2c565b848381518110610cf957610cf9614a2c565b60209081029190910101525080610d0f816149fb565b915050610aff565b50610d2f610d258a84612f34565b8460600151612f92565b604084015250610d51565b8051610d4f90600c8a019060208401906142b9565b505b6000808085610d665784602001519250610d8b565b84516040860151610d889190610b4b908990610d829084612dac565b906131d1565b92505b88831015610ddb5760405162461bcd60e51b815260206004820152601b60248201527f436f756c646e2774206d696e74206d696e2072657175657374656400000000006044820152606401610671565b60068b0154610e4f5760098b01546040516340c10f1960e01b8152336004820152602481018590526001600160a01b03909116906340c10f1990604401600060405180830381600087803b158015610e3257600080fd5b505af1158015610e46573d6000803e3d6000fd5b50505050610f50565b610e6f6402540be400610b4b8d60060154866131d190919063ffffffff16565b9150610e7b8383612dac565b60098c015460088d01546040516340c10f1960e01b81526001600160a01b0391821660048201526024810186905292935016906340c10f1990604401600060405180830381600087803b158015610ed157600080fd5b505af1158015610ee5573d6000803e3d6000fd5b5050505060098b01546040516340c10f1960e01b8152336004820152602481018390526001600160a01b03909116906340c10f1990604401600060405180830381600087803b158015610f3757600080fd5b505af1158015610f4b573d6000803e3d6000fd5b505050505b336001600160a01b03167f189c623b666b1b45b83d7178f39b8c087cb09774317ca2f53c2d3c3726f222a28b898860200151878b610f8e9190614874565b604051610f9e94939291906147e6565b60405180910390a25090955050505050505b9392505050565b600a83015482516000911461100e5760405162461bcd60e51b815260206004820181905260248201527f416d6f756e74732073686f756c64206d6174636820706f6f6c20746f6b656e736044820152606401610671565b60098401546040516370a0823160e01b81523360048201526001600160a01b03909116906370a082319060240160206040518083038186803b15801561105357600080fd5b505afa158015611067573d6000803e3d6000fd5b505050506040513d601f19601f8201168201806040525081019061108b9190614715565b821115801561109957508115155b6110d55760405162461bcd60e51b815260206004820152600d60248201526c1f2628173130b630b731b2a7b360991b6044820152606401610671565b600060405180608001604052806000815260200160008152602001600081526020016000815250905060008560090160009054906101000a90046001600160a01b03166001600160a01b03166318160ddd6040518163ffffffff1660e01b815260040160206040518083038186803b15801561115057600080fd5b505afa158015611164573d6000803e3d6000fd5b505050506040513d601f19601f820116820180604052508101906111889190614715565b90506000611195876131a4565b9050600087600c018054806020026020016040519081016040528092919081815260200182805480156111e757602002820191906000526020600020905b8154815260200190600101908083116111d3575b505050505090506111f788612ea9565b6060850152611212611208896131e9565b8560600151612f92565b845260005b600a8901548110156112b15761128288828151811061123857611238614a2c565b6020026020010151604051806060016040528060238152602001614a796023913984848151811061126b5761126b614a2c565b60200260200101516132979092919063ffffffff16565b82828151811061129457611294614a2c565b6020908102919091010152806112a9816149fb565b915050611217565b506112bf6112088983612f34565b6020850152600a88015460009067ffffffffffffffff8111156112e4576112e4614a42565b60405190808252806020026020018201604052801561130d578160200160208202803683370190505b50905060005b600a8a015481101561150057600061135f8760000151610b4b8d600c01858154811061134157611341614a2c565b90600052602060002001548a602001516131d190919063ffffffff16565b905060008173__$5dc460cc747dc4210092f6da12cdb25a64$__63a95cb7f7909187868151811061139257611392614a2c565b60200260200101516040518363ffffffff1660e01b81526004016113c0929190918252602082015260400190565b60206040518083038186803b1580156113d857600080fd5b505af41580156113ec573d6000803e3d6000fd5b505050506040513d601f19601f820116820180604052508101906114109190614715565b90506114256402540be400610b4b88846131d1565b84848151811061143757611437614a2c565b60200260200101818152505061147b6114696402540be400610b4b8f60050154888881518110610c5757610c57614a2c565b868581518110610c7f57610c7f614a2c565b8c600c01848154811061149057611490614a2c565b90600052602060002001819055506114cd8484815181106114b3576114b3614a2c565b6020026020010151868581518110610c7f57610c7f614a2c565b8584815181106114df576114df614a2c565b602002602001018181525050505080806114f8906149fb565b915050611313565b5061151861150e8a84612f34565b8660600151612f92565b60408601819052855160009161153a9190610b4b908890610d82908490612dac565b9050806115895760405162461bcd60e51b815260206004820152601b60248201527f4275726e7420616d6f756e742063616e6e6f74206265207a65726f00000000006044820152606401610671565b6115b96115a56115998c3361246f565b6402540be40090612dac565b610b4b6402540be400610d82856001612e9d565b90508781111561160b5760405162461bcd60e51b815260206004820152601b60248201527f746f6b656e416d6f756e74203e206d61784275726e416d6f756e7400000000006044820152606401610671565b60098a015460405163079cc67960e41b8152336004820152602481018390526001600160a01b03909116906379cc679090604401600060405180830381600087803b15801561165957600080fd5b505af115801561166d573d6000803e3d6000fd5b5050505060005b600a8b01548110156116e1576116cf338b838151811061169657611696614a2c565b60200260200101518d600a0184815481106116b3576116b3614a2c565b6000918252602090912001546001600160a01b03169190612db8565b806116d9816149fb565b915050611674565b50602086015133907f3631c28b1f9dd213e0319fb167b554d76b6c283a41143eb400a0d1adb1af1755908b9085906117198a87612dac565b60405161172994939291906147e6565b60405180910390a29998505050505050505050565b60088201546001600160a01b0316331461179a5760405162461bcd60e51b815260206004820152600960248201527f6465763a207775743f00000000000000000000000000000000000000000000006044820152606401610671565b336117e75760405162461bcd60e51b815260206004820152600f60248201527f696e76616c6964206164647265737300000000000000000000000000000000006044820152606401610671565b60089190910180547fffffffffffffffffffffffff0000000000000000000000000000000000000000166001600160a01b03909216919091179055565b6305f5e10081111561186a5760405162461bcd60e51b815260206004820152600f60248201526e08ccaca40d2e640e8dede40d0d2ced608b1b6044820152606401610671565b600482018190556040518181527fd88ea5155021c6f8dafa1a741e173f595cdf77ce7c17d43342131d7f06afdfe5906020015b60405180910390a15050565b60006118b7858585856132c3565b5095945050505050565b60028301546118d39062015180612e9d565b4210156119225760405162461bcd60e51b815260206004820152601f60248201527f57616974203120646179206265666f7265207374617274696e672072616d70006044820152606401610671565b61192f4262127500612e9d565b81101561197e5760405162461bcd60e51b815260206004820152601660248201527f496e73756666696369656e742072616d702074696d65000000000000000000006044820152606401610671565b6000821180156119905750620f424082105b6119dc5760405162461bcd60e51b815260206004820181905260248201527f667574757265415f206d757374206265203e203020616e64203c204d41585f416044820152606401610671565b60006119e784612ea9565b905060006119f68460646131d1565b905081811015611a5f5781611a0c8260026131d1565b1015611a5a5760405162461bcd60e51b815260206004820152601560248201527f667574757265415f20697320746f6f20736d616c6c00000000000000000000006044820152606401610671565b611ab9565b611a6a8260026131d1565b811115611ab95760405162461bcd60e51b815260206004820152601560248201527f667574757265415f20697320746f6f206c6172676500000000000000000000006044820152606401610671565b8185556001850181905542600286018190556003860184905560408051848152602081018490528082019290925260608201859052517fa2b71ec6df949300b59aab36b55e189697b750119dd349fcfa8c0f779e83c2549181900360800190a15050505050565b600a85015460009081611b3288612ea9565b90506000611b9b611b958a8b600c01805480602002602001604051908101604052809291908181526020018280548015611b8b57602002820191906000526020600020905b815481526020019060010190808311611b77575b5050505050612f34565b83612f92565b9050600089600c01805480602002602001604051908101604052809291908181526020018280548015611bed57602002820191906000526020600020905b815481526020019060010190808311611bd9575b5050505050905060005b84811015611ce4578615611c6c57611c49898983818110611c1a57611c1a614a2c565b90506020020135838381518110611c3357611c33614a2c565b6020026020010151612e9d90919063ffffffff16565b828281518110611c5b57611c5b614a2c565b602002602001018181525050611cd2565b611cb3898983818110611c8157611c81614a2c565b90506020020135604051806060016040528060238152602001614a796023913984848151811061126b5761126b614a2c565b828281518110611cc557611cc5614a2c565b6020026020010181815250505b80611cdc816149fb565b915050611bf7565b506000611cfa611cf48c84612f34565b85612f92565b905060008b60090160009054906101000a90046001600160a01b03166001600160a01b03166318160ddd6040518163ffffffff1660e01b815260040160206040518083038186803b158015611d4e57600080fd5b505afa158015611d62573d6000803e3d6000fd5b505050506040513d601f19601f82011682018060405250810190611d869190614715565b90508715611dad57611da084610b4b83610d828684612dac565b9650505050505050611dd4565b611da0611dbd6115998e8e61246f565b610b4b6402540be400610d8288838783838b612dac565b95945050505050565b6402540be400811115611e245760405162461bcd60e51b815260206004820152600f60248201526e08ccaca40d2e640e8dede40d0d2ced608b1b6044820152606401610671565b600582018190556040518181527fab599d640ca80cde2b09b128a4154a8dfe608cb80f4c9399c8b954b01fd35f389060200161189d565b600080611e78611e6a846131e9565b611e7385612ea9565b612f92565b905060008360090160009054906101000a90046001600160a01b03166001600160a01b03166318160ddd6040518163ffffffff1660e01b815260040160206040518083038186803b158015611ecc57600080fd5b505afa158015611ee0573d6000803e3d6000fd5b505050506040513d601f19601f82011682018060405250810190611f049190614715565b90508015611fb857611fb081610b4b8660090160009054906101000a90046001600160a01b03166001600160a01b031663313ce5676040518163ffffffff1660e01b815260040160206040518083038186803b158015611f6357600080fd5b505afa158015611f77573d6000803e3d6000fd5b505050506040513d601f19601f82011682018060405250810190611f9b919061472e565b611fa99060ff16600a6148f1565b85906131d1565b949350505050565b5060009392505050565b60098401546040516370a0823160e01b81523360048201526060916001600160a01b0316906370a082319060240160206040518083038186803b15801561200857600080fd5b505afa15801561201c573d6000803e3d6000fd5b505050506040513d601f19601f820116820180604052508101906120409190614715565b84111561207f5760405162461bcd60e51b815260206004820152600d60248201526c1f2628173130b630b731b2a7b360991b6044820152606401610671565b600a85015482146120d25760405162461bcd60e51b815260206004820181905260248201527f6d696e416d6f756e7473206d757374206d6174636820706f6f6c546f6b656e736044820152606401610671565b60006120df863387613420565b905060005b8151811015612221578484828181106120ff576120ff614a2c565b9050602002013582828151811061211857612118614a2c565b6020026020010151101561216e5760405162461bcd60e51b815260206004820152601a60248201527f616d6f756e74735b695d203c206d696e416d6f756e74735b695d0000000000006044820152606401610671565b6121b982828151811061218357612183614a2c565b602002602001015188600c0183815481106121a0576121a0614a2c565b9060005260206000200154612dac90919063ffffffff16565b87600c0182815481106121ce576121ce614a2c565b906000526020600020018190555061220f338383815181106121f2576121f2614a2c565b602002602001015189600a0184815481106116b3576116b3614a2c565b80612219816149fb565b9150506120e4565b50600986015460405163079cc67960e41b8152336004820152602481018790526001600160a01b03909116906379cc679090604401600060405180830381600087803b15801561227057600080fd5b505af1158015612284573d6000803e3d6000fd5b50505050336001600160a01b03167f88d38ed598fdd809c2bf01ee49cd24b7fdabf379a83d29567952b60324d58cef828860090160009054906101000a90046001600160a01b03166001600160a01b03166318160ddd6040518163ffffffff1660e01b815260040160206040518083038186803b15801561230457600080fd5b505afa158015612318573d6000803e3d6000fd5b505050506040513d601f19601f8201168201806040525081019061233c9190614715565b60405161234a92919061481f565b60405180910390a295945050505050565b600a82015460009082106123b15760405162461bcd60e51b815260206004820152601860248201527f546f6b656e20696e646578206f7574206f662072616e676500000000000000006044820152606401610671565b6123e983600c0183815481106123c9576123c9614a2c565b906000526020600020015484600a01848154811061099057610990614a2c565b90505b92915050565b6305f5e1008111156124385760405162461bcd60e51b815260206004820152600f60248201526e08ccaca40d2e640e8dede40d0d2ced608b1b6044820152606401610671565b600782018190556040518181527fd5fe46099fa396290a7f57e36c3c3c8774e2562c18ed5d1dcc0fa75071e03f1d9060200161189d565b6001600160a01b0381166000908152600d830160205260408120548190612499906224ea00612e9d565b905042811115611fb85760006124af8242612dac565b90506125036402540be400610b4b6224ea00610b4b85610d828b600e0160008c6001600160a01b03166001600160a01b03168152602001908152602001600020548c600701546131d190919063ffffffff16565b925050506123ec565b600085600a018560ff168154811061252657612526614a2c565b6000918252602090912001546040516370a0823160e01b81523360048201526001600160a01b03909116906370a082319060240160206040518083038186803b15801561257257600080fd5b505afa158015612586573d6000803e3d6000fd5b505050506040513d601f19601f820116820180604052508101906125aa9190614715565b8311156125f95760405162461bcd60e51b815260206004820152601d60248201527f43616e6e6f742073776170206d6f7265207468616e20796f75206f776e0000006044820152606401610671565b600086600a018660ff168154811061261357612613614a2c565b6000918252602090912001546040516370a0823160e01b81523060048201526001600160a01b03909116906370a082319060240160206040518083038186803b15801561265f57600080fd5b505afa158015612673573d6000803e3d6000fd5b505050506040513d601f19601f820116820180604052508101906126979190614715565b90506126b73330868a600a018a60ff168154811061095a5761095a614a2c565b60006126d58289600a018960ff168154811061099057610990614a2c565b90506000806126e68a8a8a866132c3565b915091508582101561273a5760405162461bcd60e51b815260206004820181905260248201527f53776170206469646e277420726573756c7420696e206d696e20746f6b656e736044820152606401610671565b60006127828b600b018a60ff168154811061275757612757614a2c565b9060005260206000200154610b4b6402540be400610b4b8f60050154876131d190919063ffffffff16565b90506127a0848c600c018c60ff1681548110610a1b57610a1b614a2c565b8b600c018b60ff16815481106127b8576127b8614a2c565b90600052602060002001819055506127e6816105e2858e600c018d60ff16815481106121a0576121a0614a2c565b8b600c018a60ff16815481106127fe576127fe614a2c565b906000526020600020018190555061282933848d600a018c60ff16815481106116b3576116b3614a2c565b604080518581526020810185905260ff8c8116828401528b166060820152905133917fc6c1e0630dbe9130cc068028486c0d118ddcea348550819defd5cb8c257f8a38919081900360800190a250909998505050505050505050565b60006123ec826135ee565b60006123ec82612ea9565b6305f5e1008111156128e15760405162461bcd60e51b815260206004820152600f60248201526e08ccaca40d2e640e8dede40d0d2ced608b1b6044820152606401610671565b600682018190556040518181527f5237b692334926d9ab50f9d1ac513fe7e153f0cd81dd7c55a09d281d2985d8089060200161189d565b6000806000806129298886886135fe565b8092508193505050600061297e836105e28b600b018960ff168154811061295257612952614a2c565b9060005260206000200154610b4b8661296a8f6131e9565b8c60ff1681518110610c7f57610c7f614a2c565b90506129996402540be400610b4b610c0c6115998d8d61246f565b999098509650505050505050565b6000808560090160009054906101000a90046001600160a01b03166001600160a01b03166318160ddd6040518163ffffffff1660e01b815260040160206040518083038186803b1580156129fa57600080fd5b505afa158015612a0e573d6000803e3d6000fd5b505050506040513d601f19601f82011682018060405250810190612a329190614715565b600a87015460098801546040516370a0823160e01b815233600482015292935090916001600160a01b03909116906370a082319060240160206040518083038186803b158015612a8157600080fd5b505afa158015612a95573d6000803e3d6000fd5b505050506040513d601f19601f82011682018060405250810190612ab99190614715565b861115612af85760405162461bcd60e51b815260206004820152600d60248201526c1f2628173130b630b731b2a7b360991b6044820152606401610671565b808560ff1610612b3c5760405162461bcd60e51b815260206004820152600f60248201526e151bdad95b881b9bdd08199bdd5b99608a1b6044820152606401610671565b600080612b4b89338a8a612918565b9250905085811015612b9f5760405162461bcd60e51b815260206004820152600e60248201527f6479203c206d696e416d6f756e740000000000000000000000000000000000006044820152606401610671565b612be4612bcc612bc56402540be400610b4b8d60050154876131d190919063ffffffff16565b8390612e9d565b8a600c018960ff16815481106121a0576121a0614a2c565b89600c018860ff1681548110612bfc57612bfc614a2c565b600091825260209091200155600989015460405163079cc67960e41b8152336004820152602481018a90526001600160a01b03909116906379cc679090604401600060405180830381600087803b158015612c5657600080fd5b505af1158015612c6a573d6000803e3d6000fd5b50505050612c8b33828b600a018a60ff16815481106116b3576116b3614a2c565b604080518981526020810186905260ff89168183015260608101839052905133917f43fb02998f4e03da2e0e6fff53fdbf0c40a9f45f145dc377fc30615d7d7a8a64919081900360800190a298975050505050505050565b610619838383613974565b42816003015411612d415760405162461bcd60e51b815260206004820152601760248201527f52616d7020697320616c72656164792073746f707065640000000000000000006044820152606401610671565b6000612d4c82612ea9565b808355600183018190554260028401819055600384018190556040519192507f46e22fb3709ad289f62ce63d469248536dbc78d82b84a3d7e74ad606dc2019389161189d91848252602082015260400190565b6060611fb0848484613420565b60006123e982846149b8565b6040516001600160a01b03831660248201526044810182905261061990849063a9059cbb60e01b906064015b60408051601f198184030181529190526020810180517bffffffffffffffffffffffffffffffffffffffffffffffffffffffff167fffffffff0000000000000000000000000000000000000000000000000000000090931692909217909152613ad3565b60006123ec612e56836131e9565b611e7384612ea9565b6040516001600160a01b0380851660248301528316604482015260648101829052612e979085906323b872dd60e01b90608401612de4565b50505050565b60006123e98284614874565b600381015460018201546000919042821115610fb0576002840154845480831115612f0657612efc612ef5612ede8685612dac565b610b4b612eeb4287612dac565b610d828887612dac565b8290612e9d565b9695505050505050565b612efc612f2d612f168685612dac565b610b4b612f234287612dac565b610d828689612dac565b8290612dac565b60606123e98284600b01805480602002602001604051908101604052809291908181526020018280548015612f8857602002820191906000526020600020905b815481526020019060010190808311612f74575b5050505050613bb8565b815160009081805b82811015612fe257612fce868281518110612fb757612fb7614a2c565b602002602001015183612e9d90919063ffffffff16565b915080612fda816149fb565b915050612f9a565b5080612ff3576000925050506123ec565b6000818161300187866131d1565b905060005b61010081101561315b578260005b878110156130535761303f613035898d8481518110610c5757610c57614a2c565b610b4b84886131d1565b91508061304b816149fb565b915050613014565b5092935083926130a761308761306e83610d828b6001612e9d565b6130816064610b4b89610d828a84612dac565b90612e9d565b610b4b86610d82613098868d6131d1565b6130816064610b4b8b8f6131d1565b6040516313a1ec7560e01b8152600481018290526024810187905290945073__$5dc460cc747dc4210092f6da12cdb25a64$__906313a1ec759060440160206040518083038186803b1580156130fc57600080fd5b505af4158015613110573d6000803e3d6000fd5b505050506040513d601f19601f820116820180604052508101906131349190614381565b1561314857839750505050505050506123ec565b5080613153816149fb565b915050613006565b5060405162461bcd60e51b815260206004820152601360248201527f4420646f6573206e6f7420636f6e7665726765000000000000000000000000006044820152606401610671565b600a8101546000906123ec906131c290600490610d82906001612dac565b600a8401546004850154610b4b915b60006123e98284614999565b60006123e9828461488c565b60606123ec82600c0180548060200260200160405190810160405280929190818152602001828054801561323c57602002820191906000526020600020905b815481526020019060010190808311613228575b505050505083600b01805480602002602001604051908101604052809291908181526020018280548015612f885760200282019190600052602060002090815481526020019060010190808311612f74575050505050613bb8565b600081848411156132bb5760405162461bcd60e51b81526004016106719190614841565b505050900390565b60008060006132d1876131e9565b905080518660ff161080156132e9575080518560ff16105b6133355760405162461bcd60e51b815260206004820152601860248201527f546f6b656e20696e646578206f7574206f662072616e676500000000000000006044820152606401610671565b600061338c828860ff168151811061334f5761334f614a2c565b60200260200101516130818a600b018a60ff168154811061337257613372614a2c565b9060005260206000200154886131d190919063ffffffff16565b9050600061339d8989898587613cc7565b90506133bd60016105e283868b60ff1681518110610c7f57610c7f614a2c565b94506133df6402540be400610b4b8b60040154886131d190919063ffffffff16565b935061341289600b018860ff16815481106133fc576133fc614a2c565b600091825260209091200154610b4b8787612dac565b945050505094509492505050565b606060008460090160009054906101000a90046001600160a01b03166001600160a01b03166318160ddd6040518163ffffffff1660e01b815260040160206040518083038186803b15801561347457600080fd5b505afa158015613488573d6000803e3d6000fd5b505050506040513d601f19601f820116820180604052508101906134ac9190614715565b9050808311156134fe5760405162461bcd60e51b815260206004820152601a60248201527f43616e6e6f742065786365656420746f74616c20737570706c790000000000006044820152606401610671565b60006135206402540be400610b4b6135196115998a8a61246f565b87906131d1565b600a87015490915060009067ffffffffffffffff81111561354357613543614a42565b60405190808252806020026020018201604052801561356c578160200160208202803683370190505b50905060005b600a8801548110156135e3576135b484610b4b858b600c01858154811061359b5761359b614a2c565b90600052602060002001546131d190919063ffffffff16565b8282815181106135c6576135c6614a2c565b6020908102919091010152806135db816149fb565b915050613572565b509695505050505050565b60006123ec6064610b4b84612ea9565b600a830154600090819060ff8516106136595760405162461bcd60e51b815260206004820152601860248201527f546f6b656e20696e646578206f7574206f662072616e676500000000000000006044820152606401610671565b6000613664866131e9565b905060006040518060a00160405280600081526020016000815260200160008152602001600081526020016000815250905061369f87612ea9565b608082018190526136b1908390612f92565b81526009870154604080516318160ddd60e01b8152905161374f92613747926001600160a01b03909116916318160ddd91600480820192602092909190829003018186803b15801561370257600080fd5b505afa158015613716573d6000803e3d6000fd5b505050506040513d601f19601f8201168201806040525081019061373a9190614715565b8351610b4b9089906131d1565b825190612dac565b60208201528151829060ff881690811061376b5761376b614a2c565b60200260200101518511156137c25760405162461bcd60e51b815260206004820152601a60248201527f5769746864726177206578636565647320617661696c61626c650000000000006044820152606401610671565b6137d6816080015187848460200151613faa565b6040820152815160009067ffffffffffffffff8111156137f8576137f8614a42565b604051908082528060200260200182016040528015613821578160200160208202803683370190505b50905061382d886131a4565b606083015260005b600a8901548110156138fa57600084828151811061385557613855614a2c565b602002602001015190506138ca612f2d6402540be400610b4b87606001518d60ff1687146138a357885160208a015161389e9161389791610b4b908a906131d1565b8790612dac565b610d82565b610d8289604001516105e28b60000151610b4b8d602001518b6131d190919063ffffffff16565b8383815181106138dc576138dc614a2c565b602090810291909101015250806138f2816149fb565b915050613835565b50600061392961391484608001518a858760200151613faa565b838a60ff1681518110610c7f57610c7f614a2c565b905061395d89600b018960ff168154811061394657613946614a2c565b600091825260209091200154610b4b836001612dac565b604090930151929550919350505050935093915050565b6001600160a01b03821661398757505050565b60078301546139b7576001600160a01b0382166000908152600e8401602052604090206402540be4009055613ab3565b60006139c3848461246f565b60098501546040516370a0823160e01b81526001600160a01b038681166004830152929350600092909116906370a082319060240160206040518083038186803b158015613a1057600080fd5b505afa158015613a24573d6000803e3d6000fd5b505050506040513d601f19601f82011682018060405250810190613a489190614715565b9050613a95613a688660070154610d828487612e9d90919063ffffffff16565b610b4b6402540be400610d82613a8b8a60070154896131d190919063ffffffff16565b61308187896131d1565b6001600160a01b0385166000908152600e8701602052604090205550505b506001600160a01b03166000908152600d90910160205260409020429055565b6000613b28826040518060400160405280602081526020017f5361666545524332303a206c6f772d6c6576656c2063616c6c206661696c6564815250856001600160a01b03166141a59092919063ffffffff16565b8051909150156106195780806020019051810190613b469190614381565b6106195760405162461bcd60e51b815260206004820152602a60248201527f5361666545524332303a204552433230206f7065726174696f6e20646964206e60448201527f6f742073756363656564000000000000000000000000000000000000000000006064820152608401610671565b81518151606091908114613c0e5760405162461bcd60e51b815260206004820152601f60248201527f42616c616e636573206d757374206d61746368206d756c7469706c69657273006044820152606401610671565b60008167ffffffffffffffff811115613c2957613c29614a42565b604051908082528060200260200182016040528015613c52578160200160208202803683370190505b50905060005b82811015613cbe57613c8f858281518110613c7557613c75614a2c565b6020026020010151878381518110610c5757610c57614a2c565b828281518110613ca157613ca1614a2c565b602090810291909101015280613cb6816149fb565b915050613c58565b50949350505050565b600a85015460009060ff8681169086161415613d255760405162461bcd60e51b815260206004820152601d60248201527f43616e277420636f6d7061726520746f6b656e20746f20697473656c660000006044820152606401610671565b808660ff16108015613d395750808560ff16105b613d855760405162461bcd60e51b815260206004820152601660248201527f546f6b656e73206d75737420626520696e20706f6f6c000000000000000000006044820152606401610671565b6000613d9088612ea9565b90506000613d9e8583612f92565b905080600080613dae86866131d1565b90506000805b87811015613e37578c60ff16811415613dcf578a9150613dff565b8b60ff168114613dfa57898181518110613deb57613deb614a2c565b60200260200101519150613dff565b613e25565b613e098483612e9d565b9350613e22613e18838a6131d1565b610b4b87896131d1565b94505b80613e2f816149fb565b915050613db4565b50613e54613e4583896131d1565b610b4b6064610d82888a6131d1565b93506000613e71613e6a84610b4b8960646131d1565b8590612e9d565b9050600086815b610100811015613f61579091508190613eab613e9d8a6105e2876130818760026131d1565b610b4b8a61308186806131d1565b6040516313a1ec7560e01b8152600481018290526024810185905290925073__$5dc460cc747dc4210092f6da12cdb25a64$__906313a1ec759060440160206040518083038186803b158015613f0057600080fd5b505af4158015613f14573d6000803e3d6000fd5b505050506040513d601f19601f82011682018060405250810190613f389190614381565b15613f4f57509950611dd498505050505050505050565b80613f59816149fb565b915050613e78565b5060405162461bcd60e51b815260206004820152601e60248201527f417070726f78696d6174696f6e20646964206e6f7420636f6e766572676500006044820152606401610671565b815160009060ff85168111613ff35760405162461bcd60e51b815260206004820152600f60248201526e151bdad95b881b9bdd08199bdd5b99608a1b6044820152606401610671565b8260008061400189856131d1565b905060005b8481101561407e578860ff16811461406c5761404488828151811061402d5761402d614a2c565b602002602001015184612e9d90919063ffffffff16565b925061406961405f868a8481518110610c5757610c57614a2c565b610b4b868a6131d1565b93505b80614076816149fb565b915050614006565b5061409b61408c82866131d1565b610b4b6064610d82878b6131d1565b925060006140b86140b183610b4b8a60646131d1565b8490612e9d565b9050600087815b610100811015613f615790915081906140f26140e48b6105e2876130818760026131d1565b610b4b8961308186806131d1565b6040516313a1ec7560e01b8152600481018290526024810185905290925073__$5dc460cc747dc4210092f6da12cdb25a64$__906313a1ec759060440160206040518083038186803b15801561414757600080fd5b505af415801561415b573d6000803e3d6000fd5b505050506040513d601f19601f8201168201806040525081019061417f9190614381565b1561419357509650611fb095505050505050565b8061419d816149fb565b9150506140bf565b6060611fb08484600085856001600160a01b0385163b6142075760405162461bcd60e51b815260206004820152601d60248201527f416464726573733a2063616c6c20746f206e6f6e2d636f6e74726163740000006044820152606401610671565b600080866001600160a01b031685876040516142239190614786565b60006040518083038185875af1925050503d8060008114614260576040519150601f19603f3d011682016040523d82523d6000602084013e614265565b606091505b5091509150614275828286614280565b979650505050505050565b6060831561428f575081610fb0565b82511561429f5782518084602001fd5b8160405162461bcd60e51b81526004016106719190614841565b8280548282559060005260206000209081019282156142f4579160200282015b828111156142f45782518255916020019190600101906142d9565b50614300929150614304565b5090565b5b808211156143005760008155600101614305565b80356001600160a01b038116811461433057600080fd5b919050565b60008083601f84011261434757600080fd5b50813567ffffffffffffffff81111561435f57600080fd5b6020830191508360208260051b850101111561437a57600080fd5b9250929050565b60006020828403121561439357600080fd5b8151610fb081614a58565b6000602082840312156143b057600080fd5b5035919050565b600080604083850312156143ca57600080fd5b823591506143da60208401614319565b90509250929050565b6000806000806000608086880312156143fb57600080fd5b8535945061440b60208701614319565b9350604086013567ffffffffffffffff81111561442757600080fd5b61443388828901614335565b909450925050606086013561444781614a58565b809150509295509295909350565b60008060006060848603121561446a57600080fd5b8335925061447a60208501614319565b9150604084013590509250925092565b600080600080608085870312156144a057600080fd5b843593506144b060208601614319565b92506040850135915060608501356144c781614a69565b939692955090935050565b6000806000606084860312156144e757600080fd5b8335925060208085013567ffffffffffffffff8082111561450757600080fd5b818701915087601f83011261451b57600080fd5b81358181111561452d5761452d614a42565b8060051b604051601f19603f8301168101818110858211171561455257614552614a42565b604052828152858101935084860182860187018c101561457157600080fd5b600095505b83861015614594578035855260019590950194938601938601614576565b50979a979950505050604095909501359450505050565b600080604083850312156145be57600080fd5b50508035926020909101359150565b600080600080606085870312156145e357600080fd5b8435935060208501359250604085013567ffffffffffffffff81111561460857600080fd5b61461487828801614335565b95989497509550505050565b60008060006060848603121561463557600080fd5b505081359360208301359350604090920135919050565b6000806000806080858703121561466257600080fd5b8435935060208501359250604085013561467b81614a69565b9396929550929360600135925050565b600080600080608085870312156146a157600080fd5b8435935060208501356146b381614a69565b9250604085013561467b81614a69565b600080600080600060a086880312156146db57600080fd5b8535945060208601356146ed81614a69565b935060408601356146fd81614a69565b94979396509394606081013594506080013592915050565b60006020828403121561472757600080fd5b5051919050565b60006020828403121561474057600080fd5b8151610fb081614a69565b600081518084526020808501945080840160005b8381101561477b5781518752958201959082019060010161475f565b509495945050505050565b600082516147988184602087016149cf565b9190910192915050565b6020808252825182820181905260009190848201906040850190845b818110156147da578351835292840192918401916001016147be565b50909695505050505050565b6080815260006147f9608083018761474b565b828103602084015261480b818761474b565b604084019590955250506060015292915050565b604081526000614832604083018561474b565b90508260208301529392505050565b60208152600082518060208401526148608160408501602087016149cf565b601f01601f19169190910160400192915050565b6000821982111561488757614887614a16565b500190565b6000826148a957634e487b7160e01b600052601260045260246000fd5b500490565b600181815b808511156148e95781600019048211156148cf576148cf614a16565b808516156148dc57918102915b93841c93908002906148b3565b509250929050565b60006123e98383600082614907575060016123ec565b81614914575060006123ec565b816001811461492a576002811461493457614950565b60019150506123ec565b60ff84111561494557614945614a16565b50506001821b6123ec565b5060208310610133831016604e8410600b8410161715614973575081810a6123ec565b61497d83836148ae565b806000190482111561499157614991614a16565b029392505050565b60008160001904831182151516156149b3576149b3614a16565b500290565b6000828210156149ca576149ca614a16565b500390565b60005b838110156149ea5781810151838201526020016149d2565b83811115612e975750506000910152565b6000600019821415614a0f57614a0f614a16565b5060010190565b634e487b7160e01b600052601160045260246000fd5b634e487b7160e01b600052603260045260246000fd5b634e487b7160e01b600052604160045260246000fd5b8015158114614a6657600080fd5b50565b60ff81168114614a6657600080fdfe43616e6e6f74207769746864726177206d6f7265207468616e20617661696c61626c65a164736f6c6343000807000a",
  "linkReferences": {
    "contracts/MathUtils.sol": {
      "MathUtils": [
        {
          "length": 20,
          "start": 2972
        },
        {
          "length": 20,
          "start": 5024
        },
        {
          "length": 20,
          "start": 12545
        },
        {
          "length": 20,
          "start": 16133
        },
        {
          "length": 20,
          "start": 16716
        }
      ]
    }
  },
  "deployedLinkReferences": {
    "contracts/MathUtils.sol": {
      "MathUtils": [
        {
          "length": 20,
          "start": 2914
        },
        {
          "length": 20,
          "start": 4966
        },
        {
          "length": 20,
          "start": 12487
        },
        {
          "length": 20,
          "start": 16075
        },
        {
          "length": 20,
          "start": 16658
        }
      ]
    }
  }
}