{
  "_format": "hh-sol-artifact-1",
  "contractName": "CrosschainERC721",
  "sourceName": "contracts/CrosschainERC721.sol",
  "abi": [
    {
      "inputs": [
        {
          "internalType": "contract ERC721",
          "name": "_coToken",
          "type": "address"
        },
        {
          "internalType": "address",
          "name": "_minter",
          "type": "address"
        },
        {
          "internalType": "string",
          "name": "_name",
          "type": "string"
        },
        {
          "internalType": "string",
          "name": "_symbol",
          "type": "string"
        }
      ],
      "stateMutability": "nonpayable",
      "type": "constructor"
    },
    {
      "anonymous": false,
      "inputs": [
        {
          "indexed": true,
          "internalType": "address",
          "name": "owner",
          "type": "address"
        },
        {
          "indexed": true,
          "internalType": "address",
          "name": "approved",
          "type": "address"
        },
        {
          "indexed": true,
          "internalType": "uint256",
          "name": "tokenId",
          "type": "uint256"
        }
      ],
      "name": "Approval",
      "type": "event"
    },
    {
      "anonymous": false,
      "inputs": [
        {
          "indexed": true,
          "internalType": "address",
          "name": "owner",
          "type": "address"
        },
        {
          "indexed": true,
          "internalType": "address",
          "name": "operator",
          "type": "address"
        },
        {
          "indexed": false,
          "internalType": "bool",
          "name": "approved",
          "type": "bool"
        }
      ],
      "name": "ApprovalForAll",
      "type": "event"
    },
    {
      "anonymous": false,
      "inputs": [
        {
          "indexed": true,
          "internalType": "address",
          "name": "minter",
          "type": "address"
        }
      ],
      "name": "MinterSet",
      "type": "event"
    },
    {
      "anonymous": false,
      "inputs": [
        {
          "indexed": true,
          "internalType": "address",
          "name": "from",
          "type": "address"
        },
        {
          "indexed": true,
          "internalType": "address",
          "name": "to",
          "type": "address"
        },
        {
          "indexed": true,
          "internalType": "uint256",
          "name": "tokenId",
          "type": "uint256"
        }
      ],
      "name": "Transfer",
      "type": "event"
    },
    {
      "inputs": [
        {
          "internalType": "address",
          "name": "to",
          "type": "address"
        },
        {
          "internalType": "uint256",
          "name": "tokenId",
          "type": "uint256"
        }
      ],
      "name": "approve",
      "outputs": [],
      "stateMutability": "nonpayable",
      "type": "function"
    },
    {
      "inputs": [
        {
          "internalType": "address",
          "name": "owner",
          "type": "address"
        }
      ],
      "name": "balanceOf",
      "outputs": [
        {
          "internalType": "uint256",
          "name": "",
          "type": "uint256"
        }
      ],
      "stateMutability": "view",
      "type": "function"
    },
    {
      "inputs": [
        {
          "internalType": "uint256",
          "name": "tokenId",
          "type": "uint256"
        }
      ],
      "name": "burn",
      "outputs": [],
      "stateMutability": "nonpayable",
      "type": "function"
    },
    {
      "inputs": [],
      "name": "coToken",
      "outputs": [
        {
          "internalType": "contract ERC721",
          "name": "",
          "type": "address"
        }
      ],
      "stateMutability": "view",
      "type": "function"
    },
    {
      "inputs": [
        {
          "internalType": "uint256",
          "name": "_id",
          "type": "uint256"
        }
      ],
      "name": "deposit",
      "outputs": [],
      "stateMutability": "nonpayable",
      "type": "function"
    },
    {
      "inputs": [
        {
          "internalType": "address",
          "name": "_to",
          "type": "address"
        },
        {
          "internalType": "uint256",
          "name": "_id",
          "type": "uint256"
        }
      ],
      "name": "depositTo",
      "outputs": [],
      "stateMutability": "nonpayable",
      "type": "function"
    },
    {
      "inputs": [
        {
          "internalType": "uint256",
          "name": "tokenId",
          "type": "uint256"
        }
      ],
      "name": "getApproved",
      "outputs": [
        {
          "internalType": "address",
          "name": "",
          "type": "address"
        }
      ],
      "stateMutability": "view",
      "type": "function"
    },
    {
      "inputs": [
        {
          "internalType": "address",
          "name": "owner",
          "type": "address"
        },
        {
          "internalType": "address",
          "name": "operator",
          "type": "address"
        }
      ],
      "name": "isApprovedForAll",
      "outputs": [
        {
          "internalType": "bool",
          "name": "",
          "type": "bool"
        }
      ],
      "stateMutability": "view",
      "type": "function"
    },
    {
      "inputs": [],
      "name": "minter",
      "outputs": [
        {
          "internalType": "address",
          "name": "",
          "type": "address"
        }
      ],
      "stateMutability": "view",
      "type": "function"
    },
    {
      "inputs": [],
      "name": "name",
      "outputs": [
        {
          "internalType": "string",
          "name": "",
          "type": "string"
        }
      ],
      "stateMutability": "view",
      "type": "function"
    },
    {
      "inputs": [
        {
          "internalType": "uint256",
          "name": "tokenId",
          "type": "uint256"
        }
      ],
      "name": "ownerOf",
      "outputs": [
        {
          "internalType": "address",
          "name": "",
          "type": "address"
        }
      ],
      "stateMutability": "view",
      "type": "function"
    },
    {
      "inputs": [
        {
          "internalType": "address",
          "name": "_to",
          "type": "address"
        },
        {
          "internalType": "uint256",
          "name": "_id",
          "type": "uint256"
        },
        {
          "internalType": "bytes",
          "name": "_data",
          "type": "bytes"
        }
      ],
      "name": "safeMint",
      "outputs": [],
      "stateMutability": "nonpayable",
      "type": "function"
    },
    {
      "inputs": [
        {
          "internalType": "address",
          "name": "from",
          "type": "address"
        },
        {
          "internalType": "address",
          "name": "to",
          "type": "address"
        },
        {
          "internalType": "uint256",
          "name": "tokenId",
          "type": "uint256"
        }
      ],
      "name": "safeTransferFrom",
      "outputs": [],
      "stateMutability": "nonpayable",
      "type": "function"
    },
    {
      "inputs": [
        {
          "internalType": "address",
          "name": "from",
          "type": "address"
        },
        {
          "internalType": "address",
          "name": "to",
          "type": "address"
        },
        {
          "internalType": "uint256",
          "name": "tokenId",
          "type": "uint256"
        },
        {
          "internalType": "bytes",
          "name": "_data",
          "type": "bytes"
        }
      ],
      "name": "safeTransferFrom",
      "outputs": [],
      "stateMutability": "nonpayable",
      "type": "function"
    },
    {
      "inputs": [
        {
          "internalType": "address",
          "name": "operator",
          "type": "address"
        },
        {
          "internalType": "bool",
          "name": "approved",
          "type": "bool"
        }
      ],
      "name": "setApprovalForAll",
      "outputs": [],
      "stateMutability": "nonpayable",
      "type": "function"
    },
    {
      "inputs": [
        {
          "internalType": "bytes4",
          "name": "interfaceId",
          "type": "bytes4"
        }
      ],
      "name": "supportsInterface",
      "outputs": [
        {
          "internalType": "bool",
          "name": "",
          "type": "bool"
        }
      ],
      "stateMutability": "view",
      "type": "function"
    },
    {
      "inputs": [],
      "name": "symbol",
      "outputs": [
        {
          "internalType": "string",
          "name": "",
          "type": "string"
        }
      ],
      "stateMutability": "view",
      "type": "function"
    },
    {
      "inputs": [
        {
          "internalType": "uint256",
          "name": "tokenId",
          "type": "uint256"
        }
      ],
      "name": "tokenURI",
      "outputs": [
        {
          "internalType": "string",
          "name": "",
          "type": "string"
        }
      ],
      "stateMutability": "view",
      "type": "function"
    },
    {
      "inputs": [
        {
          "internalType": "address",
          "name": "from",
          "type": "address"
        },
        {
          "internalType": "address",
          "name": "to",
          "type": "address"
        },
        {
          "internalType": "uint256",
          "name": "tokenId",
          "type": "uint256"
        }
      ],
      "name": "transferFrom",
      "outputs": [],
      "stateMutability": "nonpayable",
      "type": "function"
    },
    {
      "inputs": [
        {
          "internalType": "address",
          "name": "_newMinter",
          "type": "address"
        }
      ],
      "name": "transferMintership",
      "outputs": [],
      "stateMutability": "nonpayable",
      "type": "function"
    },
    {
      "inputs": [
        {
          "internalType": "uint256",
          "name": "_id",
          "type": "uint256"
        }
      ],
      "name": "withdraw",
      "outputs": [],
      "stateMutability": "nonpayable",
      "type": "function"
    },
    {
      "inputs": [
        {
          "internalType": "address",
          "name": "_to",
          "type": "address"
        },
        {
          "internalType": "uint256",
          "name": "_id",
          "type": "uint256"
        }
      ],
      "name": "withdrawTo",
      "outputs": [],
      "stateMutability": "nonpayable",
      "type": "function"
    }
  ],
  "bytecode": "0x60806040523480156200001157600080fd5b5060405162001de838038062001de8833981016040819052620000349162000226565b8151829082906200004d906000906020850190620000c9565b50805162000063906001906020840190620000c9565b5050600680546001600160a01b038088166001600160a01b0319928316179092556007805492871692909116821790556040519091507f726b590ef91a8c76ad05bbe91a57ef84605276528f49cd47d787f558a4e755b690600090a25050505062000327565b828054620000d790620002bb565b90600052602060002090601f016020900481019282620000fb576000855562000146565b82601f106200011657805160ff191683800117855562000146565b8280016001018555821562000146579182015b828111156200014657825182559160200191906001019062000129565b506200015492915062000158565b5090565b5b8082111562000154576000815560010162000159565b600082601f8301126200018157600080fd5b81516001600160401b03808211156200019e576200019e620002f8565b604051601f8301601f19908116603f01168101908282118183101715620001c957620001c9620002f8565b81604052838152602092508683858801011115620001e657600080fd5b600091505b838210156200020a5785820183015181830184015290820190620001eb565b838211156200021c5760008385830101525b9695505050505050565b600080600080608085870312156200023d57600080fd5b84516200024a816200030e565b60208601519094506200025d816200030e565b60408601519093506001600160401b03808211156200027b57600080fd5b62000289888389016200016f565b93506060870151915080821115620002a057600080fd5b50620002af878288016200016f565b91505092959194509250565b600181811c90821680620002d057607f821691505b60208210811415620002f257634e487b7160e01b600052602260045260246000fd5b50919050565b634e487b7160e01b600052604160045260246000fd5b6001600160a01b03811681146200032457600080fd5b50565b611ab180620003376000396000f3fe608060405234801561001057600080fd5b50600436106101825760003560e01c806370a08231116100d8578063b6b55f251161008c578063cf86a95a11610066578063cf86a95a14610324578063e985e9c514610337578063ffaad6a51461037357600080fd5b8063b6b55f25146102eb578063b88d4fde146102fe578063c87b56dd1461031157600080fd5b80638832e6e3116100bd5780638832e6e3146102bd57806395d89b41146102d0578063a22cb465146102d857600080fd5b806370a08231146102895780637f9864f7146102aa57600080fd5b8063205c28781161013a57806342842e0e1161011457806342842e0e1461025057806342966c68146102635780636352211e1461027657600080fd5b8063205c28781461021757806323b872dd1461022a5780632e1a7d4d1461023d57600080fd5b8063075461721161016b57806307546172146101c4578063081812fc146101ef578063095ea7b31461020257600080fd5b806301ffc9a71461018757806306fdde03146101af575b600080fd5b61019a610195366004611860565b610386565b60405190151581526020015b60405180910390f35b6101b76103d8565b6040516101a6919061194a565b6007546101d7906001600160a01b031681565b6040516001600160a01b0390911681526020016101a6565b6101d76101fd36600461189a565b61046a565b6102156102103660046117df565b610504565b005b6102156102253660046117df565b61061a565b6102156102383660046116ff565b61072f565b61021561024b36600461189a565b6107b7565b61021561025e3660046116ff565b6107c4565b61021561027136600461189a565b6107df565b6101d761028436600461189a565b610863565b61029c6102973660046116b1565b6108ee565b6040519081526020016101a6565b6006546101d7906001600160a01b031681565b6102156102cb366004611809565b610988565b6101b76109de565b6102156102e63660046117a3565b6109ed565b6102156102f936600461189a565b6109fc565b61021561030c36600461173b565b610a06565b6101b761031f36600461189a565b610a94565b6102156103323660046116b1565b610b8a565b61019a6103453660046116cc565b6001600160a01b03918216600090815260056020908152604080832093909416825291909152205460ff1690565b6102156103813660046117df565b610c1f565b60006001600160e01b031982166380ac58cd60e01b14806103b757506001600160e01b03198216635b5e139f60e01b145b806103d257506301ffc9a760e01b6001600160e01b03198316145b92915050565b6060600080546103e7906119cc565b80601f0160208091040260200160405190810160405280929190818152602001828054610413906119cc565b80156104605780601f1061043557610100808354040283529160200191610460565b820191906000526020600020905b81548152906001019060200180831161044357829003601f168201915b5050505050905090565b6000818152600260205260408120546001600160a01b03166104e85760405162461bcd60e51b815260206004820152602c60248201527f4552433732313a20617070726f76656420717565727920666f72206e6f6e657860448201526b34b9ba32b73a103a37b5b2b760a11b60648201526084015b60405180910390fd5b506000908152600460205260409020546001600160a01b031690565b600061050f82610863565b9050806001600160a01b0316836001600160a01b0316141561057d5760405162461bcd60e51b815260206004820152602160248201527f4552433732313a20617070726f76616c20746f2063757272656e74206f776e656044820152603960f91b60648201526084016104df565b336001600160a01b038216148061059957506105998133610345565b61060b5760405162461bcd60e51b815260206004820152603860248201527f4552433732313a20617070726f76652063616c6c6572206973206e6f74206f7760448201527f6e6572206e6f7220617070726f76656420666f7220616c6c000000000000000060648201526084016104df565b6106158383610cd9565b505050565b6006546001600160a01b03166106605760405162461bcd60e51b815260206004820152600b60248201526a37379031b796ba37b5b2b760a91b60448201526064016104df565b61066a3382610d47565b6106b65760405162461bcd60e51b815260206004820152601660248201527f6e6f74206f776e6572206e6f7220617070726f7665640000000000000000000060448201526064016104df565b6106bf81610e3e565b600654604051632142170760e11b81523060048201526001600160a01b03848116602483015260448201849052909116906342842e0e90606401600060405180830381600087803b15801561071357600080fd5b505af1158015610727573d6000803e3d6000fd5b505050505050565b61073a335b82610d47565b6107ac5760405162461bcd60e51b815260206004820152603160248201527f4552433732313a207472616e736665722063616c6c6572206973206e6f74206f60448201527f776e6572206e6f7220617070726f76656400000000000000000000000000000060648201526084016104df565b610615838383610ed9565b6107c1338261061a565b50565b61061583838360405180602001604052806000815250610a06565b6107e833610734565b61085a5760405162461bcd60e51b815260206004820152603060248201527f4552433732314275726e61626c653a2063616c6c6572206973206e6f74206f7760448201527f6e6572206e6f7220617070726f7665640000000000000000000000000000000060648201526084016104df565b6107c181610e3e565b6000818152600260205260408120546001600160a01b0316806103d25760405162461bcd60e51b815260206004820152602960248201527f4552433732313a206f776e657220717565727920666f72206e6f6e657869737460448201527f656e7420746f6b656e000000000000000000000000000000000000000000000060648201526084016104df565b60006001600160a01b03821661096c5760405162461bcd60e51b815260206004820152602a60248201527f4552433732313a2062616c616e636520717565727920666f7220746865207a6560448201527f726f20616464726573730000000000000000000000000000000000000000000060648201526084016104df565b506001600160a01b031660009081526003602052604090205490565b6007546001600160a01b031633146109d35760405162461bcd60e51b815260206004820152600e60248201526d3737ba103a34329036b4b73a32b960911b60448201526064016104df565b61061583838361108d565b6060600180546103e7906119cc565b6109f833838361110b565b5050565b6107c13382610c1f565b610a103383610d47565b610a825760405162461bcd60e51b815260206004820152603160248201527f4552433732313a207472616e736665722063616c6c6572206973206e6f74206f60448201527f776e6572206e6f7220617070726f76656400000000000000000000000000000060648201526084016104df565b610a8e848484846111da565b50505050565b6000818152600260205260409020546060906001600160a01b0316610b215760405162461bcd60e51b815260206004820152602f60248201527f4552433732314d657461646174613a2055524920717565727920666f72206e6f60448201527f6e6578697374656e7420746f6b656e000000000000000000000000000000000060648201526084016104df565b6000610b3860408051602081019091526000815290565b90506000815111610b585760405180602001604052806000815250610b83565b80610b6284611258565b604051602001610b739291906118df565b6040516020818303038152906040525b9392505050565b6007546001600160a01b03163314610bd55760405162461bcd60e51b815260206004820152600e60248201526d3737ba103a34329036b4b73a32b960911b60448201526064016104df565b600780546001600160a01b0319166001600160a01b0383169081179091556040517f726b590ef91a8c76ad05bbe91a57ef84605276528f49cd47d787f558a4e755b690600090a250565b6006546001600160a01b0316610c655760405162461bcd60e51b815260206004820152600b60248201526a37379031b796ba37b5b2b760a91b60448201526064016104df565b600654604051632142170760e11b8152336004820152306024820152604481018390526001600160a01b03909116906342842e0e90606401600060405180830381600087803b158015610cb757600080fd5b505af1158015610ccb573d6000803e3d6000fd5b505050506109f8828261136e565b600081815260046020526040902080546001600160a01b0319166001600160a01b0384169081179091558190610d0e82610863565b6001600160a01b03167f8c5be1e5ebec7d5bd14f71427d1e84f3dd0314c0f7b2291e5b200ac8c7c3b92560405160405180910390a45050565b6000818152600260205260408120546001600160a01b0316610dc05760405162461bcd60e51b815260206004820152602c60248201527f4552433732313a206f70657261746f7220717565727920666f72206e6f6e657860448201526b34b9ba32b73a103a37b5b2b760a11b60648201526084016104df565b6000610dcb83610863565b9050806001600160a01b0316846001600160a01b03161480610e065750836001600160a01b0316610dfb8461046a565b6001600160a01b0316145b80610e3657506001600160a01b0380821660009081526005602090815260408083209388168352929052205460ff165b949350505050565b6000610e4982610863565b9050610e56600083610cd9565b6001600160a01b0381166000908152600360205260408120805460019290610e7f908490611989565b909155505060008281526002602052604080822080546001600160a01b0319169055518391906001600160a01b038416907fddf252ad1be2c89b69c2b068fc378daa952ba7f163c4a11628f55a4df523b3ef908390a45050565b826001600160a01b0316610eec82610863565b6001600160a01b031614610f685760405162461bcd60e51b815260206004820152602560248201527f4552433732313a207472616e736665722066726f6d20696e636f72726563742060448201527f6f776e657200000000000000000000000000000000000000000000000000000060648201526084016104df565b6001600160a01b038216610fca5760405162461bcd60e51b8152602060048201526024808201527f4552433732313a207472616e7366657220746f20746865207a65726f206164646044820152637265737360e01b60648201526084016104df565b610fd5600082610cd9565b6001600160a01b0383166000908152600360205260408120805460019290610ffe908490611989565b90915550506001600160a01b038216600090815260036020526040812080546001929061102c90849061195d565b909155505060008181526002602052604080822080546001600160a01b0319166001600160a01b0386811691821790925591518493918716917fddf252ad1be2c89b69c2b068fc378daa952ba7f163c4a11628f55a4df523b3ef91a4505050565b611097838361136e565b6110a460008484846114b0565b6106155760405162461bcd60e51b815260206004820152603260248201527f4552433732313a207472616e7366657220746f206e6f6e20455243373231526560448201527131b2b4bb32b91034b6b83632b6b2b73a32b960711b60648201526084016104df565b816001600160a01b0316836001600160a01b0316141561116d5760405162461bcd60e51b815260206004820152601960248201527f4552433732313a20617070726f766520746f2063616c6c65720000000000000060448201526064016104df565b6001600160a01b03838116600081815260056020908152604080832094871680845294825291829020805460ff191686151590811790915591519182527f17307eab39ab6107e8899845ad3d59bd9653f200f220920489ca2b5937696c31910160405180910390a3505050565b6111e5848484610ed9565b6111f1848484846114b0565b610a8e5760405162461bcd60e51b815260206004820152603260248201527f4552433732313a207472616e7366657220746f206e6f6e20455243373231526560448201527131b2b4bb32b91034b6b83632b6b2b73a32b960711b60648201526084016104df565b60608161127c5750506040805180820190915260018152600360fc1b602082015290565b8160005b81156112a6578061129081611a07565b915061129f9050600a83611975565b9150611280565b60008167ffffffffffffffff8111156112c1576112c1611a78565b6040519080825280601f01601f1916602001820160405280156112eb576020820181803683370190505b5090505b8415610e3657611300600183611989565b915061130d600a86611a22565b61131890603061195d565b60f81b81838151811061132d5761132d611a62565b60200101907effffffffffffffffffffffffffffffffffffffffffffffffffffffffffffff1916908160001a905350611367600a86611975565b94506112ef565b6001600160a01b0382166113c45760405162461bcd60e51b815260206004820181905260248201527f4552433732313a206d696e7420746f20746865207a65726f206164647265737360448201526064016104df565b6000818152600260205260409020546001600160a01b0316156114295760405162461bcd60e51b815260206004820152601c60248201527f4552433732313a20746f6b656e20616c7265616479206d696e7465640000000060448201526064016104df565b6001600160a01b038216600090815260036020526040812080546001929061145290849061195d565b909155505060008181526002602052604080822080546001600160a01b0319166001600160a01b03861690811790915590518392907fddf252ad1be2c89b69c2b068fc378daa952ba7f163c4a11628f55a4df523b3ef908290a45050565b60006001600160a01b0384163b156115fd57604051630a85bd0160e11b81526001600160a01b0385169063150b7a02906114f490339089908890889060040161190e565b602060405180830381600087803b15801561150e57600080fd5b505af192505050801561153e575060408051601f3d908101601f1916820190925261153b9181019061187d565b60015b6115e3573d80801561156c576040519150601f19603f3d011682016040523d82523d6000602084013e611571565b606091505b5080516115db5760405162461bcd60e51b815260206004820152603260248201527f4552433732313a207472616e7366657220746f206e6f6e20455243373231526560448201527131b2b4bb32b91034b6b83632b6b2b73a32b960711b60648201526084016104df565b805181602001fd5b6001600160e01b031916630a85bd0160e11b149050610e36565b506001949350505050565b80356001600160a01b038116811461161f57600080fd5b919050565b600082601f83011261163557600080fd5b813567ffffffffffffffff8082111561165057611650611a78565b604051601f8301601f19908116603f0116810190828211818310171561167857611678611a78565b8160405283815286602085880101111561169157600080fd5b836020870160208301376000602085830101528094505050505092915050565b6000602082840312156116c357600080fd5b610b8382611608565b600080604083850312156116df57600080fd5b6116e883611608565b91506116f660208401611608565b90509250929050565b60008060006060848603121561171457600080fd5b61171d84611608565b925061172b60208501611608565b9150604084013590509250925092565b6000806000806080858703121561175157600080fd5b61175a85611608565b935061176860208601611608565b925060408501359150606085013567ffffffffffffffff81111561178b57600080fd5b61179787828801611624565b91505092959194509250565b600080604083850312156117b657600080fd5b6117bf83611608565b9150602083013580151581146117d457600080fd5b809150509250929050565b600080604083850312156117f257600080fd5b6117fb83611608565b946020939093013593505050565b60008060006060848603121561181e57600080fd5b61182784611608565b925060208401359150604084013567ffffffffffffffff81111561184a57600080fd5b61185686828701611624565b9150509250925092565b60006020828403121561187257600080fd5b8135610b8381611a8e565b60006020828403121561188f57600080fd5b8151610b8381611a8e565b6000602082840312156118ac57600080fd5b5035919050565b600081518084526118cb8160208601602086016119a0565b601f01601f19169290920160200192915050565b600083516118f18184602088016119a0565b8351908301906119058183602088016119a0565b01949350505050565b60006001600160a01b0380871683528086166020840152508360408301526080606083015261194060808301846118b3565b9695505050505050565b602081526000610b8360208301846118b3565b6000821982111561197057611970611a36565b500190565b60008261198457611984611a4c565b500490565b60008282101561199b5761199b611a36565b500390565b60005b838110156119bb5781810151838201526020016119a3565b83811115610a8e5750506000910152565b600181811c908216806119e057607f821691505b60208210811415611a0157634e487b7160e01b600052602260045260246000fd5b50919050565b6000600019821415611a1b57611a1b611a36565b5060010190565b600082611a3157611a31611a4c565b500690565b634e487b7160e01b600052601160045260246000fd5b634e487b7160e01b600052601260045260246000fd5b634e487b7160e01b600052603260045260246000fd5b634e487b7160e01b600052604160045260246000fd5b6001600160e01b0319811681146107c157600080fdfea164736f6c6343000807000a",
  "linkReferences": {},
  "deployedLinkReferences": {}
}