{
  "_format": "hh-sol-artifact-1",
  "contractName": "Verifier",
  "sourceName": "contracts/Verifier.sol",
  "abi": [
    {
      "anonymous": false,
      "inputs": [
        {
          "indexed": true,
          "internalType": "address",
          "name": "previousOwner",
          "type": "address"
        },
        {
          "indexed": true,
          "internalType": "address",
          "name": "newOwner",
          "type": "address"
        }
      ],
      "name": "OwnershipTransferred",
      "type": "event"
    },
    {
      "anonymous": false,
      "inputs": [
        {
          "indexed": true,
          "internalType": "address",
          "name": "validator",
          "type": "address"
        }
      ],
      "name": "ValidatorAdded",
      "type": "event"
    },
    {
      "anonymous": false,
      "inputs": [
        {
          "indexed": true,
          "internalType": "address",
          "name": "validator",
          "type": "address"
        }
      ],
      "name": "ValidatorRemoved",
      "type": "event"
    },
    {
      "inputs": [],
      "name": "VALIDATOR_LIMIT",
      "outputs": [
        {
          "internalType": "uint8",
          "name": "",
          "type": "uint8"
        }
      ],
      "stateMutability": "view",
      "type": "function"
    },
    {
      "inputs": [
        {
          "internalType": "address[]",
          "name": "_validators",
          "type": "address[]"
        }
      ],
      "name": "addAll",
      "outputs": [],
      "stateMutability": "nonpayable",
      "type": "function"
    },
    {
      "inputs": [
        {
          "internalType": "uint256",
          "name": "offset",
          "type": "uint256"
        },
        {
          "internalType": "uint8",
          "name": "limit",
          "type": "uint8"
        }
      ],
      "name": "get",
      "outputs": [
        {
          "internalType": "uint256",
          "name": "count_",
          "type": "uint256"
        },
        {
          "internalType": "address[]",
          "name": "validators_",
          "type": "address[]"
        }
      ],
      "stateMutability": "view",
      "type": "function"
    },
    {
      "inputs": [],
      "name": "owner",
      "outputs": [
        {
          "internalType": "address",
          "name": "",
          "type": "address"
        }
      ],
      "stateMutability": "view",
      "type": "function"
    },
    {
      "inputs": [
        {
          "internalType": "address[]",
          "name": "_validators",
          "type": "address[]"
        }
      ],
      "name": "removeAll",
      "outputs": [],
      "stateMutability": "nonpayable",
      "type": "function"
    },
    {
      "inputs": [],
      "name": "renounceOwnership",
      "outputs": [],
      "stateMutability": "nonpayable",
      "type": "function"
    },
    {
      "inputs": [],
      "name": "size",
      "outputs": [
        {
          "internalType": "uint256",
          "name": "",
          "type": "uint256"
        }
      ],
      "stateMutability": "view",
      "type": "function"
    },
    {
      "inputs": [
        {
          "internalType": "address",
          "name": "newOwner",
          "type": "address"
        }
      ],
      "name": "transferOwnership",
      "outputs": [],
      "stateMutability": "nonpayable",
      "type": "function"
    },
    {
      "inputs": [
        {
          "internalType": "uint256",
          "name": "",
          "type": "uint256"
        }
      ],
      "name": "validators",
      "outputs": [
        {
          "internalType": "address",
          "name": "",
          "type": "address"
        }
      ],
      "stateMutability": "view",
      "type": "function"
    },
    {
      "inputs": [
        {
          "internalType": "bytes32",
          "name": "_key",
          "type": "bytes32"
        },
        {
          "internalType": "bytes",
          "name": "_signatures",
          "type": "bytes"
        }
      ],
      "name": "verify",
      "outputs": [
        {
          "internalType": "bool",
          "name": "isValid_",
          "type": "bool"
        },
        {
          "internalType": "address[]",
          "name": "validators_",
          "type": "address[]"
        }
      ],
      "stateMutability": "view",
      "type": "function"
    }
  ],
  "bytecode": "0x608060405234801561001057600080fd5b5061001a3361001f565b61006f565b600080546001600160a01b038381166001600160a01b0319831681178455604051919092169283917f8be0079c531659141344cd1fd0a4f28419497f9722a3daafe3b4186f6b6457e09190a35050565b610eed8061007e6000396000f3fe608060405234801561001057600080fd5b50600436106100be5760003560e01c8063715018a611610076578063949d225d1161005b578063949d225d14610173578063bf0cde3914610184578063f2fde38b146101a557600080fd5b8063715018a61461015a5780638da5cb5b1461016257600080fd5b806335aa2e44116100a757806335aa2e44146101025780633e5933fe1461012d578063539152ec1461014057600080fd5b806322063ef9146100c3578063258ae582146100d8575b600080fd5b6100d66100d1366004610b62565b6101b8565b005b6100eb6100e6366004610c16565b6103cf565b6040516100f9929190610d48565b60405180910390f35b610115610110366004610cb5565b6105b5565b6040516001600160a01b0390911681526020016100f9565b6100d661013b366004610b62565b6105df565b610148603281565b60405160ff90911681526020016100f9565b6100d66107c1565b6000546001600160a01b0316610115565b6001546040519081526020016100f9565b610197610192366004610cce565b610827565b6040516100f9929190610d6b565b6100d66101b3366004610b47565b610917565b6000546001600160a01b031633146102175760405162461bcd60e51b815260206004820181905260248201527f4f776e61626c653a2063616c6c6572206973206e6f7420746865206f776e657260448201526064015b60405180910390fd5b805160015460329161022891610db5565b106102755760405162461bcd60e51b815260206004820152601760248201527f686974206d61782076616c696461746f72206c696d6974000000000000000000604482015260640161020e565b6000805b82518110156103ca5782818151811061029457610294610eb4565b6020026020010151915060006001600160a01b0316826001600160a01b031614156103015760405162461bcd60e51b815260206004820152601160248201527f696e76616c69642076616c696461746f72000000000000000000000000000000604482015260640161020e565b6001600160a01b03821660009081526002602052604090205460ff1615610327576103b8565b6001805480820182557fb10e2d527612073b26eecdfd717e6a320cf44b4afac2b0732d9fcbe2b7fa0cf60180546001600160a01b0319166001600160a01b0385169081179091559054600082815260026020526040808220805460ff191660ff9094169390931790925590517fe366c1c0452ed8eec96861e9e54141ebff23c9ec89fe27b996b45f5ec38849879190a25b806103c281610e6d565b915050610279565b505050565b600060606000604184516103e39190610df2565b90506103ed610b0c565b6000808367ffffffffffffffff81111561040957610409610eca565b604051908082528060200260200182016040528015610432578160200160208202803683370190505b50945060005b8481101561058b576104558989610450846041610e14565b6109f9565b6001600160a01b03811660009081526002602052604090205490935060ff169150816104c35760405162461bcd60e51b815260206004820152601160248201527f696e76616c69642076616c696461746f72000000000000000000000000000000604482015260640161020e565b838260ff16603281106104d8576104d8610eb4565b60200201511561052a5760405162461bcd60e51b815260206004820152601360248201527f6475706c69636174652076616c696461746f7200000000000000000000000000604482015260640161020e565b6001848360ff166032811061054157610541610eb4565b911515602090920201528551839087908390811061056157610561610eb4565b6001600160a01b03909216602092830291909101909101528061058381610e6d565b915050610438565b5060015461059a906002610e14565b85516105a7906003610e14565b119550505050509250929050565b600181815481106105c557600080fd5b6000918252602090912001546001600160a01b0316905081565b6000546001600160a01b031633146106395760405162461bcd60e51b815260206004820181905260248201527f4f776e61626c653a2063616c6c6572206973206e6f7420746865206f776e6572604482015260640161020e565b60008080805b84518110156107ba5784818151811061065a5761065a610eb4565b6020908102919091018101516001600160a01b0381166000908152600290925260409091205490945060ff16915081610692576107a8565b600180546106a1908290610e33565b815481106106b1576106b1610eb4565b6000918252602090912001546001600160a01b031692508260016106d58185610e4a565b60ff16815481106106e8576106e8610eb4565b600091825260208083209190910180546001600160a01b0319166001600160a01b039485161790559185168152600290915260409020805460ff191660ff8416179055600180548061073c5761073c610e9e565b60008281526020808220830160001990810180546001600160a01b03191690559092019092556001600160a01b03861680835260029091526040808320805460ff191690555190917fe1434e25d6611e0db941968fdc97811c982ac1602e951637d206f5fdda9dd8f191a25b806107b281610e6d565b91505061063f565b5050505050565b6000546001600160a01b0316331461081b5760405162461bcd60e51b815260206004820181905260248201527f4f776e61626c653a2063616c6c6572206973206e6f7420746865206f776e6572604482015260640161020e565b6108256000610abc565b565b600154606060ff831667ffffffffffffffff81111561084857610848610eca565b604051908082528060200260200182016040528015610871578160200160208202803683370190505b50905060005b8360ff1681101561090f5760015461088f8287610db5565b106108995761090f565b60016108a58287610db5565b815481106108b5576108b5610eb4565b9060005260206000200160009054906101000a90046001600160a01b03168282815181106108e5576108e5610eb4565b6001600160a01b03909216602092830291909101909101528061090781610e6d565b915050610877565b509250929050565b6000546001600160a01b031633146109715760405162461bcd60e51b815260206004820181905260248201527f4f776e61626c653a2063616c6c6572206973206e6f7420746865206f776e6572604482015260640161020e565b6001600160a01b0381166109ed5760405162461bcd60e51b815260206004820152602660248201527f4f776e61626c653a206e6577206f776e657220697320746865207a65726f206160448201527f6464726573730000000000000000000000000000000000000000000000000000606482015260840161020e565b6109f681610abc565b50565b8181016020810151604082015160609092015160009290831a601b811015610a2957610a26601b82610dcd565b90505b8060ff16601b14158015610a4157508060ff16601c14155b15610a525760009350505050610ab5565b60408051600081526020810180835289905260ff831691810191909152606081018490526080810183905260019060a0016020604051602081039080840390855afa158015610aa5573d6000803e3d6000fd5b5050506020604051035193505050505b9392505050565b600080546001600160a01b038381166001600160a01b0319831681178455604051919092169283917f8be0079c531659141344cd1fd0a4f28419497f9722a3daafe3b4186f6b6457e09190a35050565b6040518061064001604052806032906020820280368337509192915050565b80356001600160a01b0381168114610b4257600080fd5b919050565b600060208284031215610b5957600080fd5b610ab582610b2b565b60006020808385031215610b7557600080fd5b823567ffffffffffffffff80821115610b8d57600080fd5b818501915085601f830112610ba157600080fd5b813581811115610bb357610bb3610eca565b8060051b9150610bc4848301610d84565b8181528481019084860184860187018a1015610bdf57600080fd5b600095505b83861015610c0957610bf581610b2b565b835260019590950194918601918601610be4565b5098975050505050505050565b60008060408385031215610c2957600080fd5b8235915060208084013567ffffffffffffffff80821115610c4957600080fd5b818601915086601f830112610c5d57600080fd5b813581811115610c6f57610c6f610eca565b610c81601f8201601f19168501610d84565b91508082528784828501011115610c9757600080fd5b80848401858401376000848284010152508093505050509250929050565b600060208284031215610cc757600080fd5b5035919050565b60008060408385031215610ce157600080fd5b82359150602083013560ff81168114610cf957600080fd5b809150509250929050565b600081518084526020808501945080840160005b83811015610d3d5781516001600160a01b031687529582019590820190600101610d18565b509495945050505050565b8215158152604060208201526000610d636040830184610d04565b949350505050565b828152604060208201526000610d636040830184610d04565b604051601f8201601f1916810167ffffffffffffffff81118282101715610dad57610dad610eca565b604052919050565b60008219821115610dc857610dc8610e88565b500190565b600060ff821660ff84168060ff03821115610dea57610dea610e88565b019392505050565b600082610e0f57634e487b7160e01b600052601260045260246000fd5b500490565b6000816000190483118215151615610e2e57610e2e610e88565b500290565b600082821015610e4557610e45610e88565b500390565b600060ff821660ff841680821015610e6457610e64610e88565b90039392505050565b6000600019821415610e8157610e81610e88565b5060010190565b634e487b7160e01b600052601160045260246000fd5b634e487b7160e01b600052603160045260246000fd5b634e487b7160e01b600052603260045260246000fd5b634e487b7160e01b600052604160045260246000fdfea164736f6c6343000807000a",
  "linkReferences": {},
  "deployedLinkReferences": {}
}