{
  "_format": "hh-sol-artifact-1",
  "contractName": "Swap",
  "sourceName": "contracts/Swap.sol",
  "abi": [
    {
      "inputs": [
        {
          "internalType": "contract IERC20[]",
          "name": "_pooledTokens",
          "type": "address[]"
        },
        {
          "internalType": "uint8[]",
          "name": "decimals",
          "type": "uint8[]"
        },
        {
          "internalType": "string",
          "name": "lpTokenName",
          "type": "string"
        },
        {
          "internalType": "string",
          "name": "lpTokenSymbol",
          "type": "string"
        },
        {
          "internalType": "uint256",
          "name": "_a",
          "type": "uint256"
        },
        {
          "internalType": "uint256",
          "name": "_fee",
          "type": "uint256"
        },
        {
          "internalType": "uint256",
          "name": "_adminFee",
          "type": "uint256"
        },
        {
          "internalType": "uint256",
          "name": "_depositFee",
          "type": "uint256"
        },
        {
          "internalType": "uint256",
          "name": "_withdrawFee",
          "type": "uint256"
        },
        {
          "internalType": "address",
          "name": "_devaddr",
          "type": "address"
        }
      ],
      "stateMutability": "nonpayable",
      "type": "constructor"
    },
    {
      "anonymous": false,
      "inputs": [
        {
          "indexed": true,
          "internalType": "address",
          "name": "provider",
          "type": "address"
        },
        {
          "indexed": false,
          "internalType": "uint256[]",
          "name": "tokenAmounts",
          "type": "uint256[]"
        },
        {
          "indexed": false,
          "internalType": "uint256[]",
          "name": "fees",
          "type": "uint256[]"
        },
        {
          "indexed": false,
          "internalType": "uint256",
          "name": "invariant",
          "type": "uint256"
        },
        {
          "indexed": false,
          "internalType": "uint256",
          "name": "lpTokenSupply",
          "type": "uint256"
        }
      ],
      "name": "AddLiquidity",
      "type": "event"
    },
    {
      "anonymous": false,
      "inputs": [
        {
          "indexed": false,
          "internalType": "uint256",
          "name": "newAdminFee",
          "type": "uint256"
        }
      ],
      "name": "NewAdminFee",
      "type": "event"
    },
    {
      "anonymous": false,
      "inputs": [
        {
          "indexed": false,
          "internalType": "uint256",
          "name": "newDepositFee",
          "type": "uint256"
        }
      ],
      "name": "NewDepositFee",
      "type": "event"
    },
    {
      "anonymous": false,
      "inputs": [
        {
          "indexed": false,
          "internalType": "uint256",
          "name": "newSwapFee",
          "type": "uint256"
        }
      ],
      "name": "NewSwapFee",
      "type": "event"
    },
    {
      "anonymous": false,
      "inputs": [
        {
          "indexed": false,
          "internalType": "uint256",
          "name": "newWithdrawFee",
          "type": "uint256"
        }
      ],
      "name": "NewWithdrawFee",
      "type": "event"
    },
    {
      "anonymous": false,
      "inputs": [
        {
          "indexed": true,
          "internalType": "address",
          "name": "previousOwner",
          "type": "address"
        },
        {
          "indexed": true,
          "internalType": "address",
          "name": "newOwner",
          "type": "address"
        }
      ],
      "name": "OwnershipTransferred",
      "type": "event"
    },
    {
      "anonymous": false,
      "inputs": [
        {
          "indexed": false,
          "internalType": "address",
          "name": "account",
          "type": "address"
        }
      ],
      "name": "Paused",
      "type": "event"
    },
    {
      "anonymous": false,
      "inputs": [
        {
          "indexed": false,
          "internalType": "uint256",
          "name": "oldA",
          "type": "uint256"
        },
        {
          "indexed": false,
          "internalType": "uint256",
          "name": "newA",
          "type": "uint256"
        },
        {
          "indexed": false,
          "internalType": "uint256",
          "name": "initialTime",
          "type": "uint256"
        },
        {
          "indexed": false,
          "internalType": "uint256",
          "name": "futureTime",
          "type": "uint256"
        }
      ],
      "name": "RampA",
      "type": "event"
    },
    {
      "anonymous": false,
      "inputs": [
        {
          "indexed": true,
          "internalType": "address",
          "name": "provider",
          "type": "address"
        },
        {
          "indexed": false,
          "internalType": "uint256[]",
          "name": "tokenAmounts",
          "type": "uint256[]"
        },
        {
          "indexed": false,
          "internalType": "uint256",
          "name": "lpTokenSupply",
          "type": "uint256"
        }
      ],
      "name": "RemoveLiquidity",
      "type": "event"
    },
    {
      "anonymous": false,
      "inputs": [
        {
          "indexed": true,
          "internalType": "address",
          "name": "provider",
          "type": "address"
        },
        {
          "indexed": false,
          "internalType": "uint256[]",
          "name": "tokenAmounts",
          "type": "uint256[]"
        },
        {
          "indexed": false,
          "internalType": "uint256[]",
          "name": "fees",
          "type": "uint256[]"
        },
        {
          "indexed": false,
          "internalType": "uint256",
          "name": "invariant",
          "type": "uint256"
        },
        {
          "indexed": false,
          "internalType": "uint256",
          "name": "lpTokenSupply",
          "type": "uint256"
        }
      ],
      "name": "RemoveLiquidityImbalance",
      "type": "event"
    },
    {
      "anonymous": false,
      "inputs": [
        {
          "indexed": true,
          "internalType": "address",
          "name": "provider",
          "type": "address"
        },
        {
          "indexed": false,
          "internalType": "uint256",
          "name": "lpTokenAmount",
          "type": "uint256"
        },
        {
          "indexed": false,
          "internalType": "uint256",
          "name": "lpTokenSupply",
          "type": "uint256"
        },
        {
          "indexed": false,
          "internalType": "uint256",
          "name": "boughtId",
          "type": "uint256"
        },
        {
          "indexed": false,
          "internalType": "uint256",
          "name": "tokensBought",
          "type": "uint256"
        }
      ],
      "name": "RemoveLiquidityOne",
      "type": "event"
    },
    {
      "anonymous": false,
      "inputs": [
        {
          "indexed": false,
          "internalType": "uint256",
          "name": "currentA",
          "type": "uint256"
        },
        {
          "indexed": false,
          "internalType": "uint256",
          "name": "time",
          "type": "uint256"
        }
      ],
      "name": "StopRampA",
      "type": "event"
    },
    {
      "anonymous": false,
      "inputs": [
        {
          "indexed": true,
          "internalType": "address",
          "name": "buyer",
          "type": "address"
        },
        {
          "indexed": false,
          "internalType": "uint256",
          "name": "tokensSold",
          "type": "uint256"
        },
        {
          "indexed": false,
          "internalType": "uint256",
          "name": "tokensBought",
          "type": "uint256"
        },
        {
          "indexed": false,
          "internalType": "uint128",
          "name": "soldId",
          "type": "uint128"
        },
        {
          "indexed": false,
          "internalType": "uint128",
          "name": "boughtId",
          "type": "uint128"
        }
      ],
      "name": "TokenSwap",
      "type": "event"
    },
    {
      "anonymous": false,
      "inputs": [
        {
          "indexed": false,
          "internalType": "address",
          "name": "account",
          "type": "address"
        }
      ],
      "name": "Unpaused",
      "type": "event"
    },
    {
      "inputs": [
        {
          "internalType": "uint256[]",
          "name": "amounts",
          "type": "uint256[]"
        },
        {
          "internalType": "uint256",
          "name": "minToMint",
          "type": "uint256"
        },
        {
          "internalType": "uint256",
          "name": "deadline",
          "type": "uint256"
        }
      ],
      "name": "addLiquidity",
      "outputs": [
        {
          "internalType": "uint256",
          "name": "",
          "type": "uint256"
        }
      ],
      "stateMutability": "nonpayable",
      "type": "function"
    },
    {
      "inputs": [
        {
          "internalType": "address",
          "name": "user",
          "type": "address"
        }
      ],
      "name": "calculateCurrentWithdrawFee",
      "outputs": [
        {
          "internalType": "uint256",
          "name": "",
          "type": "uint256"
        }
      ],
      "stateMutability": "view",
      "type": "function"
    },
    {
      "inputs": [
        {
          "internalType": "address",
          "name": "account",
          "type": "address"
        },
        {
          "internalType": "uint256",
          "name": "amount",
          "type": "uint256"
        }
      ],
      "name": "calculateRemoveLiquidity",
      "outputs": [
        {
          "internalType": "uint256[]",
          "name": "",
          "type": "uint256[]"
        }
      ],
      "stateMutability": "view",
      "type": "function"
    },
    {
      "inputs": [
        {
          "internalType": "address",
          "name": "account",
          "type": "address"
        },
        {
          "internalType": "uint256",
          "name": "tokenAmount",
          "type": "uint256"
        },
        {
          "internalType": "uint8",
          "name": "tokenIndex",
          "type": "uint8"
        }
      ],
      "name": "calculateRemoveLiquidityOneToken",
      "outputs": [
        {
          "internalType": "uint256",
          "name": "availableTokenAmount",
          "type": "uint256"
        }
      ],
      "stateMutability": "view",
      "type": "function"
    },
    {
      "inputs": [
        {
          "internalType": "uint8",
          "name": "tokenIndexFrom",
          "type": "uint8"
        },
        {
          "internalType": "uint8",
          "name": "tokenIndexTo",
          "type": "uint8"
        },
        {
          "internalType": "uint256",
          "name": "dx",
          "type": "uint256"
        }
      ],
      "name": "calculateSwap",
      "outputs": [
        {
          "internalType": "uint256",
          "name": "",
          "type": "uint256"
        }
      ],
      "stateMutability": "view",
      "type": "function"
    },
    {
      "inputs": [
        {
          "internalType": "address",
          "name": "account",
          "type": "address"
        },
        {
          "internalType": "uint256[]",
          "name": "amounts",
          "type": "uint256[]"
        },
        {
          "internalType": "bool",
          "name": "deposit",
          "type": "bool"
        }
      ],
      "name": "calculateTokenAmount",
      "outputs": [
        {
          "internalType": "uint256",
          "name": "",
          "type": "uint256"
        }
      ],
      "stateMutability": "view",
      "type": "function"
    },
    {
      "inputs": [],
      "name": "getA",
      "outputs": [
        {
          "internalType": "uint256",
          "name": "",
          "type": "uint256"
        }
      ],
      "stateMutability": "view",
      "type": "function"
    },
    {
      "inputs": [],
      "name": "getAPrecise",
      "outputs": [
        {
          "internalType": "uint256",
          "name": "",
          "type": "uint256"
        }
      ],
      "stateMutability": "view",
      "type": "function"
    },
    {
      "inputs": [
        {
          "internalType": "uint256",
          "name": "index",
          "type": "uint256"
        }
      ],
      "name": "getAdminBalance",
      "outputs": [
        {
          "internalType": "uint256",
          "name": "",
          "type": "uint256"
        }
      ],
      "stateMutability": "view",
      "type": "function"
    },
    {
      "inputs": [
        {
          "internalType": "address",
          "name": "user",
          "type": "address"
        }
      ],
      "name": "getDepositTimestamp",
      "outputs": [
        {
          "internalType": "uint256",
          "name": "",
          "type": "uint256"
        }
      ],
      "stateMutability": "view",
      "type": "function"
    },
    {
      "inputs": [
        {
          "internalType": "uint8",
          "name": "index",
          "type": "uint8"
        }
      ],
      "name": "getToken",
      "outputs": [
        {
          "internalType": "contract IERC20",
          "name": "",
          "type": "address"
        }
      ],
      "stateMutability": "view",
      "type": "function"
    },
    {
      "inputs": [
        {
          "internalType": "uint8",
          "name": "index",
          "type": "uint8"
        }
      ],
      "name": "getTokenBalance",
      "outputs": [
        {
          "internalType": "uint256",
          "name": "",
          "type": "uint256"
        }
      ],
      "stateMutability": "view",
      "type": "function"
    },
    {
      "inputs": [
        {
          "internalType": "address",
          "name": "tokenAddress",
          "type": "address"
        }
      ],
      "name": "getTokenIndex",
      "outputs": [
        {
          "internalType": "uint8",
          "name": "",
          "type": "uint8"
        }
      ],
      "stateMutability": "view",
      "type": "function"
    },
    {
      "inputs": [],
      "name": "getVirtualPrice",
      "outputs": [
        {
          "internalType": "uint256",
          "name": "",
          "type": "uint256"
        }
      ],
      "stateMutability": "view",
      "type": "function"
    },
    {
      "inputs": [],
      "name": "owner",
      "outputs": [
        {
          "internalType": "address",
          "name": "",
          "type": "address"
        }
      ],
      "stateMutability": "view",
      "type": "function"
    },
    {
      "inputs": [],
      "name": "pause",
      "outputs": [],
      "stateMutability": "nonpayable",
      "type": "function"
    },
    {
      "inputs": [],
      "name": "paused",
      "outputs": [
        {
          "internalType": "bool",
          "name": "",
          "type": "bool"
        }
      ],
      "stateMutability": "view",
      "type": "function"
    },
    {
      "inputs": [
        {
          "internalType": "uint256",
          "name": "futureA",
          "type": "uint256"
        },
        {
          "internalType": "uint256",
          "name": "futureTime",
          "type": "uint256"
        }
      ],
      "name": "rampA",
      "outputs": [],
      "stateMutability": "nonpayable",
      "type": "function"
    },
    {
      "inputs": [
        {
          "internalType": "uint256",
          "name": "amount",
          "type": "uint256"
        },
        {
          "internalType": "uint256[]",
          "name": "minAmounts",
          "type": "uint256[]"
        },
        {
          "internalType": "uint256",
          "name": "deadline",
          "type": "uint256"
        }
      ],
      "name": "removeLiquidity",
      "outputs": [
        {
          "internalType": "uint256[]",
          "name": "",
          "type": "uint256[]"
        }
      ],
      "stateMutability": "nonpayable",
      "type": "function"
    },
    {
      "inputs": [
        {
          "internalType": "uint256[]",
          "name": "amounts",
          "type": "uint256[]"
        },
        {
          "internalType": "uint256",
          "name": "maxBurnAmount",
          "type": "uint256"
        },
        {
          "internalType": "uint256",
          "name": "deadline",
          "type": "uint256"
        }
      ],
      "name": "removeLiquidityImbalance",
      "outputs": [
        {
          "internalType": "uint256",
          "name": "",
          "type": "uint256"
        }
      ],
      "stateMutability": "nonpayable",
      "type": "function"
    },
    {
      "inputs": [
        {
          "internalType": "uint256",
          "name": "tokenAmount",
          "type": "uint256"
        },
        {
          "internalType": "uint8",
          "name": "tokenIndex",
          "type": "uint8"
        },
        {
          "internalType": "uint256",
          "name": "minAmount",
          "type": "uint256"
        },
        {
          "internalType": "uint256",
          "name": "deadline",
          "type": "uint256"
        }
      ],
      "name": "removeLiquidityOneToken",
      "outputs": [
        {
          "internalType": "uint256",
          "name": "",
          "type": "uint256"
        }
      ],
      "stateMutability": "nonpayable",
      "type": "function"
    },
    {
      "inputs": [],
      "name": "renounceOwnership",
      "outputs": [],
      "stateMutability": "nonpayable",
      "type": "function"
    },
    {
      "inputs": [
        {
          "internalType": "uint256",
          "name": "newAdminFee",
          "type": "uint256"
        }
      ],
      "name": "setAdminFee",
      "outputs": [],
      "stateMutability": "nonpayable",
      "type": "function"
    },
    {
      "inputs": [
        {
          "internalType": "uint256",
          "name": "newDepositFee",
          "type": "uint256"
        }
      ],
      "name": "setDefaultDepositFee",
      "outputs": [],
      "stateMutability": "nonpayable",
      "type": "function"
    },
    {
      "inputs": [
        {
          "internalType": "uint256",
          "name": "newWithdrawFee",
          "type": "uint256"
        }
      ],
      "name": "setDefaultWithdrawFee",
      "outputs": [],
      "stateMutability": "nonpayable",
      "type": "function"
    },
    {
      "inputs": [
        {
          "internalType": "address",
          "name": "_devaddr",
          "type": "address"
        }
      ],
      "name": "setDevAddress",
      "outputs": [],
      "stateMutability": "nonpayable",
      "type": "function"
    },
    {
      "inputs": [
        {
          "internalType": "uint256",
          "name": "newSwapFee",
          "type": "uint256"
        }
      ],
      "name": "setSwapFee",
      "outputs": [],
      "stateMutability": "nonpayable",
      "type": "function"
    },
    {
      "inputs": [],
      "name": "stopRampA",
      "outputs": [],
      "stateMutability": "nonpayable",
      "type": "function"
    },
    {
      "inputs": [
        {
          "internalType": "uint8",
          "name": "tokenIndexFrom",
          "type": "uint8"
        },
        {
          "internalType": "uint8",
          "name": "tokenIndexTo",
          "type": "uint8"
        },
        {
          "internalType": "uint256",
          "name": "dx",
          "type": "uint256"
        },
        {
          "internalType": "uint256",
          "name": "minDy",
          "type": "uint256"
        },
        {
          "internalType": "uint256",
          "name": "deadline",
          "type": "uint256"
        }
      ],
      "name": "swap",
      "outputs": [
        {
          "internalType": "uint256",
          "name": "",
          "type": "uint256"
        }
      ],
      "stateMutability": "nonpayable",
      "type": "function"
    },
    {
      "inputs": [],
      "name": "swapStorage",
      "outputs": [
        {
          "internalType": "uint256",
          "name": "initialA",
          "type": "uint256"
        },
        {
          "internalType": "uint256",
          "name": "futureA",
          "type": "uint256"
        },
        {
          "internalType": "uint256",
          "name": "initialATime",
          "type": "uint256"
        },
        {
          "internalType": "uint256",
          "name": "futureATime",
          "type": "uint256"
        },
        {
          "internalType": "uint256",
          "name": "swapFee",
          "type": "uint256"
        },
        {
          "internalType": "uint256",
          "name": "adminFee",
          "type": "uint256"
        },
        {
          "internalType": "uint256",
          "name": "defaultDepositFee",
          "type": "uint256"
        },
        {
          "internalType": "uint256",
          "name": "defaultWithdrawFee",
          "type": "uint256"
        },
        {
          "internalType": "address",
          "name": "devaddr",
          "type": "address"
        },
        {
          "internalType": "contract LPToken",
          "name": "lpToken",
          "type": "address"
        }
      ],
      "stateMutability": "view",
      "type": "function"
    },
    {
      "inputs": [
        {
          "internalType": "address",
          "name": "newOwner",
          "type": "address"
        }
      ],
      "name": "transferOwnership",
      "outputs": [],
      "stateMutability": "nonpayable",
      "type": "function"
    },
    {
      "inputs": [],
      "name": "unpause",
      "outputs": [],
      "stateMutability": "nonpayable",
      "type": "function"
    },
    {
      "inputs": [
        {
          "internalType": "address",
          "name": "recipient",
          "type": "address"
        },
        {
          "internalType": "uint256",
          "name": "transferAmount",
          "type": "uint256"
        }
      ],
      "name": "updateUserWithdrawFee",
      "outputs": [],
      "stateMutability": "nonpayable",
      "type": "function"
    },
    {
      "inputs": [],
      "name": "withdrawAdminFees",
      "outputs": [],
      "stateMutability": "nonpayable",
      "type": "function"
    }
  ],
  "bytecode": "0x60806040523480156200001157600080fd5b506040516200428338038062004283833981016040819052620000349162000a4d565b6200003f336200077b565b6000805460ff60a01b1916905560018080558a5111620000a65760405162461bcd60e51b815260206004820152601960248201527f5f706f6f6c6564546f6b656e732e6c656e677468203c3d20310000000000000060448201526064015b60405180910390fd5b60208a511115620000fa5760405162461bcd60e51b815260206004820152601960248201527f5f706f6f6c6564546f6b656e732e6c656e677468203e2033320000000000000060448201526064016200009d565b88518a51146200014d5760405162461bcd60e51b815260206004820152601f60248201527f5f706f6f6c6564546f6b656e7320646563696d616c73206d69736d617463680060448201526064016200009d565b600089516001600160401b038111156200016b576200016b62000dd2565b60405190808252806020026020018201604052801562000195578160200160208202803683370190505b50905060005b8b518160ff161015620004725760ff8116156200029257601160008d8360ff1681518110620001ce57620001ce62000dbc565b6020908102919091018101516001600160a01b031682528101919091526040016000205460ff161580156200025157508b8160ff168151811062000216576200021662000dbc565b60200260200101516001600160a01b03168c6000815181106200023d576200023d62000dbc565b60200260200101516001600160a01b031614155b620002925760405162461bcd60e51b815260206004820152601060248201526f4475706c696361746520746f6b656e7360801b60448201526064016200009d565b60006001600160a01b03168c8260ff1681518110620002b557620002b562000dbc565b60200260200101516001600160a01b03161415620003165760405162461bcd60e51b815260206004820152601d60248201527f546865203020616464726573732069736e277420616e204552432d323000000060448201526064016200009d565b601260ff168b8260ff168151811062000333576200033362000dbc565b602002602001015160ff1611156200038e5760405162461bcd60e51b815260206004820152601a60248201527f546f6b656e20646563696d616c732065786365656473206d617800000000000060448201526064016200009d565b620003ce8b8260ff1681518110620003aa57620003aa62000dbc565b602002602001015160ff16601260ff16620007cb60201b6200199c1790919060201c565b620003db90600a62000c58565b828260ff1681518110620003f357620003f362000dbc565b60200260200101818152505080601160008e8460ff16815181106200041c576200041c62000dbc565b60200260200101516001600160a01b03166001600160a01b0316815260200190815260200160002060006101000a81548160ff021916908360ff1602179055508080620004699062000d83565b9150506200019b565b50620f42408710620004bc5760405162461bcd60e51b81526020600482015260126024820152715f612065786365656473206d6178696d756d60701b60448201526064016200009d565b6305f5e1008610620005115760405162461bcd60e51b815260206004820152601460248201527f5f6665652065786365656473206d6178696d756d00000000000000000000000060448201526064016200009d565b6402540be4008510620005675760405162461bcd60e51b815260206004820152601960248201527f5f61646d696e4665652065786365656473206d6178696d756d0000000000000060448201526064016200009d565b6305f5e1008310620005bc5760405162461bcd60e51b815260206004820152601c60248201527f5f77697468647261774665652065786365656473206d6178696d756d0000000060448201526064016200009d565b6305f5e1008410620006115760405162461bcd60e51b815260206004820152601b60248201527f5f6465706f7369744665652065786365656473206d6178696d756d000000000060448201526064016200009d565b888860126040516200062390620007f0565b620006319392919062000b79565b604051809103906000f0801580156200064e573d6000803e3d6000fd5b50600b80546001600160a01b0319166001600160a01b03929092169190911790558a516200068490600c9060208e0190620007fe565b5080516200069a90600d90602084019062000868565b508a516001600160401b03811115620006b757620006b762000dd2565b604051908082528060200260200182016040528015620006e1578160200160208202803683370190505b508051620006f891600e9160209091019062000868565b5062000714606488620007e260201b620019a81790919060201c565b60025562000730876064620007e2602090811b620019a817901c565b6003555060006004819055600555600694909455600792909255600855600955600a80546001600160a01b0319166001600160a01b039092169190911790555062000e019350505050565b600080546001600160a01b038381166001600160a01b0319831681178455604051919092169283917f8be0079c531659141344cd1fd0a4f28419497f9722a3daafe3b4186f6b6457e09190a35050565b6000620007d9828462000d36565b90505b92915050565b6000620007d9828462000d14565b6113398062002f4a83390190565b82805482825590600052602060002090810192821562000856579160200282015b828111156200085657825182546001600160a01b0319166001600160a01b039091161782556020909201916001909101906200081f565b5062000864929150620008a6565b5090565b82805482825590600052602060002090810192821562000856579160200282015b828111156200085657825182559160200191906001019062000889565b5b80821115620008645760008155600101620008a7565b8051620008ca8162000de8565b919050565b600082601f830112620008e157600080fd5b81516020620008fa620008f48362000be9565b62000bb6565b80838252828201915082860187848660051b89010111156200091b57600080fd5b60005b8581101562000947578151620009348162000de8565b845292840192908401906001016200091e565b5090979650505050505050565b600082601f8301126200096657600080fd5b8151602062000979620008f48362000be9565b80838252828201915082860187848660051b89010111156200099a57600080fd5b6000805b86811015620009cb57825160ff81168114620009b8578283fd5b855293850193918501916001016200099e565b509198975050505050505050565b600082601f830112620009eb57600080fd5b81516001600160401b0381111562000a075762000a0762000dd2565b62000a1c601f8201601f191660200162000bb6565b81815284602083860101111562000a3257600080fd5b62000a4582602083016020870162000d50565b949350505050565b6000806000806000806000806000806101408b8d03121562000a6e57600080fd5b8a516001600160401b038082111562000a8657600080fd5b62000a948e838f01620008cf565b9b5060208d015191508082111562000aab57600080fd5b62000ab98e838f0162000954565b9a5060408d015191508082111562000ad057600080fd5b62000ade8e838f01620009d9565b995060608d015191508082111562000af557600080fd5b5062000b048d828e01620009d9565b97505060808b0151955060a08b0151945060c08b0151935060e08b015192506101008b0151915062000b3a6101208c01620008bd565b90509295989b9194979a5092959850565b6000815180845262000b6581602086016020860162000d50565b601f01601f19169290920160200192915050565b60608152600062000b8e606083018662000b4b565b828103602084015262000ba2818662000b4b565b91505060ff83166040830152949350505050565b604051601f8201601f191681016001600160401b038111828210171562000be15762000be162000dd2565b604052919050565b60006001600160401b0382111562000c055762000c0562000dd2565b5060051b60200190565b600181815b8085111562000c5057816000190482111562000c345762000c3462000da6565b8085161562000c4257918102915b93841c939080029062000c14565b509250929050565b6000620007d9838360008262000c7157506001620007dc565b8162000c8057506000620007dc565b816001811462000c99576002811462000ca45762000cc4565b6001915050620007dc565b60ff84111562000cb85762000cb862000da6565b50506001821b620007dc565b5060208310610133831016604e8410600b841016171562000ce9575081810a620007dc565b62000cf5838362000c0f565b806000190482111562000d0c5762000d0c62000da6565b029392505050565b600081600019048311821515161562000d315762000d3162000da6565b500290565b60008282101562000d4b5762000d4b62000da6565b500390565b60005b8381101562000d6d57818101518382015260200162000d53565b8381111562000d7d576000848401525b50505050565b600060ff821660ff81141562000d9d5762000d9d62000da6565b60010192915050565b634e487b7160e01b600052601160045260246000fd5b634e487b7160e01b600052603260045260246000fd5b634e487b7160e01b600052604160045260246000fd5b6001600160a01b038116811462000dfe57600080fd5b50565b6121398062000e116000396000f3fe608060405234801561001057600080fd5b50600436106102265760003560e01c806384cdd9bc1161012a578063c00c125c116100bd578063da7a77be1161008c578063ef0a712f11610071578063ef0a712f146104f1578063f2fde38b14610504578063f9273ffb1461051757600080fd5b8063da7a77be146104d6578063e25aa5fa146104e957600080fd5b8063c00c125c146104a0578063c4db7fa0146104b3578063d0d41fe1146104bb578063d46300fd146104ce57600080fd5b806391ceb3eb116100f957806391ceb3eb1461045457806398899f4014610467578063a95b089f1461047a578063ac5bf2631461048d57600080fd5b806384cdd9bc1461040a5780638beb60b61461041d5780638da5cb5b14610430578063916955861461044157600080fd5b806352ff62ec116101bd57806366c0bd241161018c5780637c61e561116101715780637c61e561146103c457806382b86600146103d75780638456cb591461040257600080fd5b806366c0bd2414610397578063715018a6146103bc57600080fd5b806352ff62ec146102c4578063593d132c146102d75780635c975abb146102ea5780635fd65f0f1461030757600080fd5b80633e3a1560116101f95780633e3a1560146102835780633f4ba83a146102965780634a1b0d571461029e5780634d49e87d146102b157600080fd5b80630419b45a1461022b5780630ba819591461023557806331cd52b01461025057806334e1990714610270575b600080fd5b61023361052a565b005b61023d61061d565b6040519081526020015b60405180910390f35b61026361025e366004611df7565b6106a9565b6040516102479190611fbe565b61023361027e366004611dc5565b6107e7565b61023d610291366004611e90565b61089d565b610233610a23565b61023d6102ac366004611bc3565b610a75565b61023d6102bf366004611caf565b610b11565b6102336102d2366004611dc5565b610c3a565b6102336102e5366004611e4a565b610cc1565b600054600160a01b900460ff166040519015158152602001610247565b600254600354600454600554600654600754600854600954600a54600b546103419998979695949392916001600160a01b0390811691168a565b604080519a8b5260208b0199909952978901969096526060880194909452608087019290925260a086015260c085015260e08401526001600160a01b039081166101008401521661012082015261014001610247565b6103aa6103a5366004611bc3565b610d7f565b60405160ff9091168152602001610247565b610233610dff565b6102636103d2366004611c49565b610e51565b6103ea6103e5366004611ecb565b610ef8565b6040516001600160a01b039091168152602001610247565b610233610f81565b61023d610418366004611caf565b610fd1565b61023361042b366004611dc5565b6110fa565b6000546001600160a01b03166103ea565b61023d61044f366004611f22565b611181565b61023d610462366004611ecb565b61131d565b61023d610475366004611c73565b61139d565b61023d610488366004611ee6565b61144a565b61023361049b366004611dc5565b6114f0565b6102336104ae366004611c49565b611577565b61023361161f565b6102336104c9366004611bc3565b61169f565b61023d61172e565b61023d6104e4366004611bc3565b611769565b61023d6117b3565b61023d6104ff366004611dc5565b6117ee565b610233610512366004611bc3565b611830565b61023d610525366004611bde565b611900565b6000546001600160a01b031633146105775760405162461bcd60e51b8152602060048201819052602482015260008051602061210d83398151915260448201526064015b60405180910390fd5b73__$a4e4384d4f8ec13c7a898ae597a4175ef6$__6324c5c75160026105a56000546001600160a01b031690565b6040517fffffffff0000000000000000000000000000000000000000000000000000000060e085901b16815260048101929092526001600160a01b031660248201526044015b60006040518083038186803b15801561060357600080fd5b505af4158015610617573d6000803e3d6000fd5b50505050565b60405163c9b64dcb60e01b81526002600482015260009073__$a4e4384d4f8ec13c7a898ae597a4175ef6$__9063c9b64dcb906024015b60206040518083038186803b15801561066c57600080fd5b505af4158015610680573d6000803e3d6000fd5b505050506040513d601f19601f820116820180604052508101906106a49190611dde565b905090565b6060600260015414156106fe5760405162461bcd60e51b815260206004820152601f60248201527f5265656e7472616e637947756172643a207265656e7472616e742063616c6c00604482015260640161056e565b600260015581428110156107475760405162461bcd60e51b815260206004820152601060248201526f111958591b1a5b99481b9bdd081b595d60821b604482015260640161056e565b6040516339feb59f60e11b815273__$a4e4384d4f8ec13c7a898ae597a4175ef6$__906373fd6b3e90610785906002908a908a908a9060040161206a565b60006040518083038186803b15801561079d57600080fd5b505af41580156107b1573d6000803e3d6000fd5b505050506040513d6000823e601f3d908101601f191682016040526107d99190810190611d00565b600180559695505050505050565b6000546001600160a01b0316331461082f5760405162461bcd60e51b8152602060048201819052602482015260008051602061210d833981519152604482015260640161056e565b60405163119f861b60e21b8152600260048201526024810182905273__$a4e4384d4f8ec13c7a898ae597a4175ef6$__9063467e186c906044015b60006040518083038186803b15801561088257600080fd5b505af4158015610896573d6000803e3d6000fd5b5050505050565b6000600260015414156108f25760405162461bcd60e51b815260206004820152601f60248201527f5265656e7472616e637947756172643a207265656e7472616e742063616c6c00604482015260640161056e565b6002600155600054600160a01b900460ff16156109445760405162461bcd60e51b815260206004820152601060248201526f14185d5cd8589b194e881c185d5cd95960821b604482015260640161056e565b81804211156109885760405162461bcd60e51b815260206004820152601060248201526f111958591b1a5b99481b9bdd081b595d60821b604482015260640161056e565b60405163e7a4db8160e01b8152600260048201526024810187905260ff861660448201526064810185905273__$a4e4384d4f8ec13c7a898ae597a4175ef6$__9063e7a4db81906084015b60206040518083038186803b1580156109eb57600080fd5b505af41580156109ff573d6000803e3d6000fd5b505050506040513d601f19601f820116820180604052508101906107d99190611dde565b6000546001600160a01b03163314610a6b5760405162461bcd60e51b8152602060048201819052602482015260008051602061210d833981519152604482015260640161056e565b610a736119b4565b565b6040516325a3956560e21b8152600260048201526001600160a01b038216602482015260009073__$a4e4384d4f8ec13c7a898ae597a4175ef6$__9063968e5594906044015b60206040518083038186803b158015610ad357600080fd5b505af4158015610ae7573d6000803e3d6000fd5b505050506040513d601f19601f82011682018060405250810190610b0b9190611dde565b92915050565b600060026001541415610b665760405162461bcd60e51b815260206004820152601f60248201527f5265656e7472616e637947756172643a207265656e7472616e742063616c6c00604482015260640161056e565b6002600155600054600160a01b900460ff1615610bb85760405162461bcd60e51b815260206004820152601060248201526f14185d5cd8589b194e881c185d5cd95960821b604482015260640161056e565b8180421115610bfc5760405162461bcd60e51b815260206004820152601060248201526f111958591b1a5b99481b9bdd081b595d60821b604482015260640161056e565b6040516340370edf60e01b815273__$a4e4384d4f8ec13c7a898ae597a4175ef6$__906340370edf906109d3906002908a908a908a9060040161203f565b6000546001600160a01b03163314610c825760405162461bcd60e51b8152602060048201819052602482015260008051602061210d833981519152604482015260640161056e565b60405163d2a3948760e01b8152600260048201526024810182905273__$a4e4384d4f8ec13c7a898ae597a4175ef6$__9063d2a394879060440161086a565b6000546001600160a01b03163314610d095760405162461bcd60e51b8152602060048201819052602482015260008051602061210d833981519152604482015260640161056e565b6040516358fdd79b60e01b815260026004820152602481018390526044810182905273__$a4e4384d4f8ec13c7a898ae597a4175ef6$__906358fdd79b906064015b60006040518083038186803b158015610d6357600080fd5b505af4158015610d77573d6000803e3d6000fd5b505050505050565b6001600160a01b038116600081815260116020526040812054909160ff90911690610da982610ef8565b6001600160a01b031614610b0b5760405162461bcd60e51b815260206004820152601460248201527f546f6b656e20646f6573206e6f74206578697374000000000000000000000000604482015260640161056e565b6000546001600160a01b03163314610e475760405162461bcd60e51b8152602060048201819052602482015260008051602061210d833981519152604482015260640161056e565b610a736000611a5a565b60405163f967a81f60e01b8152600260048201526001600160a01b03831660248201526044810182905260609073__$a4e4384d4f8ec13c7a898ae597a4175ef6$__9063f967a81f9060640160006040518083038186803b158015610eb557600080fd5b505af4158015610ec9573d6000803e3d6000fd5b505050506040513d6000823e601f3d908101601f19168201604052610ef19190810190611d00565b9392505050565b600c5460009060ff831610610f4f5760405162461bcd60e51b815260206004820152600c60248201527f4f7574206f662072616e67650000000000000000000000000000000000000000604482015260640161056e565b600c805460ff8416908110610f6657610f666120e0565b6000918252602090912001546001600160a01b031692915050565b6000546001600160a01b03163314610fc95760405162461bcd60e51b8152602060048201819052602482015260008051602061210d833981519152604482015260640161056e565b610a73611ac2565b6000600260015414156110265760405162461bcd60e51b815260206004820152601f60248201527f5265656e7472616e637947756172643a207265656e7472616e742063616c6c00604482015260640161056e565b6002600155600054600160a01b900460ff16156110785760405162461bcd60e51b815260206004820152601060248201526f14185d5cd8589b194e881c185d5cd95960821b604482015260640161056e565b81804211156110bc5760405162461bcd60e51b815260206004820152601060248201526f111958591b1a5b99481b9bdd081b595d60821b604482015260640161056e565b6040516320dc8e1360e11b815273__$a4e4384d4f8ec13c7a898ae597a4175ef6$__906341b91c26906109d3906002908a908a908a9060040161203f565b6000546001600160a01b031633146111425760405162461bcd60e51b8152602060048201819052602482015260008051602061210d833981519152604482015260640161056e565b604051633823393b60e11b8152600260048201526024810182905273__$a4e4384d4f8ec13c7a898ae597a4175ef6$__9063704672769060440161086a565b6000600260015414156111d65760405162461bcd60e51b815260206004820152601f60248201527f5265656e7472616e637947756172643a207265656e7472616e742063616c6c00604482015260640161056e565b6002600155600054600160a01b900460ff16156112285760405162461bcd60e51b815260206004820152601060248201526f14185d5cd8589b194e881c185d5cd95960821b604482015260640161056e565b818042111561126c5760405162461bcd60e51b815260206004820152601060248201526f111958591b1a5b99481b9bdd081b595d60821b604482015260640161056e565b60405163529cbd9160e11b81526002600482015260ff808916602483015287166044820152606481018690526084810185905273__$a4e4384d4f8ec13c7a898ae597a4175ef6$__9063a5397b229060a40160206040518083038186803b1580156112d657600080fd5b505af41580156112ea573d6000803e3d6000fd5b505050506040513d601f19601f8201168201806040525081019061130e9190611dde565b60018055979650505050505050565b600c5460009060ff8316106113745760405162461bcd60e51b815260206004820152601260248201527f496e646578206f7574206f662072616e67650000000000000000000000000000604482015260640161056e565b600e805460ff841690811061138b5761138b6120e0565b90600052602060002001549050919050565b604051637254d06d60e11b8152600260048201526001600160a01b03841660248201526044810183905260ff8216606482015260009073__$a4e4384d4f8ec13c7a898ae597a4175ef6$__9063e4a9a0da90608401604080518083038186803b15801561140957600080fd5b505af415801561141d573d6000803e3d6000fd5b505050506040513d601f19601f820116820180604052508101906114419190611e6c565b50949350505050565b6040516312c8d80f60e21b81526002600482015260ff8085166024830152831660448201526064810182905260009073__$a4e4384d4f8ec13c7a898ae597a4175ef6$__90634b23603c9060840160206040518083038186803b1580156114b057600080fd5b505af41580156114c4573d6000803e3d6000fd5b505050506040513d601f19601f820116820180604052508101906114e89190611dde565b949350505050565b6000546001600160a01b031633146115385760405162461bcd60e51b8152602060048201819052602482015260008051602061210d833981519152604482015260640161056e565b60405163455bb4bf60e11b8152600260048201526024810182905273__$a4e4384d4f8ec13c7a898ae597a4175ef6$__90638ab7697e9060440161086a565b600b546001600160a01b031633146115d15760405162461bcd60e51b815260206004820152601b60248201527f4f6e6c792063616c6c61626c6520627920706f6f6c20746f6b656e0000000000604482015260640161056e565b60405163749296a360e11b8152600260048201526001600160a01b03831660248201526044810182905273__$a4e4384d4f8ec13c7a898ae597a4175ef6$__9063e9252d4690606401610d4b565b6000546001600160a01b031633146116675760405162461bcd60e51b8152602060048201819052602482015260008051602061210d833981519152604482015260640161056e565b6040516378a7108f60e11b81526002600482015273__$a4e4384d4f8ec13c7a898ae597a4175ef6$__9063f14e211e906024016105eb565b6000546001600160a01b031633146116e75760405162461bcd60e51b8152602060048201819052602482015260008051602061210d833981519152604482015260640161056e565b6040516321c363e760e11b8152600260048201526001600160a01b038216602482015273__$a4e4384d4f8ec13c7a898ae597a4175ef6$__90634386c7ce9060440161086a565b604051632c28533f60e21b81526002600482015260009073__$a4e4384d4f8ec13c7a898ae597a4175ef6$__9063b0a14cfc90602401610654565b604051633a311e9560e21b8152600260048201526001600160a01b038216602482015260009073__$a4e4384d4f8ec13c7a898ae597a4175ef6$__9063e8c47a5490604401610abb565b604051631c641b0b60e21b81526002600482015260009073__$a4e4384d4f8ec13c7a898ae597a4175ef6$__906371906c2c90602401610654565b6040516303e8240b60e51b8152600260048201526024810182905260009073__$a4e4384d4f8ec13c7a898ae597a4175ef6$__90637d04816090604401610abb565b6000546001600160a01b031633146118785760405162461bcd60e51b8152602060048201819052602482015260008051602061210d833981519152604482015260640161056e565b6001600160a01b0381166118f45760405162461bcd60e51b815260206004820152602660248201527f4f776e61626c653a206e6577206f776e657220697320746865207a65726f206160448201527f6464726573730000000000000000000000000000000000000000000000000000606482015260840161056e565b6118fd81611a5a565b50565b60405163179615e760e21b815260009073__$a4e4384d4f8ec13c7a898ae597a4175ef6$__90635e58579c90611943906002908990899089908990600401612002565b60206040518083038186803b15801561195b57600080fd5b505af415801561196f573d6000803e3d6000fd5b505050506040513d601f19601f820116820180604052508101906119939190611dde565b95945050505050565b6000610ef182846120b3565b6000610ef18284612094565b600054600160a01b900460ff16611a0d5760405162461bcd60e51b815260206004820152601460248201527f5061757361626c653a206e6f7420706175736564000000000000000000000000604482015260640161056e565b6000805460ff60a01b191690557f5db9ee0a495bf2e6ff9c91a7834c1ba4fdd244a5e8aa4e537bd38aeae4b073aa335b6040516001600160a01b03909116815260200160405180910390a1565b600080546001600160a01b038381167fffffffffffffffffffffffff0000000000000000000000000000000000000000831681178455604051919092169283917f8be0079c531659141344cd1fd0a4f28419497f9722a3daafe3b4186f6b6457e09190a35050565b600054600160a01b900460ff1615611b0f5760405162461bcd60e51b815260206004820152601060248201526f14185d5cd8589b194e881c185d5cd95960821b604482015260640161056e565b6000805460ff60a01b1916600160a01b1790557f62e78cea01bee320cd4e420270b5ea74000d11b0c9f74754ebdbfc544b05a258611a3d3390565b80356001600160a01b0381168114611b6157600080fd5b919050565b60008083601f840112611b7857600080fd5b50813567ffffffffffffffff811115611b9057600080fd5b6020830191508360208260051b8501011115611bab57600080fd5b9250929050565b803560ff81168114611b6157600080fd5b600060208284031215611bd557600080fd5b610ef182611b4a565b60008060008060608587031215611bf457600080fd5b611bfd85611b4a565b9350602085013567ffffffffffffffff811115611c1957600080fd5b611c2587828801611b66565b90945092505060408501358015158114611c3e57600080fd5b939692955090935050565b60008060408385031215611c5c57600080fd5b611c6583611b4a565b946020939093013593505050565b600080600060608486031215611c8857600080fd5b611c9184611b4a565b925060208401359150611ca660408501611bb2565b90509250925092565b60008060008060608587031215611cc557600080fd5b843567ffffffffffffffff811115611cdc57600080fd5b611ce887828801611b66565b90989097506020870135966040013595509350505050565b60006020808385031215611d1357600080fd5b825167ffffffffffffffff80821115611d2b57600080fd5b818501915085601f830112611d3f57600080fd5b815181811115611d5157611d516120f6565b8060051b604051601f19603f83011681018181108582111715611d7657611d766120f6565b604052828152858101935084860182860187018a1015611d9557600080fd5b600095505b83861015611db8578051855260019590950194938601938601611d9a565b5098975050505050505050565b600060208284031215611dd757600080fd5b5035919050565b600060208284031215611df057600080fd5b5051919050565b60008060008060608587031215611e0d57600080fd5b84359350602085013567ffffffffffffffff811115611e2b57600080fd5b611e3787828801611b66565b9598909750949560400135949350505050565b60008060408385031215611e5d57600080fd5b50508035926020909101359150565b60008060408385031215611e7f57600080fd5b505080516020909101519092909150565b60008060008060808587031215611ea657600080fd5b84359350611eb660208601611bb2565b93969395505050506040820135916060013590565b600060208284031215611edd57600080fd5b610ef182611bb2565b600080600060608486031215611efb57600080fd5b611f0484611bb2565b9250611f1260208501611bb2565b9150604084013590509250925092565b600080600080600060a08688031215611f3a57600080fd5b611f4386611bb2565b9450611f5160208701611bb2565b94979496505050506040830135926060810135926080909101359150565b81835260007f07ffffffffffffffffffffffffffffffffffffffffffffffffffffffffffffff831115611fa157600080fd5b8260051b8083602087013760009401602001938452509192915050565b6020808252825182820181905260009190848201906040850190845b81811015611ff657835183529284019291840191600101611fda565b50909695505050505050565b8581526001600160a01b038516602082015260806040820152600061202b608083018587611f6f565b905082151560608301529695505050505050565b848152606060208201526000612059606083018587611f6f565b905082604083015295945050505050565b84815283602082015260606040820152600061208a606083018486611f6f565b9695505050505050565b60008160001904831182151516156120ae576120ae6120ca565b500290565b6000828210156120c5576120c56120ca565b500390565b634e487b7160e01b600052601160045260246000fd5b634e487b7160e01b600052603260045260246000fd5b634e487b7160e01b600052604160045260246000fdfe4f776e61626c653a2063616c6c6572206973206e6f7420746865206f776e6572a164736f6c6343000807000a60a06040523480156200001157600080fd5b50604051620013393803806200133983398101604081905262000034916200026d565b8251839083906200004d90600390602085019062000110565b5080516200006390600490602084019062000110565b505050620000806200007a620000ba60201b60201c565b620000be565b6005805460ff60a01b1916600160a01b60ff841602179055620000a03390565b60601b6001600160601b0319166080525062000345915050565b3390565b600580546001600160a01b038381166001600160a01b0319831681179093556040519116919082907f8be0079c531659141344cd1fd0a4f28419497f9722a3daafe3b4186f6b6457e090600090a35050565b8280546200011e90620002f2565b90600052602060002090601f0160209004810192826200014257600085556200018d565b82601f106200015d57805160ff19168380011785556200018d565b828001600101855582156200018d579182015b828111156200018d57825182559160200191906001019062000170565b506200019b9291506200019f565b5090565b5b808211156200019b5760008155600101620001a0565b600082601f830112620001c857600080fd5b81516001600160401b0380821115620001e557620001e56200032f565b604051601f8301601f19908116603f011681019082821181831017156200021057620002106200032f565b816040528381526020925086838588010111156200022d57600080fd5b600091505b8382101562000251578582018301518183018401529082019062000232565b83821115620002635760008385830101525b9695505050505050565b6000806000606084860312156200028357600080fd5b83516001600160401b03808211156200029b57600080fd5b620002a987838801620001b6565b94506020860151915080821115620002c057600080fd5b50620002cf86828701620001b6565b925050604084015160ff81168114620002e757600080fd5b809150509250925092565b600181811c908216806200030757607f821691505b602082108114156200032957634e487b7160e01b600052602260045260246000fd5b50919050565b634e487b7160e01b600052604160045260246000fd5b60805160601c610fce6200036b600039600081816102550152610d9b0152610fce6000f3fe608060405234801561001057600080fd5b50600436106101365760003560e01c8063715018a6116100b257806395d89b4111610081578063a9059cbb11610066578063a9059cbb146102bb578063dd62ed3e146102ce578063f2fde38b1461030757600080fd5b806395d89b41146102a0578063a457c2d7146102a857600080fd5b8063715018a61461023557806379cc67901461023d5780638119c065146102505780638da5cb5b1461028f57600080fd5b8063313ce5671161010957806340c10f19116100ee57806340c10f19146101e457806342966c68146101f957806370a082311461020c57600080fd5b8063313ce567146101a157806339509351146101d157600080fd5b806306fdde031461013b578063095ea7b31461015957806318160ddd1461017c57806323b872dd1461018e575b600080fd5b61014361031a565b6040516101509190610eec565b60405180910390f35b61016c610167366004610ea9565b6103ac565b6040519015158152602001610150565b6002545b604051908152602001610150565b61016c61019c366004610e6d565b6103c4565b60055474010000000000000000000000000000000000000000900460ff1660405160ff9091168152602001610150565b61016c6101df366004610ea9565b6103e8565b6101f76101f2366004610ea9565b610427565b005b6101f7610207366004610ed3565b6104e1565b61018061021a366004610e18565b6001600160a01b031660009081526020819052604090205490565b6101f76104ee565b6101f761024b366004610ea9565b610554565b6102777f000000000000000000000000000000000000000000000000000000000000000081565b6040516001600160a01b039091168152602001610150565b6005546001600160a01b0316610277565b610143610569565b61016c6102b6366004610ea9565b610578565b61016c6102c9366004610ea9565b610622565b6101806102dc366004610e3a565b6001600160a01b03918216600090815260016020908152604080832093909416825291909152205490565b6101f7610315366004610e18565b610630565b60606003805461032990610f70565b80601f016020809104026020016040519081016040528092919081815260200182805461035590610f70565b80156103a25780601f10610377576101008083540402835291602001916103a2565b820191906000526020600020905b81548152906001019060200180831161038557829003601f168201915b5050505050905090565b6000336103ba81858561070f565b5060019392505050565b6000336103d2858285610834565b6103dd8585856108c6565b506001949350505050565b3360008181526001602090815260408083206001600160a01b03871684529091528120549091906103ba9082908690610422908790610f41565b61070f565b6005546001600160a01b031633146104865760405162461bcd60e51b815260206004820181905260248201527f4f776e61626c653a2063616c6c6572206973206e6f7420746865206f776e657260448201526064015b60405180910390fd5b806104d35760405162461bcd60e51b815260206004820152600b60248201527f616d6f756e74203d3d2030000000000000000000000000000000000000000000604482015260640161047d565b6104dd8282610ace565b5050565b6104eb3382610bb9565b50565b6005546001600160a01b031633146105485760405162461bcd60e51b815260206004820181905260248201527f4f776e61626c653a2063616c6c6572206973206e6f7420746865206f776e6572604482015260640161047d565b6105526000610d0b565b565b61055f823383610834565b6104dd8282610bb9565b60606004805461032990610f70565b3360008181526001602090815260408083206001600160a01b0387168452909152812054909190838110156106155760405162461bcd60e51b815260206004820152602560248201527f45524332303a2064656372656173656420616c6c6f77616e63652062656c6f7760448201527f207a65726f000000000000000000000000000000000000000000000000000000606482015260840161047d565b6103dd828686840361070f565b6000336103ba8185856108c6565b6005546001600160a01b0316331461068a5760405162461bcd60e51b815260206004820181905260248201527f4f776e61626c653a2063616c6c6572206973206e6f7420746865206f776e6572604482015260640161047d565b6001600160a01b0381166107065760405162461bcd60e51b815260206004820152602660248201527f4f776e61626c653a206e6577206f776e657220697320746865207a65726f206160448201527f6464726573730000000000000000000000000000000000000000000000000000606482015260840161047d565b6104eb81610d0b565b6001600160a01b0383166107715760405162461bcd60e51b8152602060048201526024808201527f45524332303a20617070726f76652066726f6d20746865207a65726f206164646044820152637265737360e01b606482015260840161047d565b6001600160a01b0382166107d25760405162461bcd60e51b815260206004820152602260248201527f45524332303a20617070726f766520746f20746865207a65726f206164647265604482015261737360f01b606482015260840161047d565b6001600160a01b0383811660008181526001602090815260408083209487168084529482529182902085905590518481527f8c5be1e5ebec7d5bd14f71427d1e84f3dd0314c0f7b2291e5b200ac8c7c3b92591015b60405180910390a3505050565b6001600160a01b0383811660009081526001602090815260408083209386168352929052205460001981146108c057818110156108b35760405162461bcd60e51b815260206004820152601d60248201527f45524332303a20696e73756666696369656e7420616c6c6f77616e6365000000604482015260640161047d565b6108c0848484840361070f565b50505050565b6001600160a01b0383166109425760405162461bcd60e51b815260206004820152602560248201527f45524332303a207472616e736665722066726f6d20746865207a65726f20616460448201527f6472657373000000000000000000000000000000000000000000000000000000606482015260840161047d565b6001600160a01b0382166109a45760405162461bcd60e51b815260206004820152602360248201527f45524332303a207472616e7366657220746f20746865207a65726f206164647260448201526265737360e81b606482015260840161047d565b6109af838383610d75565b6001600160a01b03831660009081526020819052604090205481811015610a3e5760405162461bcd60e51b815260206004820152602660248201527f45524332303a207472616e7366657220616d6f756e742065786365656473206260448201527f616c616e63650000000000000000000000000000000000000000000000000000606482015260840161047d565b6001600160a01b03808516600090815260208190526040808220858503905591851681529081208054849290610a75908490610f41565b92505081905550826001600160a01b0316846001600160a01b03167fddf252ad1be2c89b69c2b068fc378daa952ba7f163c4a11628f55a4df523b3ef84604051610ac191815260200190565b60405180910390a36108c0565b6001600160a01b038216610b245760405162461bcd60e51b815260206004820152601f60248201527f45524332303a206d696e7420746f20746865207a65726f206164647265737300604482015260640161047d565b610b3060008383610d75565b8060026000828254610b429190610f41565b90915550506001600160a01b03821660009081526020819052604081208054839290610b6f908490610f41565b90915550506040518181526001600160a01b038316906000907fddf252ad1be2c89b69c2b068fc378daa952ba7f163c4a11628f55a4df523b3ef9060200160405180910390a35050565b6001600160a01b038216610c195760405162461bcd60e51b815260206004820152602160248201527f45524332303a206275726e2066726f6d20746865207a65726f206164647265736044820152607360f81b606482015260840161047d565b610c2582600083610d75565b6001600160a01b03821660009081526020819052604090205481811015610c995760405162461bcd60e51b815260206004820152602260248201527f45524332303a206275726e20616d6f756e7420657863656564732062616c616e604482015261636560f01b606482015260840161047d565b6001600160a01b0383166000908152602081905260408120838303905560028054849290610cc8908490610f59565b90915550506040518281526000906001600160a01b038516907fddf252ad1be2c89b69c2b068fc378daa952ba7f163c4a11628f55a4df523b3ef90602001610827565b600580546001600160a01b038381167fffffffffffffffffffffffff0000000000000000000000000000000000000000831681179093556040519116919082907f8be0079c531659141344cd1fd0a4f28419497f9722a3daafe3b4186f6b6457e090600090a35050565b604051633003049760e21b81526001600160a01b038381166004830152602482018390527f0000000000000000000000000000000000000000000000000000000000000000169063c00c125c90604401600060405180830381600087803b158015610ddf57600080fd5b505af1158015610df3573d6000803e3d6000fd5b50505050505050565b80356001600160a01b0381168114610e1357600080fd5b919050565b600060208284031215610e2a57600080fd5b610e3382610dfc565b9392505050565b60008060408385031215610e4d57600080fd5b610e5683610dfc565b9150610e6460208401610dfc565b90509250929050565b600080600060608486031215610e8257600080fd5b610e8b84610dfc565b9250610e9960208501610dfc565b9150604084013590509250925092565b60008060408385031215610ebc57600080fd5b610ec583610dfc565b946020939093013593505050565b600060208284031215610ee557600080fd5b5035919050565b600060208083528351808285015260005b81811015610f1957858101830151858201604001528201610efd565b81811115610f2b576000604083870101525b50601f01601f1916929092016040019392505050565b60008219821115610f5457610f54610fab565b500190565b600082821015610f6b57610f6b610fab565b500390565b600181811c90821680610f8457607f821691505b60208210811415610fa557634e487b7160e01b600052602260045260246000fd5b50919050565b634e487b7160e01b600052601160045260246000fdfea164736f6c6343000807000a",
  "linkReferences": {
    "contracts/SwapUtils.sol": {
      "SwapUtils": [
        {
          "length": 20,
          "start": 5002
        },
        {
          "length": 20,
          "start": 5191
        },
        {
          "length": 20,
          "start": 5479
        },
        {
          "length": 20,
          "start": 5725
        },
        {
          "length": 20,
          "start": 6086
        },
        {
          "length": 20,
          "start": 6318
        },
        {
          "length": 20,
          "start": 6684
        },
        {
          "length": 20,
          "start": 6832
        },
        {
          "length": 20,
          "start": 6974
        },
        {
          "length": 20,
          "start": 7313
        },
        {
          "length": 20,
          "start": 7900
        },
        {
          "length": 20,
          "start": 8048
        },
        {
          "length": 20,
          "start": 8370
        },
        {
          "length": 20,
          "start": 8678
        },
        {
          "length": 20,
          "start": 8844
        },
        {
          "length": 20,
          "start": 9062
        },
        {
          "length": 20,
          "start": 9230
        },
        {
          "length": 20,
          "start": 9358
        },
        {
          "length": 20,
          "start": 9501
        },
        {
          "length": 20,
          "start": 9560
        },
        {
          "length": 20,
          "start": 9634
        },
        {
          "length": 20,
          "start": 9693
        },
        {
          "length": 20,
          "start": 9759
        },
        {
          "length": 20,
          "start": 10019
        }
      ]
    }
  },
  "deployedLinkReferences": {
    "contracts/SwapUtils.sol": {
      "SwapUtils": [
        {
          "length": 20,
          "start": 1401
        },
        {
          "length": 20,
          "start": 1590
        },
        {
          "length": 20,
          "start": 1878
        },
        {
          "length": 20,
          "start": 2124
        },
        {
          "length": 20,
          "start": 2485
        },
        {
          "length": 20,
          "start": 2717
        },
        {
          "length": 20,
          "start": 3083
        },
        {
          "length": 20,
          "start": 3231
        },
        {
          "length": 20,
          "start": 3373
        },
        {
          "length": 20,
          "start": 3712
        },
        {
          "length": 20,
          "start": 4299
        },
        {
          "length": 20,
          "start": 4447
        },
        {
          "length": 20,
          "start": 4769
        },
        {
          "length": 20,
          "start": 5077
        },
        {
          "length": 20,
          "start": 5243
        },
        {
          "length": 20,
          "start": 5461
        },
        {
          "length": 20,
          "start": 5629
        },
        {
          "length": 20,
          "start": 5757
        },
        {
          "length": 20,
          "start": 5900
        },
        {
          "length": 20,
          "start": 5959
        },
        {
          "length": 20,
          "start": 6033
        },
        {
          "length": 20,
          "start": 6092
        },
        {
          "length": 20,
          "start": 6158
        },
        {
          "length": 20,
          "start": 6418
        }
      ]
    }
  }
}