{
  "_format": "hh-sol-artifact-1",
  "contractName": "TestimonyDAO",
  "sourceName": "contracts/TestimonyDAO.sol",
  "abi": [
    {
      "anonymous": false,
      "inputs": [
        {
          "indexed": true,
          "internalType": "address",
          "name": "validator",
          "type": "address"
        },
        {
          "indexed": true,
          "internalType": "bytes32",
          "name": "key",
          "type": "bytes32"
        },
        {
          "indexed": false,
          "internalType": "bytes",
          "name": "testimony",
          "type": "bytes"
        }
      ],
      "name": "Testimony",
      "type": "event"
    },
    {
      "inputs": [
        {
          "internalType": "bytes32",
          "name": "key",
          "type": "bytes32"
        },
        {
          "internalType": "bytes",
          "name": "value",
          "type": "bytes"
        }
      ],
      "name": "addTestimony",
      "outputs": [],
      "stateMutability": "nonpayable",
      "type": "function"
    }
  ],
  "bytecode": "0x608060405234801561001057600080fd5b50610153806100206000396000f3fe608060405234801561001057600080fd5b506004361061002b5760003560e01c8063513bd02114610030575b600080fd5b61004361003e36600461009b565b610045565b005b823373ffffffffffffffffffffffffffffffffffffffff167f738e5ba8c1c11648ac3cb5c81364c2ed48f5af4b2937b323a0e1f4cce15801cf848460405161008e929190610117565b60405180910390a3505050565b6000806000604084860312156100b057600080fd5b83359250602084013567ffffffffffffffff808211156100cf57600080fd5b818601915086601f8301126100e357600080fd5b8135818111156100f257600080fd5b87602082850101111561010457600080fd5b6020830194508093505050509250925092565b60208152816020820152818360408301376000818301604090810191909152601f909201601f1916010191905056fea164736f6c6343000807000a",
  "linkReferences": {},
  "deployedLinkReferences": {}
}