{
  "_format": "hh-sol-artifact-1",
  "contractName": "CrosschainERC20",
  "sourceName": "contracts/CrosschainERC20.sol",
  "abi": [
    {
      "inputs": [
        {
          "internalType": "contract ERC20",
          "name": "_coToken",
          "type": "address"
        },
        {
          "internalType": "address",
          "name": "_minter",
          "type": "address"
        },
        {
          "internalType": "string",
          "name": "_name",
          "type": "string"
        },
        {
          "internalType": "string",
          "name": "_symbol",
          "type": "string"
        },
        {
          "internalType": "uint8",
          "name": "_decimals",
          "type": "uint8"
        }
      ],
      "stateMutability": "nonpayable",
      "type": "constructor"
    },
    {
      "anonymous": false,
      "inputs": [
        {
          "indexed": true,
          "internalType": "address",
          "name": "owner",
          "type": "address"
        },
        {
          "indexed": true,
          "internalType": "address",
          "name": "spender",
          "type": "address"
        },
        {
          "indexed": false,
          "internalType": "uint256",
          "name": "value",
          "type": "uint256"
        }
      ],
      "name": "Approval",
      "type": "event"
    },
    {
      "anonymous": false,
      "inputs": [
        {
          "indexed": true,
          "internalType": "address",
          "name": "minter",
          "type": "address"
        }
      ],
      "name": "MinterSet",
      "type": "event"
    },
    {
      "anonymous": false,
      "inputs": [
        {
          "indexed": true,
          "internalType": "address",
          "name": "from",
          "type": "address"
        },
        {
          "indexed": true,
          "internalType": "address",
          "name": "to",
          "type": "address"
        },
        {
          "indexed": false,
          "internalType": "uint256",
          "name": "value",
          "type": "uint256"
        }
      ],
      "name": "Transfer",
      "type": "event"
    },
    {
      "inputs": [
        {
          "internalType": "address",
          "name": "owner",
          "type": "address"
        },
        {
          "internalType": "address",
          "name": "spender",
          "type": "address"
        }
      ],
      "name": "allowance",
      "outputs": [
        {
          "internalType": "uint256",
          "name": "",
          "type": "uint256"
        }
      ],
      "stateMutability": "view",
      "type": "function"
    },
    {
      "inputs": [
        {
          "internalType": "address",
          "name": "spender",
          "type": "address"
        },
        {
          "internalType": "uint256",
          "name": "amount",
          "type": "uint256"
        }
      ],
      "name": "approve",
      "outputs": [
        {
          "internalType": "bool",
          "name": "",
          "type": "bool"
        }
      ],
      "stateMutability": "nonpayable",
      "type": "function"
    },
    {
      "inputs": [
        {
          "internalType": "address",
          "name": "account",
          "type": "address"
        }
      ],
      "name": "balanceOf",
      "outputs": [
        {
          "internalType": "uint256",
          "name": "",
          "type": "uint256"
        }
      ],
      "stateMutability": "view",
      "type": "function"
    },
    {
      "inputs": [
        {
          "internalType": "uint256",
          "name": "amount",
          "type": "uint256"
        }
      ],
      "name": "burn",
      "outputs": [],
      "stateMutability": "nonpayable",
      "type": "function"
    },
    {
      "inputs": [
        {
          "internalType": "address",
          "name": "account",
          "type": "address"
        },
        {
          "internalType": "uint256",
          "name": "amount",
          "type": "uint256"
        }
      ],
      "name": "burnFrom",
      "outputs": [],
      "stateMutability": "nonpayable",
      "type": "function"
    },
    {
      "inputs": [],
      "name": "coToken",
      "outputs": [
        {
          "internalType": "contract ERC20",
          "name": "",
          "type": "address"
        }
      ],
      "stateMutability": "view",
      "type": "function"
    },
    {
      "inputs": [],
      "name": "decimals",
      "outputs": [
        {
          "internalType": "uint8",
          "name": "",
          "type": "uint8"
        }
      ],
      "stateMutability": "view",
      "type": "function"
    },
    {
      "inputs": [
        {
          "internalType": "address",
          "name": "spender",
          "type": "address"
        },
        {
          "internalType": "uint256",
          "name": "subtractedValue",
          "type": "uint256"
        }
      ],
      "name": "decreaseAllowance",
      "outputs": [
        {
          "internalType": "bool",
          "name": "",
          "type": "bool"
        }
      ],
      "stateMutability": "nonpayable",
      "type": "function"
    },
    {
      "inputs": [
        {
          "internalType": "uint256",
          "name": "_amount",
          "type": "uint256"
        }
      ],
      "name": "deposit",
      "outputs": [],
      "stateMutability": "nonpayable",
      "type": "function"
    },
    {
      "inputs": [
        {
          "internalType": "address",
          "name": "_to",
          "type": "address"
        },
        {
          "internalType": "uint256",
          "name": "_amount",
          "type": "uint256"
        }
      ],
      "name": "depositTo",
      "outputs": [],
      "stateMutability": "nonpayable",
      "type": "function"
    },
    {
      "inputs": [
        {
          "internalType": "address",
          "name": "spender",
          "type": "address"
        },
        {
          "internalType": "uint256",
          "name": "addedValue",
          "type": "uint256"
        }
      ],
      "name": "increaseAllowance",
      "outputs": [
        {
          "internalType": "bool",
          "name": "",
          "type": "bool"
        }
      ],
      "stateMutability": "nonpayable",
      "type": "function"
    },
    {
      "inputs": [
        {
          "internalType": "address",
          "name": "_to",
          "type": "address"
        },
        {
          "internalType": "uint256",
          "name": "_amount",
          "type": "uint256"
        }
      ],
      "name": "mint",
      "outputs": [
        {
          "internalType": "bool",
          "name": "",
          "type": "bool"
        }
      ],
      "stateMutability": "nonpayable",
      "type": "function"
    },
    {
      "inputs": [],
      "name": "minter",
      "outputs": [
        {
          "internalType": "address",
          "name": "",
          "type": "address"
        }
      ],
      "stateMutability": "view",
      "type": "function"
    },
    {
      "inputs": [],
      "name": "name",
      "outputs": [
        {
          "internalType": "string",
          "name": "",
          "type": "string"
        }
      ],
      "stateMutability": "view",
      "type": "function"
    },
    {
      "inputs": [],
      "name": "symbol",
      "outputs": [
        {
          "internalType": "string",
          "name": "",
          "type": "string"
        }
      ],
      "stateMutability": "view",
      "type": "function"
    },
    {
      "inputs": [],
      "name": "totalSupply",
      "outputs": [
        {
          "internalType": "uint256",
          "name": "",
          "type": "uint256"
        }
      ],
      "stateMutability": "view",
      "type": "function"
    },
    {
      "inputs": [
        {
          "internalType": "address",
          "name": "to",
          "type": "address"
        },
        {
          "internalType": "uint256",
          "name": "amount",
          "type": "uint256"
        }
      ],
      "name": "transfer",
      "outputs": [
        {
          "internalType": "bool",
          "name": "",
          "type": "bool"
        }
      ],
      "stateMutability": "nonpayable",
      "type": "function"
    },
    {
      "inputs": [
        {
          "internalType": "address",
          "name": "from",
          "type": "address"
        },
        {
          "internalType": "address",
          "name": "to",
          "type": "address"
        },
        {
          "internalType": "uint256",
          "name": "amount",
          "type": "uint256"
        }
      ],
      "name": "transferFrom",
      "outputs": [
        {
          "internalType": "bool",
          "name": "",
          "type": "bool"
        }
      ],
      "stateMutability": "nonpayable",
      "type": "function"
    },
    {
      "inputs": [
        {
          "internalType": "address",
          "name": "_newMinter",
          "type": "address"
        }
      ],
      "name": "transferMintership",
      "outputs": [],
      "stateMutability": "nonpayable",
      "type": "function"
    },
    {
      "inputs": [
        {
          "internalType": "uint256",
          "name": "_amount",
          "type": "uint256"
        }
      ],
      "name": "withdraw",
      "outputs": [],
      "stateMutability": "nonpayable",
      "type": "function"
    },
    {
      "inputs": [
        {
          "internalType": "address",
          "name": "_to",
          "type": "address"
        },
        {
          "internalType": "uint256",
          "name": "_amount",
          "type": "uint256"
        }
      ],
      "name": "withdrawTo",
      "outputs": [],
      "stateMutability": "nonpayable",
      "type": "function"
    }
  ],
  "bytecode": "0x60806040523480156200001157600080fd5b506040516200169e3803806200169e83398101604081905262000034916200023b565b8251839083906200004d906003906020850190620000de565b50805162000063906004906020840190620000de565b5050600580546001600160a01b0319166001600160a01b0388811691909117909155600680549187166001600160a81b03199092168217600160a01b60ff8616021790556040519091507f726b590ef91a8c76ad05bbe91a57ef84605276528f49cd47d787f558a4e755b690600090a2505050505062000358565b828054620000ec90620002ec565b90600052602060002090601f0160209004810192826200011057600085556200015b565b82601f106200012b57805160ff19168380011785556200015b565b828001600101855582156200015b579182015b828111156200015b5782518255916020019190600101906200013e565b50620001699291506200016d565b5090565b5b808211156200016957600081556001016200016e565b600082601f8301126200019657600080fd5b81516001600160401b0380821115620001b357620001b362000329565b604051601f8301601f19908116603f01168101908282118183101715620001de57620001de62000329565b81604052838152602092508683858801011115620001fb57600080fd5b600091505b838210156200021f578582018301518183018401529082019062000200565b83821115620002315760008385830101525b9695505050505050565b600080600080600060a086880312156200025457600080fd5b855162000261816200033f565b602087015190955062000274816200033f565b60408701519094506001600160401b03808211156200029257600080fd5b620002a089838a0162000184565b94506060880151915080821115620002b757600080fd5b50620002c68882890162000184565b925050608086015160ff81168114620002de57600080fd5b809150509295509295909350565b600181811c908216806200030157607f821691505b602082108114156200032357634e487b7160e01b600052602260045260246000fd5b50919050565b634e487b7160e01b600052604160045260246000fd5b6001600160a01b03811681146200035557600080fd5b50565b61133680620003686000396000f3fe608060405234801561001057600080fd5b50600436106101775760003560e01c806342966c68116100d8578063a457c2d71161008c578063cf86a95a11610066578063cf86a95a1461032e578063dd62ed3e14610341578063ffaad6a51461037a57600080fd5b8063a457c2d7146102f5578063a9059cbb14610308578063b6b55f251461031b57600080fd5b806379cc6790116100bd57806379cc6790146102c75780637f9864f7146102da57806395d89b41146102ed57600080fd5b806342966c681461028b57806370a082311461029e57600080fd5b806323b872dd1161012f578063313ce56711610114578063313ce56714610235578063395093511461026557806340c10f191461027857600080fd5b806323b872dd1461020f5780632e1a7d4d1461022257600080fd5b8063095ea7b311610160578063095ea7b3146101c557806318160ddd146101e8578063205c2878146101fa57600080fd5b806306fdde031461017c578063075461721461019a575b600080fd5b61018461038d565b604051610191919061124a565b60405180910390f35b6006546101ad906001600160a01b031681565b6040516001600160a01b039091168152602001610191565b6101d86101d33660046111c9565b61041f565b6040519015158152602001610191565b6002545b604051908152602001610191565b61020d6102083660046111c9565b610437565b005b6101d861021d36600461118d565b6104e2565b61020d610230366004611215565b610508565b60065474010000000000000000000000000000000000000000900460ff1660405160ff9091168152602001610191565b6101d86102733660046111c9565b610515565b6101d86102863660046111c9565b610554565b61020d610299366004611215565b6105f0565b6101ec6102ac36600461113f565b6001600160a01b031660009081526020819052604090205490565b61020d6102d53660046111c9565b6105fa565b6005546101ad906001600160a01b031681565b61018461060f565b6101d86103033660046111c9565b61061e565b6101d86103163660046111c9565b6106d3565b61020d610329366004611215565b6106e1565b61020d61033c36600461113f565b6106eb565b6101ec61034f36600461115a565b6001600160a01b03918216600090815260016020908152604080832093909416825291909152205490565b61020d6103883660046111c9565b610798565b60606003805461039c906112d8565b80601f01602080910402602001604051908101604052809291908181526020018280546103c8906112d8565b80156104155780601f106103ea57610100808354040283529160200191610415565b820191906000526020600020905b8154815290600101906020018083116103f857829003601f168201915b5050505050905090565b60003361042d818585610800565b5060019392505050565b6005546001600160a01b03166104825760405162461bcd60e51b815260206004820152600b60248201526a37379031b796ba37b5b2b760a91b60448201526064015b60405180910390fd5b806104bd5760405162461bcd60e51b815260206004820152600b60248201526a0616d6f756e7420697320360ac1b6044820152606401610479565b6104c73382610925565b6005546104de906001600160a01b03168383610a70565b5050565b6000336104f0858285610b00565b6104fb858585610b92565b60019150505b9392505050565b6105123382610437565b50565b3360008181526001602090815260408083206001600160a01b038716845290915281205490919061042d908290869061054f90879061127d565b610800565b6006546000906001600160a01b031633146105a25760405162461bcd60e51b815260206004820152600e60248201526d3737ba103a34329036b4b73a32b960911b6044820152606401610479565b816105dd5760405162461bcd60e51b815260206004820152600b60248201526a0616d6f756e7420697320360ac1b6044820152606401610479565b6105e78383610d8f565b50600192915050565b6105123382610925565b610605823383610b00565b6104de8282610925565b60606004805461039c906112d8565b3360008181526001602090815260408083206001600160a01b0387168452909152812054909190838110156106bb5760405162461bcd60e51b815260206004820152602560248201527f45524332303a2064656372656173656420616c6c6f77616e63652062656c6f7760448201527f207a65726f0000000000000000000000000000000000000000000000000000006064820152608401610479565b6106c88286868403610800565b506001949350505050565b60003361042d818585610b92565b6105123382610798565b6006546001600160a01b031633146107365760405162461bcd60e51b815260206004820152600e60248201526d3737ba103a34329036b4b73a32b960911b6044820152606401610479565b600680547fffffffffffffffffffffffff0000000000000000000000000000000000000000166001600160a01b0383169081179091556040517f726b590ef91a8c76ad05bbe91a57ef84605276528f49cd47d787f558a4e755b690600090a250565b6005546001600160a01b03166107de5760405162461bcd60e51b815260206004820152600b60248201526a37379031b796ba37b5b2b760a91b6044820152606401610479565b6005546107f6906001600160a01b0316333084610e6e565b6104de8282610d8f565b6001600160a01b0383166108625760405162461bcd60e51b8152602060048201526024808201527f45524332303a20617070726f76652066726f6d20746865207a65726f206164646044820152637265737360e01b6064820152608401610479565b6001600160a01b0382166108c35760405162461bcd60e51b815260206004820152602260248201527f45524332303a20617070726f766520746f20746865207a65726f206164647265604482015261737360f01b6064820152608401610479565b6001600160a01b0383811660008181526001602090815260408083209487168084529482529182902085905590518481527f8c5be1e5ebec7d5bd14f71427d1e84f3dd0314c0f7b2291e5b200ac8c7c3b92591015b60405180910390a3505050565b6001600160a01b0382166109855760405162461bcd60e51b815260206004820152602160248201527f45524332303a206275726e2066726f6d20746865207a65726f206164647265736044820152607360f81b6064820152608401610479565b6001600160a01b038216600090815260208190526040902054818110156109f95760405162461bcd60e51b815260206004820152602260248201527f45524332303a206275726e20616d6f756e7420657863656564732062616c616e604482015261636560f01b6064820152608401610479565b6001600160a01b0383166000908152602081905260408120838303905560028054849290610a28908490611295565b90915550506040518281526000906001600160a01b038516907fddf252ad1be2c89b69c2b068fc378daa952ba7f163c4a11628f55a4df523b3ef90602001610918565b505050565b6040516001600160a01b038316602482015260448101829052610a6b90849063a9059cbb60e01b906064015b60408051601f198184030181529190526020810180517bffffffffffffffffffffffffffffffffffffffffffffffffffffffff167fffffffff0000000000000000000000000000000000000000000000000000000090931692909217909152610ea6565b6001600160a01b038381166000908152600160209081526040808320938616835292905220546000198114610b8c5781811015610b7f5760405162461bcd60e51b815260206004820152601d60248201527f45524332303a20696e73756666696369656e7420616c6c6f77616e63650000006044820152606401610479565b610b8c8484848403610800565b50505050565b6001600160a01b038316610c0e5760405162461bcd60e51b815260206004820152602560248201527f45524332303a207472616e736665722066726f6d20746865207a65726f20616460448201527f64726573730000000000000000000000000000000000000000000000000000006064820152608401610479565b6001600160a01b038216610c705760405162461bcd60e51b815260206004820152602360248201527f45524332303a207472616e7366657220746f20746865207a65726f206164647260448201526265737360e81b6064820152608401610479565b6001600160a01b03831660009081526020819052604090205481811015610cff5760405162461bcd60e51b815260206004820152602660248201527f45524332303a207472616e7366657220616d6f756e742065786365656473206260448201527f616c616e636500000000000000000000000000000000000000000000000000006064820152608401610479565b6001600160a01b03808516600090815260208190526040808220858503905591851681529081208054849290610d3690849061127d565b92505081905550826001600160a01b0316846001600160a01b03167fddf252ad1be2c89b69c2b068fc378daa952ba7f163c4a11628f55a4df523b3ef84604051610d8291815260200190565b60405180910390a3610b8c565b6001600160a01b038216610de55760405162461bcd60e51b815260206004820152601f60248201527f45524332303a206d696e7420746f20746865207a65726f2061646472657373006044820152606401610479565b8060026000828254610df7919061127d565b90915550506001600160a01b03821660009081526020819052604081208054839290610e2490849061127d565b90915550506040518181526001600160a01b038316906000907fddf252ad1be2c89b69c2b068fc378daa952ba7f163c4a11628f55a4df523b3ef9060200160405180910390a35050565b6040516001600160a01b0380851660248301528316604482015260648101829052610b8c9085906323b872dd60e01b90608401610a9c565b6000610efb826040518060400160405280602081526020017f5361666545524332303a206c6f772d6c6576656c2063616c6c206661696c6564815250856001600160a01b0316610f8b9092919063ffffffff16565b805190915015610a6b5780806020019051810190610f1991906111f3565b610a6b5760405162461bcd60e51b815260206004820152602a60248201527f5361666545524332303a204552433230206f7065726174696f6e20646964206e60448201527f6f742073756363656564000000000000000000000000000000000000000000006064820152608401610479565b6060610f9a8484600085610fa2565b949350505050565b60608247101561101a5760405162461bcd60e51b815260206004820152602660248201527f416464726573733a20696e73756666696369656e742062616c616e636520666f60448201527f722063616c6c00000000000000000000000000000000000000000000000000006064820152608401610479565b6001600160a01b0385163b6110715760405162461bcd60e51b815260206004820152601d60248201527f416464726573733a2063616c6c20746f206e6f6e2d636f6e74726163740000006044820152606401610479565b600080866001600160a01b0316858760405161108d919061122e565b60006040518083038185875af1925050503d80600081146110ca576040519150601f19603f3d011682016040523d82523d6000602084013e6110cf565b606091505b50915091506110df8282866110ea565b979650505050505050565b606083156110f9575081610501565b8251156111095782518084602001fd5b8160405162461bcd60e51b8152600401610479919061124a565b80356001600160a01b038116811461113a57600080fd5b919050565b60006020828403121561115157600080fd5b61050182611123565b6000806040838503121561116d57600080fd5b61117683611123565b915061118460208401611123565b90509250929050565b6000806000606084860312156111a257600080fd5b6111ab84611123565b92506111b960208501611123565b9150604084013590509250925092565b600080604083850312156111dc57600080fd5b6111e583611123565b946020939093013593505050565b60006020828403121561120557600080fd5b8151801515811461050157600080fd5b60006020828403121561122757600080fd5b5035919050565b600082516112408184602087016112ac565b9190910192915050565b60208152600082518060208401526112698160408501602087016112ac565b601f01601f19169190910160400192915050565b6000821982111561129057611290611313565b500190565b6000828210156112a7576112a7611313565b500390565b60005b838110156112c75781810151838201526020016112af565b83811115610b8c5750506000910152565b600181811c908216806112ec57607f821691505b6020821081141561130d57634e487b7160e01b600052602260045260246000fd5b50919050565b634e487b7160e01b600052601160045260246000fdfea164736f6c6343000807000a",
  "linkReferences": {},
  "deployedLinkReferences": {}
}